{
  "_format": "hh-sol-artifact-1",
  "contractName": "Factory",
  "sourceName": "contracts/Factory.sol",
  "abi": [
    {
      "inputs": [],
      "stateMutability": "nonpayable",
      "type": "constructor"
    },
    {
      "anonymous": false,
      "inputs": [
        {
          "indexed": false,
          "internalType": "uint256",
          "name": "ContractID",
          "type": "uint256"
        },
        {
          "indexed": false,
          "internalType": "address",
          "name": "conAddress",
          "type": "address"
        }
      ],
      "name": "ContractCreated",
      "type": "event"
    },
    {
      "anonymous": false,
      "inputs": [
        {
          "indexed": true,
          "internalType": "address",
          "name": "previousOwner",
          "type": "address"
        },
        {
          "indexed": true,
          "internalType": "address",
          "name": "newOwner",
          "type": "address"
        }
      ],
      "name": "OwnershipTransferred",
      "type": "event"
    },
    {
      "inputs": [],
      "name": "counter",
      "outputs": [
        {
          "internalType": "uint256",
          "name": "",
          "type": "uint256"
        }
      ],
      "stateMutability": "view",
      "type": "function"
    },
    {
      "inputs": [
        {
          "internalType": "uint256",
          "name": "_totalInvestment",
          "type": "uint256"
        },
        {
          "internalType": "address",
          "name": "_paymentTokenAddress",
          "type": "address"
        }
      ],
      "name": "deployNew",
      "outputs": [
        {
          "internalType": "address",
          "name": "",
          "type": "address"
        }
      ],
      "stateMutability": "nonpayable",
      "type": "function"
    },
    {
      "inputs": [
        {
          "internalType": "uint256",
          "name": "",
          "type": "uint256"
        }
      ],
      "name": "deployedContracts",
      "outputs": [
        {
          "internalType": "contract Investment",
          "name": "",
          "type": "address"
        }
      ],
      "stateMutability": "view",
      "type": "function"
    },
    {
      "inputs": [
        {
          "internalType": "address",
          "name": "contractAddress",
          "type": "address"
        }
      ],
      "name": "getAddressOnContract",
      "outputs": [
        {
          "internalType": "uint256",
          "name": "userTotal",
          "type": "uint256"
        }
      ],
      "stateMutability": "view",
      "type": "function"
    },
    {
      "inputs": [
        {
          "internalType": "address",
          "name": "user",
          "type": "address"
        }
      ],
      "name": "getAddressTotal",
      "outputs": [
        {
          "internalType": "uint256",
          "name": "userTotal",
          "type": "uint256"
        }
      ],
      "stateMutability": "view",
      "type": "function"
    },
    {
      "inputs": [],
      "name": "getLastDeployedContract",
      "outputs": [
        {
          "internalType": "address",
          "name": "contractAddress",
          "type": "address"
        }
      ],
      "stateMutability": "view",
      "type": "function"
    },
    {
      "inputs": [],
      "name": "owner",
      "outputs": [
        {
          "internalType": "address",
          "name": "",
          "type": "address"
        }
      ],
      "stateMutability": "view",
      "type": "function"
    },
    {
      "inputs": [],
      "name": "renounceOwnership",
      "outputs": [],
      "stateMutability": "nonpayable",
      "type": "function"
    },
    {
      "inputs": [
        {
          "internalType": "address",
          "name": "_lgentry",
          "type": "address"
        }
      ],
      "name": "setEntryAddress",
      "outputs": [],
      "stateMutability": "nonpayable",
      "type": "function"
    },
    {
      "inputs": [
        {
          "internalType": "address",
          "name": "newOwner",
          "type": "address"
        }
      ],
      "name": "transferOwnership",
      "outputs": [],
      "stateMutability": "nonpayable",
      "type": "function"
    }
  ],
  "bytecode": "0x608060405234801561001057600080fd5b5061002d61002261003260201b60201c565b61003a60201b60201c565b6100fe565b600033905090565b60008060009054906101000a900473ffffffffffffffffffffffffffffffffffffffff169050816000806101000a81548173ffffffffffffffffffffffffffffffffffffffff021916908373ffffffffffffffffffffffffffffffffffffffff1602179055508173ffffffffffffffffffffffffffffffffffffffff168173ffffffffffffffffffffffffffffffffffffffff167f8be0079c531659141344cd1fd0a4f28419497f9722a3daafe3b4186f6b6457e060405160405180910390a35050565b615b958061010d6000396000f3fe60806040523480156200001157600080fd5b5060043610620000ac5760003560e01c80639ad1ee10116200006f5780639ad1ee101462000157578063a8d114ba146200018d578063ec8e0ac114620001c3578063ee58f8f714620001e5578063f2fde38b146200021b57620000ac565b806311655dbd14620000b1578063279bc3aa14620000e757806361bc221a1462000107578063715018a614620001295780638da5cb5b1462000135575b600080fd5b620000cf6004803603810190620000c9919062000a79565b6200023b565b604051620000de919062000ac6565b60405180910390f35b620001056004803603810190620000ff919062000a79565b6200033c565b005b62000111620003fc565b60405162000120919062000ac6565b60405180910390f35b6200013362000402565b005b6200013f6200041a565b6040516200014e919062000af4565b60405180910390f35b6200017560048036038101906200016f919062000b42565b62000443565b60405162000184919062000bdf565b60405180910390f35b620001ab6004803603810190620001a5919062000a79565b62000483565b604051620001ba919062000ac6565b60405180910390f35b620001cd6200050b565b604051620001dc919062000af4565b60405180910390f35b620002036004803603810190620001fd919062000bfc565b6200057e565b60405162000212919062000af4565b60405180910390f35b62000239600480360381019062000233919062000a79565b62000826565b005b600080600090505b60018054905081101562000336576001818154811062000268576200026762000c43565b5b9060005260206000200160009054906101000a900473ffffffffffffffffffffffffffffffffffffffff1673ffffffffffffffffffffffffffffffffffffffff166370a08231846040518263ffffffff1660e01b8152600401620002cd919062000af4565b602060405180830381865afa158015620002eb573d6000803e3d6000fd5b505050506040513d601f19601f8201168201806040525081019062000311919062000c89565b826200031e919062000cea565b915080806200032d9062000d25565b91505062000243565b50919050565b62000346620008b0565b600073ffffffffffffffffffffffffffffffffffffffff168173ffffffffffffffffffffffffffffffffffffffff1603620003b8576040517f08c379a0000000000000000000000000000000000000000000000000000000008152600401620003af9062000df9565b60405180910390fd5b80600260006101000a81548173ffffffffffffffffffffffffffffffffffffffff021916908373ffffffffffffffffffffffffffffffffffffffff16021790555050565b60035481565b6200040c620008b0565b62000418600062000935565b565b60008060009054906101000a900473ffffffffffffffffffffffffffffffffffffffff16905090565b600181815481106200045457600080fd5b906000526020600020016000915054906101000a900473ffffffffffffffffffffffffffffffffffffffff1681565b60008173ffffffffffffffffffffffffffffffffffffffff166370a08231336040518263ffffffff1660e01b8152600401620004c0919062000af4565b602060405180830381865afa158015620004de573d6000803e3d6000fd5b505050506040513d601f19601f8201168201806040525081019062000504919062000c89565b9050919050565b6000806001805490501115620005765760018080805490506200052f919062000e1b565b8154811062000543576200054262000c43565b5b9060005260206000200160009054906101000a900473ffffffffffffffffffffffffffffffffffffffff1690506200057b565b600090505b90565b60006200058a620008b0565b600073ffffffffffffffffffffffffffffffffffffffff16600260009054906101000a900473ffffffffffffffffffffffffffffffffffffffff1673ffffffffffffffffffffffffffffffffffffffff16036200061e576040517f08c379a0000000000000000000000000000000000000000000000000000000008152600401620006159062000ecc565b60405180910390fd5b600073ffffffffffffffffffffffffffffffffffffffff168273ffffffffffffffffffffffffffffffffffffffff160362000690576040517f08c379a0000000000000000000000000000000000000000000000000000000008152600401620006879062000f64565b60405180910390fd5b60036000815480929190620006a59062000d25565b9190505550600083600260009054906101000a900473ffffffffffffffffffffffffffffffffffffffff1684604051620006df9062000a01565b620006ed9392919062000f86565b604051809103906000f0801580156200070a573d6000803e3d6000fd5b5090506001819080600181540180825580915050600190039060005260206000200160009091909190916101000a81548173ffffffffffffffffffffffffffffffffffffffff021916908373ffffffffffffffffffffffffffffffffffffffff1602179055508073ffffffffffffffffffffffffffffffffffffffff1663f2fde38b336040518263ffffffff1660e01b8152600401620007ab919062000af4565b600060405180830381600087803b158015620007c657600080fd5b505af1158015620007db573d6000803e3d6000fd5b505050507f9c275c9d7bdddb2ca162a8f5e9d3bbbf2922accedfd8372561a6211fc4e38146600354826040516200081492919062000fc3565b60405180910390a18091505092915050565b62000830620008b0565b600073ffffffffffffffffffffffffffffffffffffffff168173ffffffffffffffffffffffffffffffffffffffff1603620008a2576040517f08c379a0000000000000000000000000000000000000000000000000000000008152600401620008999062001066565b60405180910390fd5b620008ad8162000935565b50565b620008ba620009f9565b73ffffffffffffffffffffffffffffffffffffffff16620008da6200041a565b73ffffffffffffffffffffffffffffffffffffffff161462000933576040517f08c379a00000000000000000000000000000000000000000000000000000000081526004016200092a90620010d8565b60405180910390fd5b565b60008060009054906101000a900473ffffffffffffffffffffffffffffffffffffffff169050816000806101000a81548173ffffffffffffffffffffffffffffffffffffffff021916908373ffffffffffffffffffffffffffffffffffffffff1602179055508173ffffffffffffffffffffffffffffffffffffffff168173ffffffffffffffffffffffffffffffffffffffff167f8be0079c531659141344cd1fd0a4f28419497f9722a3daafe3b4186f6b6457e060405160405180910390a35050565b600033905090565b614a6580620010fb83390190565b600080fd5b600073ffffffffffffffffffffffffffffffffffffffff82169050919050565b600062000a418262000a14565b9050919050565b62000a538162000a34565b811462000a5f57600080fd5b50565b60008135905062000a738162000a48565b92915050565b60006020828403121562000a925762000a9162000a0f565b5b600062000aa28482850162000a62565b91505092915050565b6000819050919050565b62000ac08162000aab565b82525050565b600060208201905062000add600083018462000ab5565b92915050565b62000aee8162000a34565b82525050565b600060208201905062000b0b600083018462000ae3565b92915050565b62000b1c8162000aab565b811462000b2857600080fd5b50565b60008135905062000b3c8162000b11565b92915050565b60006020828403121562000b5b5762000b5a62000a0f565b5b600062000b6b8482850162000b2b565b91505092915050565b6000819050919050565b600062000b9f62000b9962000b938462000a14565b62000b74565b62000a14565b9050919050565b600062000bb38262000b7e565b9050919050565b600062000bc78262000ba6565b9050919050565b62000bd98162000bba565b82525050565b600060208201905062000bf6600083018462000bce565b92915050565b6000806040838503121562000c165762000c1562000a0f565b5b600062000c268582860162000b2b565b925050602062000c398582860162000a62565b9150509250929050565b7f4e487b7100000000000000000000000000000000000000000000000000000000600052603260045260246000fd5b60008151905062000c838162000b11565b92915050565b60006020828403121562000ca25762000ca162000a0f565b5b600062000cb28482850162000c72565b91505092915050565b7f4e487b7100000000000000000000000000000000000000000000000000000000600052601160045260246000fd5b600062000cf78262000aab565b915062000d048362000aab565b925082820190508082111562000d1f5762000d1e62000cbb565b5b92915050565b600062000d328262000aab565b91507fffffffffffffffffffffffffffffffffffffffffffffffffffffffffffffffff820362000d675762000d6662000cbb565b5b600182019050919050565b600082825260208201905092915050565b7f466163746f72793a2050726f766964652061207265616c20616464726573732060008201527f696e2074686520706172616d65746572732e0000000000000000000000000000602082015250565b600062000de160328362000d72565b915062000dee8262000d83565b604082019050919050565b6000602082019050818103600083015262000e148162000dd2565b9050919050565b600062000e288262000aab565b915062000e358362000aab565b925082820390508181111562000e505762000e4f62000cbb565b5b92915050565b7f466163746f72793a2046697273742070726f766964652074686520656e74727960008201527f20636f6e74726163742061646472657373000000000000000000000000000000602082015250565b600062000eb460318362000d72565b915062000ec18262000e56565b604082019050919050565b6000602082019050818103600083015262000ee78162000ea5565b9050919050565b7f466163746f72793a2050726f766964652061207265616c207061796d656e745460008201527f6f6b656e41646472657373000000000000000000000000000000000000000000602082015250565b600062000f4c602b8362000d72565b915062000f598262000eee565b604082019050919050565b6000602082019050818103600083015262000f7f8162000f3d565b9050919050565b600060608201905062000f9d600083018662000ab5565b62000fac602083018562000ae3565b62000fbb604083018462000ae3565b949350505050565b600060408201905062000fda600083018562000ab5565b62000fe9602083018462000ae3565b9392505050565b7f4f776e61626c653a206e6577206f776e657220697320746865207a65726f206160008201527f6464726573730000000000000000000000000000000000000000000000000000602082015250565b60006200104e60268362000d72565b91506200105b8262000ff0565b604082019050919050565b6000602082019050818103600083015262001081816200103f565b9050919050565b7f4f776e61626c653a2063616c6c6572206973206e6f7420746865206f776e6572600082015250565b6000620010c060208362000d72565b9150620010cd8262001088565b602082019050919050565b60006020820190508181036000830152620010f381620010b1565b905091905056fe60e06040523480156200001157600080fd5b5060405162004a6538038062004a65833981810160405281019062000037919062000546565b6040518060400160405280601281526020017f496e766573746d656e7443757272656e637900000000000000000000000000008152506040518060400160405280600281526020017f49430000000000000000000000000000000000000000000000000000000000008152508160039081620000b4919062000812565b508060049081620000c6919062000812565b505050620000e9620000dd6200025360201b60201c565b6200025b60201b60201c565b6001600681905550600073ffffffffffffffffffffffffffffffffffffffff168273ffffffffffffffffffffffffffffffffffffffff16141580156200015c5750600073ffffffffffffffffffffffffffffffffffffffff168173ffffffffffffffffffffffffffffffffffffffff1614155b6200019e576040517f08c379a0000000000000000000000000000000000000000000000000000000008152600401620001959062000980565b60405180910390fd5b620001ae6200032160201b60201c565b600a620001bc919062000b32565b83620001c9919062000b83565b608081815250508173ffffffffffffffffffffffffffffffffffffffff1660c08173ffffffffffffffffffffffffffffffffffffffff16815250508073ffffffffffffffffffffffffffffffffffffffff1660a08173ffffffffffffffffffffffffffffffffffffffff16815250506200024a60016200032a60201b60201c565b50505062000ce1565b600033905090565b6000600560009054906101000a900473ffffffffffffffffffffffffffffffffffffffff16905081600560006101000a81548173ffffffffffffffffffffffffffffffffffffffff021916908373ffffffffffffffffffffffffffffffffffffffff1602179055508173ffffffffffffffffffffffffffffffffffffffff168173ffffffffffffffffffffffffffffffffffffffff167f8be0079c531659141344cd1fd0a4f28419497f9722a3daafe3b4186f6b6457e060405160405180910390a35050565b60006006905090565b6200033a6200038a60201b60201c565b6200034a6200041b60201b60201c565b80600760006101000a81548160ff0219169083600481111562000372576200037162000bce565b5b0217905550620003876200046d60201b60201c565b50565b6200039a6200025360201b60201c565b73ffffffffffffffffffffffffffffffffffffffff16620003c06200047760201b60201c565b73ffffffffffffffffffffffffffffffffffffffff161462000419576040517f08c379a0000000000000000000000000000000000000000000000000000000008152600401620004109062000c4d565b60405180910390fd5b565b60026006540362000463576040517f08c379a00000000000000000000000000000000000000000000000000000000081526004016200045a9062000cbf565b60405180910390fd5b6002600681905550565b6001600681905550565b6000600560009054906101000a900473ffffffffffffffffffffffffffffffffffffffff16905090565b600080fd5b6000819050919050565b620004bb81620004a6565b8114620004c757600080fd5b50565b600081519050620004db81620004b0565b92915050565b600073ffffffffffffffffffffffffffffffffffffffff82169050919050565b60006200050e82620004e1565b9050919050565b620005208162000501565b81146200052c57600080fd5b50565b600081519050620005408162000515565b92915050565b600080600060608486031215620005625762000561620004a1565b5b60006200057286828701620004ca565b935050602062000585868287016200052f565b925050604062000598868287016200052f565b9150509250925092565b600081519050919050565b7f4e487b7100000000000000000000000000000000000000000000000000000000600052604160045260246000fd5b7f4e487b7100000000000000000000000000000000000000000000000000000000600052602260045260246000fd5b600060028204905060018216806200062457607f821691505b6020821081036200063a5762000639620005dc565b5b50919050565b60008190508160005260206000209050919050565b60006020601f8301049050919050565b600082821b905092915050565b600060088302620006a47fffffffffffffffffffffffffffffffffffffffffffffffffffffffffffffffff8262000665565b620006b0868362000665565b95508019841693508086168417925050509392505050565b6000819050919050565b6000620006f3620006ed620006e784620004a6565b620006c8565b620004a6565b9050919050565b6000819050919050565b6200070f83620006d2565b620007276200071e82620006fa565b84845462000672565b825550505050565b600090565b6200073e6200072f565b6200074b81848462000704565b505050565b5b8181101562000773576200076760008262000734565b60018101905062000751565b5050565b601f821115620007c2576200078c8162000640565b620007978462000655565b81016020851015620007a7578190505b620007bf620007b68562000655565b83018262000750565b50505b505050565b600082821c905092915050565b6000620007e760001984600802620007c7565b1980831691505092915050565b6000620008028383620007d4565b9150826002028217905092915050565b6200081d82620005a2565b67ffffffffffffffff811115620008395762000838620005ad565b5b6200084582546200060b565b6200085282828562000777565b600060209050601f8311600181146200088a576000841562000875578287015190505b620008818582620007f4565b865550620008f1565b601f1984166200089a8662000640565b60005b82811015620008c4578489015182556001820191506020850194506020810190506200089d565b86831015620008e45784890151620008e0601f891682620007d4565b8355505b6001600288020188555050505b505050505050565b600082825260208201905092915050565b7f496e766573746d656e743a20436865636b2074686520706172616d657465727360008201527f20616e642072656465706c6f7900000000000000000000000000000000000000602082015250565b600062000968602d83620008f9565b915062000975826200090a565b604082019050919050565b600060208201905081810360008301526200099b8162000959565b9050919050565b7f4e487b7100000000000000000000000000000000000000000000000000000000600052601160045260246000fd5b60008160011c9050919050565b6000808291508390505b600185111562000a305780860481111562000a085762000a07620009a2565b5b600185161562000a185780820291505b808102905062000a2885620009d1565b9450620009e8565b94509492505050565b60008262000a4b576001905062000b1e565b8162000a5b576000905062000b1e565b816001811462000a74576002811462000a7f5762000ab5565b600191505062000b1e565b60ff84111562000a945762000a93620009a2565b5b8360020a91508482111562000aae5762000aad620009a2565b5b5062000b1e565b5060208310610133831016604e8410600b841016171562000aef5782820a90508381111562000ae95762000ae8620009a2565b5b62000b1e565b62000afe8484846001620009de565b9250905081840481111562000b185762000b17620009a2565b5b81810290505b9392505050565b600060ff82169050919050565b600062000b3f82620004a6565b915062000b4c8362000b25565b925062000b7b7fffffffffffffffffffffffffffffffffffffffffffffffffffffffffffffffff848462000a39565b905092915050565b600062000b9082620004a6565b915062000b9d83620004a6565b925082820262000bad81620004a6565b9150828204841483151762000bc75762000bc6620009a2565b5b5092915050565b7f4e487b7100000000000000000000000000000000000000000000000000000000600052602160045260246000fd5b7f4f776e61626c653a2063616c6c6572206973206e6f7420746865206f776e6572600082015250565b600062000c35602083620008f9565b915062000c428262000bfd565b602082019050919050565b6000602082019050818103600083015262000c688162000c26565b9050919050565b7f5265656e7472616e637947756172643a207265656e7472616e742063616c6c00600082015250565b600062000ca7601f83620008f9565b915062000cb48262000c6f565b602082019050919050565b6000602082019050818103600083015262000cda8162000c98565b9050919050565b60805160a05160c051613ceb62000d7a6000396000818161069601528181610bfe01528181610fb4015281816116350152611a6a01526000818161098601528181610ddf0152818161117f015281816118a30152611b28015260008181610607015281816111b00152818161122b0152818161142d0152818161145c015281816114900152818161180101526118360152613ceb6000f3fe608060405234801561001057600080fd5b50600436106101c45760003560e01c80636fb20d32116100f957806398ebf85d11610097578063a9059cbb11610071578063a9059cbb146104b1578063afb18fe7146104e1578063dd62ed3e146104ff578063f2fde38b1461052f576101c4565b806398ebf85d14610447578063a2d18dbd14610463578063a457c2d714610481576101c4565b80638a4660fe116100d35780638a4660fe146103d15780638da5cb5b146103ef57806395bc95381461040d57806395d89b4114610429576101c4565b80636fb20d321461037957806370a0823114610397578063715018a6146103c7576101c4565b806323b872dd11610166578063313ce56711610140578063313ce5671461031757806339509351146103355780633ccfd60b14610365578063505ba1f51461036f576101c4565b806323b872dd146102ad578063270a2b9a146102dd5780632afcf480146102fb576101c4565b806310ea13df116101a257806310ea13df1461023557806314395fe81461025357806318160ddd14610271578063200d2ed21461028f576101c4565b806306fdde03146101c95780630909c881146101e7578063095ea7b314610205575b600080fd5b6101d161054b565b6040516101de9190612861565b60405180910390f35b6101ef6105dd565b6040516101fc919061289f565b60405180910390f35b61021f600480360381019061021a9190612953565b6105e2565b60405161022c91906129ae565b60405180910390f35b61023d610605565b60405161024a91906129d8565b60405180910390f35b61025b610629565b60405161026891906129d8565b60405180910390f35b610279610638565b60405161028691906129d8565b60405180910390f35b610297610642565b6040516102a49190612a6a565b60405180910390f35b6102c760048036038101906102c29190612a85565b610655565b6040516102d491906129ae565b60405180910390f35b6102e5610684565b6040516102f291906129d8565b60405180910390f35b61031560048036038101906103109190612ad8565b61068a565b005b61031f610b3c565b60405161032c919061289f565b60405180910390f35b61034f600480360381019061034a9190612953565b610b45565b60405161035c91906129ae565b60405180910390f35b61036d610b7c565b005b610377610fa8565b005b610381611421565b60405161038e91906129d8565b60405180910390f35b6103b160048036038101906103ac9190612b05565b6114bf565b6040516103be91906129d8565b60405180910390f35b6103cf611507565b005b6103d961151b565b6040516103e691906129d8565b60405180910390f35b6103f7611520565b6040516104049190612b41565b60405180910390f35b61042760048036038101906104229190612b81565b61154a565b005b61043161158f565b60405161043e9190612861565b60405180910390f35b610461600480360381019061045c9190612bae565b611621565b005b61046b611a68565b6040516104789190612b41565b60405180910390f35b61049b60048036038101906104969190612953565b611a8c565b6040516104a891906129ae565b60405180910390f35b6104cb60048036038101906104c69190612953565b611b03565b6040516104d891906129ae565b60405180910390f35b6104e9611b26565b6040516104f69190612b41565b60405180910390f35b61051960048036038101906105149190612bee565b611b4a565b60405161052691906129d8565b60405180910390f35b61054960048036038101906105449190612b05565b611bd1565b005b60606003805461055a90612c5d565b80601f016020809104026020016040519081016040528092919081815260200182805461058690612c5d565b80156105d35780601f106105a8576101008083540402835291602001916105d3565b820191906000526020600020905b8154815290600101906020018083116105b657829003601f168201915b5050505050905090565b600a81565b6000806105ed611c54565b90506105fa818585611c5c565b600191505092915050565b7f000000000000000000000000000000000000000000000000000000000000000081565b6000610633610638565b905090565b6000600254905090565b600760009054906101000a900460ff1681565b600080610660611c54565b905061066d858285611e25565b610678858585611eb1565b60019150509392505050565b60085481565b610692612127565b60007f000000000000000000000000000000000000000000000000000000000000000073ffffffffffffffffffffffffffffffffffffffff1662fdd58e33600a6040518363ffffffff1660e01b81526004016106ef929190612cc9565b602060405180830381865afa15801561070c573d6000803e3d6000fd5b505050506040513d601f19601f820116820180604052508101906107309190612d07565b11610770576040517f08c379a000000000000000000000000000000000000000000000000000000000815260040161076790612d80565b60405180910390fd5b60648110156107b4576040517f08c379a00000000000000000000000000000000000000000000000000000000081526004016107ab90612dec565b60405180910390fd5b60006107bf336114bf565b6107c7610b3c565b600a6107d39190612f6e565b836107de9190612fb9565b6107e89190612ffb565b905060006107f4611421565b90506108356040518060400160405280600e81526020017f6d6178546f69496e766573743d2000000000000000000000000000000000000081525082612176565b6000620f424082610846919061305e565b90506108be6040518060400160405280601381526020017f72656d61696e696e6720746f2066696c6c3d2000000000000000000000000000815250826040518060400160405280600981526020017f20616d6f756e743a20000000000000000000000000000000000000000000000081525087612212565b818311156109055782826040517f67baf3500000000000000000000000000000000000000000000000000000000081526004016108fc92919061308f565b60405180910390fd5b6000848261091391906130b8565b0361095a5761092260026122b4565b7ffcd0fc3b7edcf92eb73215ea3e3ab540fa9aba19eab822f09520a62297b63a884260405161095191906129d8565b60405180910390a15b61098233610966610b3c565b600a6109729190612f6e565b8661097d9190612fb9565b6122e1565b60007f00000000000000000000000000000000000000000000000000000000000000009050600115158173ffffffffffffffffffffffffffffffffffffffff166323b872dd33308573ffffffffffffffffffffffffffffffffffffffff1663313ce5676040518163ffffffff1660e01b8152600401602060405180830381865afa158015610a14573d6000803e3d6000fd5b505050506040513d601f19601f82011682018060405250810190610a389190613118565b600a610a449190612f6e565b8a610a4f9190612fb9565b6040518463ffffffff1660e01b8152600401610a6d93929190613145565b6020604051808303816000875af1158015610a8c573d6000803e3d6000fd5b505050506040513d601f19601f82011682018060405250810190610ab091906131a8565b151514610af2576040517f08c379a0000000000000000000000000000000000000000000000000000000008152600401610ae990613221565b60405180910390fd5b7f47e05c250ea8d12a4327006492e000480fff676bd5589375a47a35d7b59e965c338642604051610b2593929190613241565b60405180910390a150505050610b39612437565b50565b60006006905090565b600080610b50611c54565b9050610b71818585610b628589611b4a565b610b6c9190612ffb565b611c5c565b600191505092915050565b610b84612127565b60006004811115610b9857610b976129f3565b5b600760009054906101000a900460ff166004811115610bba57610bb96129f3565b5b03610bfa576040517f08c379a0000000000000000000000000000000000000000000000000000000008152600401610bf1906132c4565b60405180910390fd5b60007f000000000000000000000000000000000000000000000000000000000000000073ffffffffffffffffffffffffffffffffffffffff1662fdd58e33600a6040518363ffffffff1660e01b8152600401610c57929190612cc9565b602060405180830381865afa158015610c74573d6000803e3d6000fd5b505050506040513d601f19601f82011682018060405250810190610c989190612d07565b11610cd8576040517f08c379a0000000000000000000000000000000000000000000000000000000008152600401610ccf90612d80565b60405180910390fd5b60036004811115610cec57610ceb6129f3565b5b600760009054906101000a900460ff166004811115610d0e57610d0d6129f3565b5b1480610d4c5750600480811115610d2857610d276129f3565b5b600760009054906101000a900460ff166004811115610d4a57610d496129f3565b5b145b610d8b576040517f08c379a0000000000000000000000000000000000000000000000000000000008152600401610d8290613330565b60405180910390fd5b6000610d96336114bf565b905060008111610ddb576040517f08c379a0000000000000000000000000000000000000000000000000000000008152600401610dd29061339c565b60405180910390fd5b60007f000000000000000000000000000000000000000000000000000000000000000090506000610e0b83612441565b9050610e17338461248d565b600115158273ffffffffffffffffffffffffffffffffffffffff1663a9059cbb338573ffffffffffffffffffffffffffffffffffffffff1663313ce5676040518163ffffffff1660e01b8152600401602060405180830381865afa158015610e83573d6000803e3d6000fd5b505050506040513d601f19601f82011682018060405250810190610ea79190613118565b600a610eb39190612f6e565b85610ebe9190612fb9565b6040518363ffffffff1660e01b8152600401610edb9291906133bc565b6020604051808303816000875af1158015610efa573d6000803e3d6000fd5b505050506040513d601f19601f82011682018060405250810190610f1e91906131a8565b151514610f60576040517f08c379a0000000000000000000000000000000000000000000000000000000008152600401610f5790613221565b60405180910390fd5b7ff279e6a1f5e320cca91135676d9cb6e44ca8a08c0b88342bcdb1144f6511b568338242604051610f9393929190613241565b60405180910390a1505050610fa6612437565b565b610fb061265a565b60007f000000000000000000000000000000000000000000000000000000000000000073ffffffffffffffffffffffffffffffffffffffff1662fdd58e33600a6040518363ffffffff1660e01b815260040161100d929190612cc9565b602060405180830381865afa15801561102a573d6000803e3d6000fd5b505050506040513d601f19601f8201168201806040525081019061104e9190612d07565b1161108e576040517f08c379a000000000000000000000000000000000000000000000000000000000815260040161108590612d80565b60405180910390fd5b600260048111156110a2576110a16129f3565b5b600760009054906101000a900460ff1660048111156110c4576110c36129f3565b5b14611104576040517f08c379a00000000000000000000000000000000000000000000000000000000081526004016110fb90613431565b60405180910390fd5b60006004811115611118576111176129f3565b5b600760009054906101000a900460ff16600481111561113a576111396129f3565b5b0361117a576040517f08c379a0000000000000000000000000000000000000000000000000000000008152600401611171906132c4565b60405180910390fd5b6000807f000000000000000000000000000000000000000000000000000000000000000090506111a8610629565b9150606460507f00000000000000000000000000000000000000000000000000000000000000006111d99190612fb9565b6111e3919061305e565b821015611225576040517f08c379a000000000000000000000000000000000000000000000000000000000815260040161121c9061349d565b60405180910390fd5b606460507f00000000000000000000000000000000000000000000000000000000000000006112549190612fb9565b61125e919061305e565b8173ffffffffffffffffffffffffffffffffffffffff166370a08231306040518263ffffffff1660e01b81526004016112979190612b41565b602060405180830381865afa1580156112b4573d6000803e3d6000fd5b505050506040513d601f19601f820116820180604052508101906112d89190612d07565b1015611319576040517f08c379a00000000000000000000000000000000000000000000000000000000081526004016113109061349d565b60405180910390fd5b7f726cc0c341611dd845f46d0ba0ed7d8eb937d9596c09cd5bc2dc93e3cec10712824260405161134a92919061308f565b60405180910390a1600115158173ffffffffffffffffffffffffffffffffffffffff1663a9059cbb3361137b610629565b6040518363ffffffff1660e01b81526004016113989291906133bc565b6020604051808303816000875af11580156113b7573d6000803e3d6000fd5b505050506040513d601f19601f820116820180604052508101906113db91906131a8565b15151461141d576040517f08c379a000000000000000000000000000000000000000000000000000000000815260040161141490613221565b60405180910390fd5b5050565b600061142b610629565b7f000000000000000000000000000000000000000000000000000000000000000061145691906130b8565b9050600a7f0000000000000000000000000000000000000000000000000000000000000000611485919061305e565b8111156114bc57600a7f00000000000000000000000000000000000000000000000000000000000000006114b9919061305e565b90505b90565b60008060008373ffffffffffffffffffffffffffffffffffffffff1673ffffffffffffffffffffffffffffffffffffffff168152602001908152602001600020549050919050565b61150f61265a565b61151960006126d8565b565b606481565b6000600560009054906101000a900473ffffffffffffffffffffffffffffffffffffffff16905090565b61155261265a565b61155a612127565b80600760006101000a81548160ff0219169083600481111561157f5761157e6129f3565b5b021790555061158c612437565b50565b60606004805461159e90612c5d565b80601f01602080910402602001604051908101604052809291908181526020018280546115ca90612c5d565b80156116175780601f106115ec57610100808354040283529160200191611617565b820191906000526020600020905b8154815290600101906020018083116115fa57829003601f168201915b5050505050905090565b611629612127565b61163161265a565b60007f000000000000000000000000000000000000000000000000000000000000000073ffffffffffffffffffffffffffffffffffffffff1662fdd58e33600a6040518363ffffffff1660e01b815260040161168e929190612cc9565b602060405180830381865afa1580156116ab573d6000803e3d6000fd5b505050506040513d601f19601f820116820180604052508101906116cf9190612d07565b1161170f576040517f08c379a000000000000000000000000000000000000000000000000000000000815260040161170690612d80565b60405180910390fd5b60026004811115611723576117226129f3565b5b600760009054906101000a900460ff166004811115611745576117446129f3565b5b14611785576040517f08c379a000000000000000000000000000000000000000000000000000000000815260040161177c90613431565b60405180910390fd5b60006004811115611799576117986129f3565b5b600760009054906101000a900460ff1660048111156117bb576117ba6129f3565b5b036117fb576040517f08c379a00000000000000000000000000000000000000000000000000000000081526004016117f2906132c4565b60405180910390fd5b816064827f000000000000000000000000000000000000000000000000000000000000000061182a9190612fb9565b611834919061305e565b7f000000000000000000000000000000000000000000000000000000000000000061185f9190612ffb565b1461189f576040517f08c379a000000000000000000000000000000000000000000000000000000000815260040161189690613509565b60405180910390fd5b60007f00000000000000000000000000000000000000000000000000000000000000009050816008819055506118d5600361154a565b600115158173ffffffffffffffffffffffffffffffffffffffff166323b872dd33308573ffffffffffffffffffffffffffffffffffffffff1663313ce5676040518163ffffffff1660e01b8152600401602060405180830381865afa158015611942573d6000803e3d6000fd5b505050506040513d601f19601f820116820180604052508101906119669190613118565b600a6119729190612f6e565b8861197d9190612fb9565b6040518463ffffffff1660e01b815260040161199b93929190613145565b6020604051808303816000875af11580156119ba573d6000803e3d6000fd5b505050506040513d601f19601f820116820180604052508101906119de91906131a8565b151514611a20576040517f08c379a0000000000000000000000000000000000000000000000000000000008152600401611a1790613221565b60405180910390fd5b7fca22f0fd5416c937d088945895d15d2d24397ba8ce6fc40888cb98565e2412e2838342604051611a5393929190613529565b60405180910390a150611a64612437565b5050565b7f000000000000000000000000000000000000000000000000000000000000000081565b600080611a97611c54565b90506000611aa58286611b4a565b905083811015611aea576040517f08c379a0000000000000000000000000000000000000000000000000000000008152600401611ae1906135d2565b60405180910390fd5b611af78286868403611c5c565b60019250505092915050565b600080611b0e611c54565b9050611b1b818585611eb1565b600191505092915050565b7f000000000000000000000000000000000000000000000000000000000000000081565b6000600160008473ffffffffffffffffffffffffffffffffffffffff1673ffffffffffffffffffffffffffffffffffffffff16815260200190815260200160002060008373ffffffffffffffffffffffffffffffffffffffff1673ffffffffffffffffffffffffffffffffffffffff16815260200190815260200160002054905092915050565b611bd961265a565b600073ffffffffffffffffffffffffffffffffffffffff168173ffffffffffffffffffffffffffffffffffffffff1603611c48576040517f08c379a0000000000000000000000000000000000000000000000000000000008152600401611c3f90613664565b60405180910390fd5b611c51816126d8565b50565b600033905090565b600073ffffffffffffffffffffffffffffffffffffffff168373ffffffffffffffffffffffffffffffffffffffff1603611ccb576040517f08c379a0000000000000000000000000000000000000000000000000000000008152600401611cc2906136f6565b60405180910390fd5b600073ffffffffffffffffffffffffffffffffffffffff168273ffffffffffffffffffffffffffffffffffffffff1603611d3a576040517f08c379a0000000000000000000000000000000000000000000000000000000008152600401611d3190613788565b60405180910390fd5b80600160008573ffffffffffffffffffffffffffffffffffffffff1673ffffffffffffffffffffffffffffffffffffffff16815260200190815260200160002060008473ffffffffffffffffffffffffffffffffffffffff1673ffffffffffffffffffffffffffffffffffffffff168152602001908152602001600020819055508173ffffffffffffffffffffffffffffffffffffffff168373ffffffffffffffffffffffffffffffffffffffff167f8c5be1e5ebec7d5bd14f71427d1e84f3dd0314c0f7b2291e5b200ac8c7c3b92583604051611e1891906129d8565b60405180910390a3505050565b6000611e318484611b4a565b90507fffffffffffffffffffffffffffffffffffffffffffffffffffffffffffffffff8114611eab5781811015611e9d576040517f08c379a0000000000000000000000000000000000000000000000000000000008152600401611e94906137f4565b60405180910390fd5b611eaa8484848403611c5c565b5b50505050565b600073ffffffffffffffffffffffffffffffffffffffff168373ffffffffffffffffffffffffffffffffffffffff1603611f20576040517f08c379a0000000000000000000000000000000000000000000000000000000008152600401611f1790613886565b60405180910390fd5b600073ffffffffffffffffffffffffffffffffffffffff168273ffffffffffffffffffffffffffffffffffffffff1603611f8f576040517f08c379a0000000000000000000000000000000000000000000000000000000008152600401611f8690613918565b60405180910390fd5b611f9a83838361279e565b60008060008573ffffffffffffffffffffffffffffffffffffffff1673ffffffffffffffffffffffffffffffffffffffff16815260200190815260200160002054905081811015612020576040517f08c379a0000000000000000000000000000000000000000000000000000000008152600401612017906139aa565b60405180910390fd5b8181036000808673ffffffffffffffffffffffffffffffffffffffff1673ffffffffffffffffffffffffffffffffffffffff16815260200190815260200160002081905550816000808573ffffffffffffffffffffffffffffffffffffffff1673ffffffffffffffffffffffffffffffffffffffff168152602001908152602001600020600082825401925050819055508273ffffffffffffffffffffffffffffffffffffffff168473ffffffffffffffffffffffffffffffffffffffff167fddf252ad1be2c89b69c2b068fc378daa952ba7f163c4a11628f55a4df523b3ef8460405161210e91906129d8565b60405180910390a36121218484846127a3565b50505050565b60026006540361216c576040517f08c379a000000000000000000000000000000000000000000000000000000000815260040161216390613a16565b60405180910390fd5b6002600681905550565b61220e828260405160240161218c929190613a36565b6040516020818303038152906040527fb60e72cc000000000000000000000000000000000000000000000000000000007bffffffffffffffffffffffffffffffffffffffffffffffffffffffff19166020820180517bffffffffffffffffffffffffffffffffffffffffffffffffffffffff83818316178352505050506127a8565b5050565b6122ae8484848460405160240161222c9493929190613a66565b6040516020818303038152906040527fc67ea9d1000000000000000000000000000000000000000000000000000000007bffffffffffffffffffffffffffffffffffffffffffffffffffffffff19166020820180517bffffffffffffffffffffffffffffffffffffffffffffffffffffffff83818316178352505050506127a8565b50505050565b80600760006101000a81548160ff021916908360048111156122d9576122d86129f3565b5b021790555050565b600073ffffffffffffffffffffffffffffffffffffffff168273ffffffffffffffffffffffffffffffffffffffff1603612350576040517f08c379a000000000000000000000000000000000000000000000000000000000815260040161234790613b05565b60405180910390fd5b61235c6000838361279e565b806002600082825461236e9190612ffb565b92505081905550806000808473ffffffffffffffffffffffffffffffffffffffff1673ffffffffffffffffffffffffffffffffffffffff168152602001908152602001600020600082825401925050819055508173ffffffffffffffffffffffffffffffffffffffff16600073ffffffffffffffffffffffffffffffffffffffff167fddf252ad1be2c89b69c2b068fc378daa952ba7f163c4a11628f55a4df523b3ef8360405161241f91906129d8565b60405180910390a3612433600083836127a3565b5050565b6001600681905550565b600061244b610b3c565b600a6124579190612f6e565b6064600854846124679190612fb9565b612471919061305e565b8361247c9190612ffb565b6124869190612fb9565b9050919050565b600073ffffffffffffffffffffffffffffffffffffffff168273ffffffffffffffffffffffffffffffffffffffff16036124fc576040517f08c379a00000000000000000000000000000000000000000000000000000000081526004016124f390613b97565b60405180910390fd5b6125088260008361279e565b60008060008473ffffffffffffffffffffffffffffffffffffffff1673ffffffffffffffffffffffffffffffffffffffff1681526020019081526020016000205490508181101561258e576040517f08c379a000000000000000000000000000000000000000000000000000000000815260040161258590613c29565b60405180910390fd5b8181036000808573ffffffffffffffffffffffffffffffffffffffff1673ffffffffffffffffffffffffffffffffffffffff1681526020019081526020016000208190555081600260008282540392505081905550600073ffffffffffffffffffffffffffffffffffffffff168373ffffffffffffffffffffffffffffffffffffffff167fddf252ad1be2c89b69c2b068fc378daa952ba7f163c4a11628f55a4df523b3ef8460405161264191906129d8565b60405180910390a3612655836000846127a3565b505050565b612662611c54565b73ffffffffffffffffffffffffffffffffffffffff16612680611520565b73ffffffffffffffffffffffffffffffffffffffff16146126d6576040517f08c379a00000000000000000000000000000000000000000000000000000000081526004016126cd90613c95565b60405180910390fd5b565b6000600560009054906101000a900473ffffffffffffffffffffffffffffffffffffffff16905081600560006101000a81548173ffffffffffffffffffffffffffffffffffffffff021916908373ffffffffffffffffffffffffffffffffffffffff1602179055508173ffffffffffffffffffffffffffffffffffffffff168173ffffffffffffffffffffffffffffffffffffffff167f8be0079c531659141344cd1fd0a4f28419497f9722a3daafe3b4186f6b6457e060405160405180910390a35050565b505050565b505050565b60008151905060006a636f6e736f6c652e6c6f679050602083016000808483855afa5050505050565b600081519050919050565b600082825260208201905092915050565b60005b8381101561280b5780820151818401526020810190506127f0565b60008484015250505050565b6000601f19601f8301169050919050565b6000612833826127d1565b61283d81856127dc565b935061284d8185602086016127ed565b61285681612817565b840191505092915050565b6000602082019050818103600083015261287b8184612828565b905092915050565b600060ff82169050919050565b61289981612883565b82525050565b60006020820190506128b46000830184612890565b92915050565b600080fd5b600073ffffffffffffffffffffffffffffffffffffffff82169050919050565b60006128ea826128bf565b9050919050565b6128fa816128df565b811461290557600080fd5b50565b600081359050612917816128f1565b92915050565b6000819050919050565b6129308161291d565b811461293b57600080fd5b50565b60008135905061294d81612927565b92915050565b6000806040838503121561296a576129696128ba565b5b600061297885828601612908565b92505060206129898582860161293e565b9150509250929050565b60008115159050919050565b6129a881612993565b82525050565b60006020820190506129c3600083018461299f565b92915050565b6129d28161291d565b82525050565b60006020820190506129ed60008301846129c9565b92915050565b7f4e487b7100000000000000000000000000000000000000000000000000000000600052602160045260246000fd5b60058110612a3357612a326129f3565b5b50565b6000819050612a4482612a22565b919050565b6000612a5482612a36565b9050919050565b612a6481612a49565b82525050565b6000602082019050612a7f6000830184612a5b565b92915050565b600080600060608486031215612a9e57612a9d6128ba565b5b6000612aac86828701612908565b9350506020612abd86828701612908565b9250506040612ace8682870161293e565b9150509250925092565b600060208284031215612aee57612aed6128ba565b5b6000612afc8482850161293e565b91505092915050565b600060208284031215612b1b57612b1a6128ba565b5b6000612b2984828501612908565b91505092915050565b612b3b816128df565b82525050565b6000602082019050612b566000830184612b32565b92915050565b60058110612b6957600080fd5b50565b600081359050612b7b81612b5c565b92915050565b600060208284031215612b9757612b966128ba565b5b6000612ba584828501612b6c565b91505092915050565b60008060408385031215612bc557612bc46128ba565b5b6000612bd38582860161293e565b9250506020612be48582860161293e565b9150509250929050565b60008060408385031215612c0557612c046128ba565b5b6000612c1385828601612908565b9250506020612c2485828601612908565b9150509250929050565b7f4e487b7100000000000000000000000000000000000000000000000000000000600052602260045260246000fd5b60006002820490506001821680612c7557607f821691505b602082108103612c8857612c87612c2e565b5b50919050565b6000819050919050565b6000612cb3612cae612ca984612883565b612c8e565b61291d565b9050919050565b612cc381612c98565b82525050565b6000604082019050612cde6000830185612b32565b612ceb6020830184612cba565b9392505050565b600081519050612d0181612927565b92915050565b600060208284031215612d1d57612d1c6128ba565b5b6000612d2b84828501612cf2565b91505092915050565b7f5573657220646f6573206e6f7420686176652074686520456e747279204e4654600082015250565b6000612d6a6020836127dc565b9150612d7582612d34565b602082019050919050565b60006020820190508181036000830152612d9981612d5d565b9050919050565b7f4e6f7420656e6f75676820616d6f756e7420746f20696e766573740000000000600082015250565b6000612dd6601b836127dc565b9150612de182612da0565b602082019050919050565b60006020820190508181036000830152612e0581612dc9565b9050919050565b7f4e487b7100000000000000000000000000000000000000000000000000000000600052601160045260246000fd5b60008160011c9050919050565b6000808291508390505b6001851115612e9257808604811115612e6e57612e6d612e0c565b5b6001851615612e7d5780820291505b8081029050612e8b85612e3b565b9450612e52565b94509492505050565b600082612eab5760019050612f67565b81612eb95760009050612f67565b8160018114612ecf5760028114612ed957612f08565b6001915050612f67565b60ff841115612eeb57612eea612e0c565b5b8360020a915084821115612f0257612f01612e0c565b5b50612f67565b5060208310610133831016604e8410600b8410161715612f3d5782820a905083811115612f3857612f37612e0c565b5b612f67565b612f4a8484846001612e48565b92509050818404811115612f6157612f60612e0c565b5b81810290505b9392505050565b6000612f798261291d565b9150612f8483612883565b9250612fb17fffffffffffffffffffffffffffffffffffffffffffffffffffffffffffffffff8484612e9b565b905092915050565b6000612fc48261291d565b9150612fcf8361291d565b9250828202612fdd8161291d565b91508282048414831517612ff457612ff3612e0c565b5b5092915050565b60006130068261291d565b91506130118361291d565b925082820190508082111561302957613028612e0c565b5b92915050565b7f4e487b7100000000000000000000000000000000000000000000000000000000600052601260045260246000fd5b60006130698261291d565b91506130748361291d565b9250826130845761308361302f565b5b828204905092915050565b60006040820190506130a460008301856129c9565b6130b160208301846129c9565b9392505050565b60006130c38261291d565b91506130ce8361291d565b92508282039050818111156130e6576130e5612e0c565b5b92915050565b6130f581612883565b811461310057600080fd5b50565b600081519050613112816130ec565b92915050565b60006020828403121561312e5761312d6128ba565b5b600061313c84828501613103565b91505092915050565b600060608201905061315a6000830186612b32565b6131676020830185612b32565b61317460408301846129c9565b949350505050565b61318581612993565b811461319057600080fd5b50565b6000815190506131a28161317c565b92915050565b6000602082840312156131be576131bd6128ba565b5b60006131cc84828501613193565b91505092915050565b7f50757a7a6c653a204572726f7220696e20746f6b656e207472616e7366657200600082015250565b600061320b601f836127dc565b9150613216826131d5565b602082019050919050565b6000602082019050818103600083015261323a816131fe565b9050919050565b60006060820190506132566000830186612b32565b61326360208301856129c9565b61327060408301846129c9565b949350505050565b7f436f6e7472616374207061757365640000000000000000000000000000000000600082015250565b60006132ae600f836127dc565b91506132b982613278565b602082019050919050565b600060208201905081810360008301526132dd816132a1565b9050919050565b7f4e6f74206f6e205769746864726177206f7220526566756e64696e6700000000600082015250565b600061331a601c836127dc565b9150613325826132e4565b602082019050919050565b600060208201905081810360008301526133498161330d565b9050919050565b7f4e6f7420656e6f7567682062616c616e63650000000000000000000000000000600082015250565b60006133866012836127dc565b915061339182613350565b602082019050919050565b600060208201905081810360008301526133b581613379565b9050919050565b60006040820190506133d16000830185612b32565b6133de60208301846129c9565b9392505050565b7f4e6f74206f6e2070726f63657373000000000000000000000000000000000000600082015250565b600061341b600e836127dc565b9150613426826133e5565b602082019050919050565b6000602082019050818103600083015261344a8161340e565b9050919050565b7f546f74616c206e6f742072656163686564000000000000000000000000000000600082015250565b60006134876011836127dc565b915061349282613451565b602082019050919050565b600060208201905081810360008301526134b68161347a565b9050919050565b7f4e6f7420636f72726563742076616c7565000000000000000000000000000000600082015250565b60006134f36011836127dc565b91506134fe826134bd565b602082019050919050565b60006020820190508181036000830152613522816134e6565b9050919050565b600060608201905061353e60008301866129c9565b61354b60208301856129c9565b61355860408301846129c9565b949350505050565b7f45524332303a2064656372656173656420616c6c6f77616e63652062656c6f7760008201527f207a65726f000000000000000000000000000000000000000000000000000000602082015250565b60006135bc6025836127dc565b91506135c782613560565b604082019050919050565b600060208201905081810360008301526135eb816135af565b9050919050565b7f4f776e61626c653a206e6577206f776e657220697320746865207a65726f206160008201527f6464726573730000000000000000000000000000000000000000000000000000602082015250565b600061364e6026836127dc565b9150613659826135f2565b604082019050919050565b6000602082019050818103600083015261367d81613641565b9050919050565b7f45524332303a20617070726f76652066726f6d20746865207a65726f2061646460008201527f7265737300000000000000000000000000000000000000000000000000000000602082015250565b60006136e06024836127dc565b91506136eb82613684565b604082019050919050565b6000602082019050818103600083015261370f816136d3565b9050919050565b7f45524332303a20617070726f766520746f20746865207a65726f20616464726560008201527f7373000000000000000000000000000000000000000000000000000000000000602082015250565b60006137726022836127dc565b915061377d82613716565b604082019050919050565b600060208201905081810360008301526137a181613765565b9050919050565b7f45524332303a20696e73756666696369656e7420616c6c6f77616e6365000000600082015250565b60006137de601d836127dc565b91506137e9826137a8565b602082019050919050565b6000602082019050818103600083015261380d816137d1565b9050919050565b7f45524332303a207472616e736665722066726f6d20746865207a65726f20616460008201527f6472657373000000000000000000000000000000000000000000000000000000602082015250565b60006138706025836127dc565b915061387b82613814565b604082019050919050565b6000602082019050818103600083015261389f81613863565b9050919050565b7f45524332303a207472616e7366657220746f20746865207a65726f206164647260008201527f6573730000000000000000000000000000000000000000000000000000000000602082015250565b60006139026023836127dc565b915061390d826138a6565b604082019050919050565b60006020820190508181036000830152613931816138f5565b9050919050565b7f45524332303a207472616e7366657220616d6f756e742065786365656473206260008201527f616c616e63650000000000000000000000000000000000000000000000000000602082015250565b60006139946026836127dc565b915061399f82613938565b604082019050919050565b600060208201905081810360008301526139c381613987565b9050919050565b7f5265656e7472616e637947756172643a207265656e7472616e742063616c6c00600082015250565b6000613a00601f836127dc565b9150613a0b826139ca565b602082019050919050565b60006020820190508181036000830152613a2f816139f3565b9050919050565b60006040820190508181036000830152613a508185612828565b9050613a5f60208301846129c9565b9392505050565b60006080820190508181036000830152613a808187612828565b9050613a8f60208301866129c9565b8181036040830152613aa18185612828565b9050613ab060608301846129c9565b95945050505050565b7f45524332303a206d696e7420746f20746865207a65726f206164647265737300600082015250565b6000613aef601f836127dc565b9150613afa82613ab9565b602082019050919050565b60006020820190508181036000830152613b1e81613ae2565b9050919050565b7f45524332303a206275726e2066726f6d20746865207a65726f2061646472657360008201527f7300000000000000000000000000000000000000000000000000000000000000602082015250565b6000613b816021836127dc565b9150613b8c82613b25565b604082019050919050565b60006020820190508181036000830152613bb081613b74565b9050919050565b7f45524332303a206275726e20616d6f756e7420657863656564732062616c616e60008201527f6365000000000000000000000000000000000000000000000000000000000000602082015250565b6000613c136022836127dc565b9150613c1e82613bb7565b604082019050919050565b60006020820190508181036000830152613c4281613c06565b9050919050565b7f4f776e61626c653a2063616c6c6572206973206e6f7420746865206f776e6572600082015250565b6000613c7f6020836127dc565b9150613c8a82613c49565b602082019050919050565b60006020820190508181036000830152613cae81613c72565b905091905056fea2646970667358221220196bec96a5f53a0897479a159b228582de1e1e9727fce9b6c53a626685db9f8e64736f6c63430008110033a26469706673582212207a4fc1191c18df16dddd1f97a03a6f552daa2fcfb17248c99d958358b8a713cb64736f6c63430008110033",
  "linkReferences": {},
  "deployedLinkReferences": {}
}