{
  "_format": "hh-sol-artifact-1",
  "contractName": "Factory",
  "sourceName": "contracts/Factory.sol",
  "abi": [
    {
      "inputs": [],
      "stateMutability": "nonpayable",
      "type": "constructor"
    },
    {
      "anonymous": false,
      "inputs": [
        {
          "indexed": false,
          "internalType": "uint256",
          "name": "ContractID",
          "type": "uint256"
        },
        {
          "indexed": false,
          "internalType": "address",
          "name": "conAddress",
          "type": "address"
        }
      ],
      "name": "ContractCreated",
      "type": "event"
    },
    {
      "anonymous": false,
      "inputs": [
        {
          "indexed": true,
          "internalType": "address",
          "name": "previousOwner",
          "type": "address"
        },
        {
          "indexed": true,
          "internalType": "address",
          "name": "newOwner",
          "type": "address"
        }
      ],
      "name": "OwnershipTransferred",
      "type": "event"
    },
    {
      "inputs": [],
      "name": "counter",
      "outputs": [
        {
          "internalType": "uint256",
          "name": "",
          "type": "uint256"
        }
      ],
      "stateMutability": "view",
      "type": "function"
    },
    {
      "inputs": [
        {
          "internalType": "uint256",
          "name": "_totalInvestment",
          "type": "uint256"
        },
        {
          "internalType": "address",
          "name": "_paymentTokenAddress",
          "type": "address"
        }
      ],
      "name": "deployNew",
      "outputs": [
        {
          "internalType": "address",
          "name": "",
          "type": "address"
        }
      ],
      "stateMutability": "nonpayable",
      "type": "function"
    },
    {
      "inputs": [
        {
          "internalType": "uint256",
          "name": "",
          "type": "uint256"
        }
      ],
      "name": "deployedContracts",
      "outputs": [
        {
          "internalType": "contract Investment",
          "name": "",
          "type": "address"
        }
      ],
      "stateMutability": "view",
      "type": "function"
    },
    {
      "inputs": [
        {
          "internalType": "address",
          "name": "contractAddress",
          "type": "address"
        }
      ],
      "name": "getAddressOnContract",
      "outputs": [
        {
          "internalType": "uint256",
          "name": "userTotal",
          "type": "uint256"
        }
      ],
      "stateMutability": "view",
      "type": "function"
    },
    {
      "inputs": [
        {
          "internalType": "address",
          "name": "user",
          "type": "address"
        }
      ],
      "name": "getAddressTotal",
      "outputs": [
        {
          "internalType": "uint256",
          "name": "userTotal",
          "type": "uint256"
        }
      ],
      "stateMutability": "view",
      "type": "function"
    },
    {
      "inputs": [],
      "name": "getLastDeployedContract",
      "outputs": [
        {
          "internalType": "address",
          "name": "contractAddress",
          "type": "address"
        }
      ],
      "stateMutability": "view",
      "type": "function"
    },
    {
      "inputs": [],
      "name": "owner",
      "outputs": [
        {
          "internalType": "address",
          "name": "",
          "type": "address"
        }
      ],
      "stateMutability": "view",
      "type": "function"
    },
    {
      "inputs": [],
      "name": "renounceOwnership",
      "outputs": [],
      "stateMutability": "nonpayable",
      "type": "function"
    },
    {
      "inputs": [
        {
          "internalType": "address",
          "name": "_lgentry",
          "type": "address"
        }
      ],
      "name": "setEntryAddress",
      "outputs": [],
      "stateMutability": "nonpayable",
      "type": "function"
    },
    {
      "inputs": [
        {
          "internalType": "address",
          "name": "newOwner",
          "type": "address"
        }
      ],
      "name": "transferOwnership",
      "outputs": [],
      "stateMutability": "nonpayable",
      "type": "function"
    }
  ],
  "bytecode": "0x608060405234801561001057600080fd5b5061002d61002261003260201b60201c565b61003a60201b60201c565b6100fe565b600033905090565b60008060009054906101000a900473ffffffffffffffffffffffffffffffffffffffff169050816000806101000a81548173ffffffffffffffffffffffffffffffffffffffff021916908373ffffffffffffffffffffffffffffffffffffffff1602179055508173ffffffffffffffffffffffffffffffffffffffff168173ffffffffffffffffffffffffffffffffffffffff167f8be0079c531659141344cd1fd0a4f28419497f9722a3daafe3b4186f6b6457e060405160405180910390a35050565b6159e18061010d6000396000f3fe60806040523480156200001157600080fd5b5060043610620000ac5760003560e01c80639ad1ee10116200006f5780639ad1ee101462000157578063a8d114ba146200018d578063ec8e0ac114620001c3578063ee58f8f714620001e5578063f2fde38b146200021b57620000ac565b806311655dbd14620000b1578063279bc3aa14620000e757806361bc221a1462000107578063715018a614620001295780638da5cb5b1462000135575b600080fd5b620000cf6004803603810190620000c9919062000a79565b6200023b565b604051620000de919062000ac6565b60405180910390f35b620001056004803603810190620000ff919062000a79565b6200033c565b005b62000111620003fc565b60405162000120919062000ac6565b60405180910390f35b6200013362000402565b005b6200013f6200041a565b6040516200014e919062000af4565b60405180910390f35b6200017560048036038101906200016f919062000b42565b62000443565b60405162000184919062000bdf565b60405180910390f35b620001ab6004803603810190620001a5919062000a79565b62000483565b604051620001ba919062000ac6565b60405180910390f35b620001cd6200050b565b604051620001dc919062000af4565b60405180910390f35b620002036004803603810190620001fd919062000bfc565b6200057e565b60405162000212919062000af4565b60405180910390f35b62000239600480360381019062000233919062000a79565b62000826565b005b600080600090505b60018054905081101562000336576001818154811062000268576200026762000c43565b5b9060005260206000200160009054906101000a900473ffffffffffffffffffffffffffffffffffffffff1673ffffffffffffffffffffffffffffffffffffffff166370a08231846040518263ffffffff1660e01b8152600401620002cd919062000af4565b602060405180830381865afa158015620002eb573d6000803e3d6000fd5b505050506040513d601f19601f8201168201806040525081019062000311919062000c89565b826200031e919062000cea565b915080806200032d9062000d25565b91505062000243565b50919050565b62000346620008b0565b600073ffffffffffffffffffffffffffffffffffffffff168173ffffffffffffffffffffffffffffffffffffffff1603620003b8576040517f08c379a0000000000000000000000000000000000000000000000000000000008152600401620003af9062000df9565b60405180910390fd5b80600260006101000a81548173ffffffffffffffffffffffffffffffffffffffff021916908373ffffffffffffffffffffffffffffffffffffffff16021790555050565b60035481565b6200040c620008b0565b62000418600062000935565b565b60008060009054906101000a900473ffffffffffffffffffffffffffffffffffffffff16905090565b600181815481106200045457600080fd5b906000526020600020016000915054906101000a900473ffffffffffffffffffffffffffffffffffffffff1681565b60008173ffffffffffffffffffffffffffffffffffffffff166370a08231336040518263ffffffff1660e01b8152600401620004c0919062000af4565b602060405180830381865afa158015620004de573d6000803e3d6000fd5b505050506040513d601f19601f8201168201806040525081019062000504919062000c89565b9050919050565b6000806001805490501115620005765760018080805490506200052f919062000e1b565b8154811062000543576200054262000c43565b5b9060005260206000200160009054906101000a900473ffffffffffffffffffffffffffffffffffffffff1690506200057b565b600090505b90565b60006200058a620008b0565b600073ffffffffffffffffffffffffffffffffffffffff16600260009054906101000a900473ffffffffffffffffffffffffffffffffffffffff1673ffffffffffffffffffffffffffffffffffffffff16036200061e576040517f08c379a0000000000000000000000000000000000000000000000000000000008152600401620006159062000ecc565b60405180910390fd5b600073ffffffffffffffffffffffffffffffffffffffff168273ffffffffffffffffffffffffffffffffffffffff160362000690576040517f08c379a0000000000000000000000000000000000000000000000000000000008152600401620006879062000f64565b60405180910390fd5b60036000815480929190620006a59062000d25565b9190505550600083600260009054906101000a900473ffffffffffffffffffffffffffffffffffffffff1684604051620006df9062000a01565b620006ed9392919062000f86565b604051809103906000f0801580156200070a573d6000803e3d6000fd5b5090506001819080600181540180825580915050600190039060005260206000200160009091909190916101000a81548173ffffffffffffffffffffffffffffffffffffffff021916908373ffffffffffffffffffffffffffffffffffffffff1602179055508073ffffffffffffffffffffffffffffffffffffffff1663f2fde38b336040518263ffffffff1660e01b8152600401620007ab919062000af4565b600060405180830381600087803b158015620007c657600080fd5b505af1158015620007db573d6000803e3d6000fd5b505050507f9c275c9d7bdddb2ca162a8f5e9d3bbbf2922accedfd8372561a6211fc4e38146600354826040516200081492919062000fc3565b60405180910390a18091505092915050565b62000830620008b0565b600073ffffffffffffffffffffffffffffffffffffffff168173ffffffffffffffffffffffffffffffffffffffff1603620008a2576040517f08c379a0000000000000000000000000000000000000000000000000000000008152600401620008999062001066565b60405180910390fd5b620008ad8162000935565b50565b620008ba620009f9565b73ffffffffffffffffffffffffffffffffffffffff16620008da6200041a565b73ffffffffffffffffffffffffffffffffffffffff161462000933576040517f08c379a00000000000000000000000000000000000000000000000000000000081526004016200092a90620010d8565b60405180910390fd5b565b60008060009054906101000a900473ffffffffffffffffffffffffffffffffffffffff169050816000806101000a81548173ffffffffffffffffffffffffffffffffffffffff021916908373ffffffffffffffffffffffffffffffffffffffff1602179055508173ffffffffffffffffffffffffffffffffffffffff168173ffffffffffffffffffffffffffffffffffffffff167f8be0079c531659141344cd1fd0a4f28419497f9722a3daafe3b4186f6b6457e060405160405180910390a35050565b600033905090565b6148b180620010fb83390190565b600080fd5b600073ffffffffffffffffffffffffffffffffffffffff82169050919050565b600062000a418262000a14565b9050919050565b62000a538162000a34565b811462000a5f57600080fd5b50565b60008135905062000a738162000a48565b92915050565b60006020828403121562000a925762000a9162000a0f565b5b600062000aa28482850162000a62565b91505092915050565b6000819050919050565b62000ac08162000aab565b82525050565b600060208201905062000add600083018462000ab5565b92915050565b62000aee8162000a34565b82525050565b600060208201905062000b0b600083018462000ae3565b92915050565b62000b1c8162000aab565b811462000b2857600080fd5b50565b60008135905062000b3c8162000b11565b92915050565b60006020828403121562000b5b5762000b5a62000a0f565b5b600062000b6b8482850162000b2b565b91505092915050565b6000819050919050565b600062000b9f62000b9962000b938462000a14565b62000b74565b62000a14565b9050919050565b600062000bb38262000b7e565b9050919050565b600062000bc78262000ba6565b9050919050565b62000bd98162000bba565b82525050565b600060208201905062000bf6600083018462000bce565b92915050565b6000806040838503121562000c165762000c1562000a0f565b5b600062000c268582860162000b2b565b925050602062000c398582860162000a62565b9150509250929050565b7f4e487b7100000000000000000000000000000000000000000000000000000000600052603260045260246000fd5b60008151905062000c838162000b11565b92915050565b60006020828403121562000ca25762000ca162000a0f565b5b600062000cb28482850162000c72565b91505092915050565b7f4e487b7100000000000000000000000000000000000000000000000000000000600052601160045260246000fd5b600062000cf78262000aab565b915062000d048362000aab565b925082820190508082111562000d1f5762000d1e62000cbb565b5b92915050565b600062000d328262000aab565b91507fffffffffffffffffffffffffffffffffffffffffffffffffffffffffffffffff820362000d675762000d6662000cbb565b5b600182019050919050565b600082825260208201905092915050565b7f466163746f72793a2050726f766964652061207265616c20616464726573732060008201527f696e2074686520706172616d65746572732e0000000000000000000000000000602082015250565b600062000de160328362000d72565b915062000dee8262000d83565b604082019050919050565b6000602082019050818103600083015262000e148162000dd2565b9050919050565b600062000e288262000aab565b915062000e358362000aab565b925082820390508181111562000e505762000e4f62000cbb565b5b92915050565b7f466163746f72793a2046697273742070726f766964652074686520656e74727960008201527f20636f6e74726163742061646472657373000000000000000000000000000000602082015250565b600062000eb460318362000d72565b915062000ec18262000e56565b604082019050919050565b6000602082019050818103600083015262000ee78162000ea5565b9050919050565b7f466163746f72793a2050726f766964652061207265616c207061796d656e745460008201527f6f6b656e41646472657373000000000000000000000000000000000000000000602082015250565b600062000f4c602b8362000d72565b915062000f598262000eee565b604082019050919050565b6000602082019050818103600083015262000f7f8162000f3d565b9050919050565b600060608201905062000f9d600083018662000ab5565b62000fac602083018562000ae3565b62000fbb604083018462000ae3565b949350505050565b600060408201905062000fda600083018562000ab5565b62000fe9602083018462000ae3565b9392505050565b7f4f776e61626c653a206e6577206f776e657220697320746865207a65726f206160008201527f6464726573730000000000000000000000000000000000000000000000000000602082015250565b60006200104e60268362000d72565b91506200105b8262000ff0565b604082019050919050565b6000602082019050818103600083015262001081816200103f565b9050919050565b7f4f776e61626c653a2063616c6c6572206973206e6f7420746865206f776e6572600082015250565b6000620010c060208362000d72565b9150620010cd8262001088565b602082019050919050565b60006020820190508181036000830152620010f381620010b1565b905091905056fe60e06040523480156200001157600080fd5b50604051620048b1380380620048b1833981810160405281019062000037919062000546565b6040518060400160405280601281526020017f496e766573746d656e7443757272656e637900000000000000000000000000008152506040518060400160405280600281526020017f49430000000000000000000000000000000000000000000000000000000000008152508160039081620000b4919062000812565b508060049081620000c6919062000812565b505050620000e9620000dd6200025360201b60201c565b6200025b60201b60201c565b6001600681905550600073ffffffffffffffffffffffffffffffffffffffff168273ffffffffffffffffffffffffffffffffffffffff16141580156200015c5750600073ffffffffffffffffffffffffffffffffffffffff168173ffffffffffffffffffffffffffffffffffffffff1614155b6200019e576040517f08c379a0000000000000000000000000000000000000000000000000000000008152600401620001959062000980565b60405180910390fd5b620001ae6200032160201b60201c565b600a620001bc919062000b32565b83620001c9919062000b83565b608081815250508173ffffffffffffffffffffffffffffffffffffffff1660c08173ffffffffffffffffffffffffffffffffffffffff16815250508073ffffffffffffffffffffffffffffffffffffffff1660a08173ffffffffffffffffffffffffffffffffffffffff16815250506200024a60016200032a60201b60201c565b50505062000ce1565b600033905090565b6000600560009054906101000a900473ffffffffffffffffffffffffffffffffffffffff16905081600560006101000a81548173ffffffffffffffffffffffffffffffffffffffff021916908373ffffffffffffffffffffffffffffffffffffffff1602179055508173ffffffffffffffffffffffffffffffffffffffff168173ffffffffffffffffffffffffffffffffffffffff167f8be0079c531659141344cd1fd0a4f28419497f9722a3daafe3b4186f6b6457e060405160405180910390a35050565b60006006905090565b6200033a6200038a60201b60201c565b6200034a6200041b60201b60201c565b80600760006101000a81548160ff0219169083600481111562000372576200037162000bce565b5b0217905550620003876200046d60201b60201c565b50565b6200039a6200025360201b60201c565b73ffffffffffffffffffffffffffffffffffffffff16620003c06200047760201b60201c565b73ffffffffffffffffffffffffffffffffffffffff161462000419576040517f08c379a0000000000000000000000000000000000000000000000000000000008152600401620004109062000c4d565b60405180910390fd5b565b60026006540362000463576040517f08c379a00000000000000000000000000000000000000000000000000000000081526004016200045a9062000cbf565b60405180910390fd5b6002600681905550565b6001600681905550565b6000600560009054906101000a900473ffffffffffffffffffffffffffffffffffffffff16905090565b600080fd5b6000819050919050565b620004bb81620004a6565b8114620004c757600080fd5b50565b600081519050620004db81620004b0565b92915050565b600073ffffffffffffffffffffffffffffffffffffffff82169050919050565b60006200050e82620004e1565b9050919050565b620005208162000501565b81146200052c57600080fd5b50565b600081519050620005408162000515565b92915050565b600080600060608486031215620005625762000561620004a1565b5b60006200057286828701620004ca565b935050602062000585868287016200052f565b925050604062000598868287016200052f565b9150509250925092565b600081519050919050565b7f4e487b7100000000000000000000000000000000000000000000000000000000600052604160045260246000fd5b7f4e487b7100000000000000000000000000000000000000000000000000000000600052602260045260246000fd5b600060028204905060018216806200062457607f821691505b6020821081036200063a5762000639620005dc565b5b50919050565b60008190508160005260206000209050919050565b60006020601f8301049050919050565b600082821b905092915050565b600060088302620006a47fffffffffffffffffffffffffffffffffffffffffffffffffffffffffffffffff8262000665565b620006b0868362000665565b95508019841693508086168417925050509392505050565b6000819050919050565b6000620006f3620006ed620006e784620004a6565b620006c8565b620004a6565b9050919050565b6000819050919050565b6200070f83620006d2565b620007276200071e82620006fa565b84845462000672565b825550505050565b600090565b6200073e6200072f565b6200074b81848462000704565b505050565b5b8181101562000773576200076760008262000734565b60018101905062000751565b5050565b601f821115620007c2576200078c8162000640565b620007978462000655565b81016020851015620007a7578190505b620007bf620007b68562000655565b83018262000750565b50505b505050565b600082821c905092915050565b6000620007e760001984600802620007c7565b1980831691505092915050565b6000620008028383620007d4565b9150826002028217905092915050565b6200081d82620005a2565b67ffffffffffffffff811115620008395762000838620005ad565b5b6200084582546200060b565b6200085282828562000777565b600060209050601f8311600181146200088a576000841562000875578287015190505b620008818582620007f4565b865550620008f1565b601f1984166200089a8662000640565b60005b82811015620008c4578489015182556001820191506020850194506020810190506200089d565b86831015620008e45784890151620008e0601f891682620007d4565b8355505b6001600288020188555050505b505050505050565b600082825260208201905092915050565b7f496e766573746d656e743a20436865636b2074686520706172616d657465727360008201527f20616e642072656465706c6f7900000000000000000000000000000000000000602082015250565b600062000968602d83620008f9565b915062000975826200090a565b604082019050919050565b600060208201905081810360008301526200099b8162000959565b9050919050565b7f4e487b7100000000000000000000000000000000000000000000000000000000600052601160045260246000fd5b60008160011c9050919050565b6000808291508390505b600185111562000a305780860481111562000a085762000a07620009a2565b5b600185161562000a185780820291505b808102905062000a2885620009d1565b9450620009e8565b94509492505050565b60008262000a4b576001905062000b1e565b8162000a5b576000905062000b1e565b816001811462000a74576002811462000a7f5762000ab5565b600191505062000b1e565b60ff84111562000a945762000a93620009a2565b5b8360020a91508482111562000aae5762000aad620009a2565b5b5062000b1e565b5060208310610133831016604e8410600b841016171562000aef5782820a90508381111562000ae95762000ae8620009a2565b5b62000b1e565b62000afe8484846001620009de565b9250905081840481111562000b185762000b17620009a2565b5b81810290505b9392505050565b600060ff82169050919050565b600062000b3f82620004a6565b915062000b4c8362000b25565b925062000b7b7fffffffffffffffffffffffffffffffffffffffffffffffffffffffffffffffff848462000a39565b905092915050565b600062000b9082620004a6565b915062000b9d83620004a6565b925082820262000bad81620004a6565b9150828204841483151762000bc75762000bc6620009a2565b5b5092915050565b7f4e487b7100000000000000000000000000000000000000000000000000000000600052602160045260246000fd5b7f4f776e61626c653a2063616c6c6572206973206e6f7420746865206f776e6572600082015250565b600062000c35602083620008f9565b915062000c428262000bfd565b602082019050919050565b6000602082019050818103600083015262000c688162000c26565b9050919050565b7f5265656e7472616e637947756172643a207265656e7472616e742063616c6c00600082015250565b600062000ca7601f83620008f9565b915062000cb48262000c6f565b602082019050919050565b6000602082019050818103600083015262000cda8162000c98565b9050919050565b60805160a05160c051613b3062000d816000396000818161069601528181610bdf01528181610f10015281816115910152611a4b01526000818161096801528181610dc0015281816110db0152818161175b0152611b09015260008181610607015281816108b50152818161110c0152818161118701528181611389015281816113b8015281816113ec01528181611807015261183c0152613b306000f3fe608060405234801561001057600080fd5b50600436106101c45760003560e01c80636fb20d32116100f957806398ebf85d11610097578063a9059cbb11610071578063a9059cbb146104b1578063afb18fe7146104e1578063dd62ed3e146104ff578063f2fde38b1461052f576101c4565b806398ebf85d14610447578063a2d18dbd14610463578063a457c2d714610481576101c4565b80638a4660fe116100d35780638a4660fe146103d15780638da5cb5b146103ef57806395bc95381461040d57806395d89b4114610429576101c4565b80636fb20d321461037957806370a0823114610397578063715018a6146103c7576101c4565b806323b872dd11610166578063313ce56711610140578063313ce5671461031757806339509351146103355780633ccfd60b14610365578063505ba1f51461036f576101c4565b806323b872dd146102ad578063270a2b9a146102dd5780632afcf480146102fb576101c4565b806310ea13df116101a257806310ea13df1461023557806314395fe81461025357806318160ddd14610271578063200d2ed21461028f576101c4565b806306fdde03146101c95780630909c881146101e7578063095ea7b314610205575b600080fd5b6101d161054b565b6040516101de91906126bd565b60405180910390f35b6101ef6105dd565b6040516101fc91906126fb565b60405180910390f35b61021f600480360381019061021a91906127af565b6105e2565b60405161022c919061280a565b60405180910390f35b61023d610605565b60405161024a9190612834565b60405180910390f35b61025b610629565b6040516102689190612834565b60405180910390f35b610279610638565b6040516102869190612834565b60405180910390f35b610297610642565b6040516102a491906128c6565b60405180910390f35b6102c760048036038101906102c291906128e1565b610655565b6040516102d4919061280a565b60405180910390f35b6102e5610684565b6040516102f29190612834565b60405180910390f35b61031560048036038101906103109190612934565b61068a565b005b61031f610b1d565b60405161032c91906126fb565b60405180910390f35b61034f600480360381019061034a91906127af565b610b26565b60405161035c919061280a565b60405180910390f35b61036d610b5d565b005b610377610f04565b005b61038161137d565b60405161038e9190612834565b60405180910390f35b6103b160048036038101906103ac9190612961565b61141b565b6040516103be9190612834565b60405180910390f35b6103cf611463565b005b6103d9611477565b6040516103e69190612834565b60405180910390f35b6103f761147c565b604051610404919061299d565b60405180910390f35b610427600480360381019061042291906129dd565b6114a6565b005b6104316114eb565b60405161043e91906126bd565b60405180910390f35b610461600480360381019061045c9190612a0a565b61157d565b005b61046b611a49565b604051610478919061299d565b60405180910390f35b61049b600480360381019061049691906127af565b611a6d565b6040516104a8919061280a565b60405180910390f35b6104cb60048036038101906104c691906127af565b611ae4565b6040516104d8919061280a565b60405180910390f35b6104e9611b07565b6040516104f6919061299d565b60405180910390f35b61051960048036038101906105149190612a4a565b611b2b565b6040516105269190612834565b60405180910390f35b61054960048036038101906105449190612961565b611bb2565b005b60606003805461055a90612ab9565b80601f016020809104026020016040519081016040528092919081815260200182805461058690612ab9565b80156105d35780601f106105a8576101008083540402835291602001916105d3565b820191906000526020600020905b8154815290600101906020018083116105b657829003601f168201915b5050505050905090565b600a81565b6000806105ed611c35565b90506105fa818585611c3d565b600191505092915050565b7f000000000000000000000000000000000000000000000000000000000000000081565b6000610633610638565b905090565b6000600254905090565b600760009054906101000a900460ff1681565b600080610660611c35565b905061066d858285611e06565b610678858585611e92565b60019150509392505050565b60085481565b610692612108565b60007f000000000000000000000000000000000000000000000000000000000000000073ffffffffffffffffffffffffffffffffffffffff1662fdd58e33600a6040518363ffffffff1660e01b81526004016106ef929190612b25565b602060405180830381865afa15801561070c573d6000803e3d6000fd5b505050506040513d601f19601f820116820180604052508101906107309190612b63565b11610770576040517f08c379a000000000000000000000000000000000000000000000000000000000815260040161076790612bdc565b60405180910390fd5b600160048111156107845761078361284f565b5b600760009054906101000a900460ff1660048111156107a6576107a561284f565b5b146107e6576040517f08c379a00000000000000000000000000000000000000000000000000000000081526004016107dd90612c48565b60405180910390fd5b606481101561082a576040517f08c379a000000000000000000000000000000000000000000000000000000000815260040161082190612cb4565b60405180910390fd5b60006108353361141b565b61083d610b1d565b600a6108499190612e36565b836108549190612e81565b61085e9190612ec3565b9050600061086a61137d565b9050808211156108b35781816040517f67baf3500000000000000000000000000000000000000000000000000000000081526004016108aa929190612ef7565b60405180910390fd5b7f0000000000000000000000000000000000000000000000000000000000000000620f4240846108e39190612e81565b6108eb610638565b6108f59190612ec3565b0361093c576109046002612157565b7ffcd0fc3b7edcf92eb73215ea3e3ab540fa9aba19eab822f09520a62297b63a88426040516109339190612834565b60405180910390a15b61096433610948610b1d565b600a6109549190612e36565b8561095f9190612e81565b612184565b60007f00000000000000000000000000000000000000000000000000000000000000009050600115158173ffffffffffffffffffffffffffffffffffffffff166323b872dd33308573ffffffffffffffffffffffffffffffffffffffff1663313ce5676040518163ffffffff1660e01b8152600401602060405180830381865afa1580156109f6573d6000803e3d6000fd5b505050506040513d601f19601f82011682018060405250810190610a1a9190612f4c565b600a610a269190612e36565b89610a319190612e81565b6040518463ffffffff1660e01b8152600401610a4f93929190612f79565b6020604051808303816000875af1158015610a6e573d6000803e3d6000fd5b505050506040513d601f19601f82011682018060405250810190610a929190612fdc565b151514610ad4576040517f08c379a0000000000000000000000000000000000000000000000000000000008152600401610acb90613055565b60405180910390fd5b7f47e05c250ea8d12a4327006492e000480fff676bd5589375a47a35d7b59e965c338542604051610b0793929190613075565b60405180910390a1505050610b1a6122da565b50565b60006006905090565b600080610b31611c35565b9050610b52818585610b438589611b2b565b610b4d9190612ec3565b611c3d565b600191505092915050565b610b65612108565b60006004811115610b7957610b7861284f565b5b600760009054906101000a900460ff166004811115610b9b57610b9a61284f565b5b03610bdb576040517f08c379a0000000000000000000000000000000000000000000000000000000008152600401610bd2906130f8565b60405180910390fd5b60007f000000000000000000000000000000000000000000000000000000000000000073ffffffffffffffffffffffffffffffffffffffff1662fdd58e33600a6040518363ffffffff1660e01b8152600401610c38929190612b25565b602060405180830381865afa158015610c55573d6000803e3d6000fd5b505050506040513d601f19601f82011682018060405250810190610c799190612b63565b11610cb9576040517f08c379a0000000000000000000000000000000000000000000000000000000008152600401610cb090612bdc565b60405180910390fd5b60036004811115610ccd57610ccc61284f565b5b600760009054906101000a900460ff166004811115610cef57610cee61284f565b5b1480610d2d5750600480811115610d0957610d0861284f565b5b600760009054906101000a900460ff166004811115610d2b57610d2a61284f565b5b145b610d6c576040517f08c379a0000000000000000000000000000000000000000000000000000000008152600401610d6390613164565b60405180910390fd5b6000610d773361141b565b905060008111610dbc576040517f08c379a0000000000000000000000000000000000000000000000000000000008152600401610db3906131d0565b60405180910390fd5b60007f000000000000000000000000000000000000000000000000000000000000000090506000610dec836122e4565b9050610df83384612312565b600115158273ffffffffffffffffffffffffffffffffffffffff1663a9059cbb33846040518363ffffffff1660e01b8152600401610e379291906131f0565b6020604051808303816000875af1158015610e56573d6000803e3d6000fd5b505050506040513d601f19601f82011682018060405250810190610e7a9190612fdc565b151514610ebc576040517f08c379a0000000000000000000000000000000000000000000000000000000008152600401610eb390613055565b60405180910390fd5b7ff279e6a1f5e320cca91135676d9cb6e44ca8a08c0b88342bcdb1144f6511b568338242604051610eef93929190613075565b60405180910390a1505050610f026122da565b565b610f0c6124df565b60007f000000000000000000000000000000000000000000000000000000000000000073ffffffffffffffffffffffffffffffffffffffff1662fdd58e33600a6040518363ffffffff1660e01b8152600401610f69929190612b25565b602060405180830381865afa158015610f86573d6000803e3d6000fd5b505050506040513d601f19601f82011682018060405250810190610faa9190612b63565b11610fea576040517f08c379a0000000000000000000000000000000000000000000000000000000008152600401610fe190612bdc565b60405180910390fd5b60026004811115610ffe57610ffd61284f565b5b600760009054906101000a900460ff1660048111156110205761101f61284f565b5b14611060576040517f08c379a000000000000000000000000000000000000000000000000000000000815260040161105790613265565b60405180910390fd5b600060048111156110745761107361284f565b5b600760009054906101000a900460ff1660048111156110965761109561284f565b5b036110d6576040517f08c379a00000000000000000000000000000000000000000000000000000000081526004016110cd906130f8565b60405180910390fd5b6000807f00000000000000000000000000000000000000000000000000000000000000009050611104610629565b9150606460507f00000000000000000000000000000000000000000000000000000000000000006111359190612e81565b61113f91906132b4565b821015611181576040517f08c379a000000000000000000000000000000000000000000000000000000000815260040161117890613331565b60405180910390fd5b606460507f00000000000000000000000000000000000000000000000000000000000000006111b09190612e81565b6111ba91906132b4565b8173ffffffffffffffffffffffffffffffffffffffff166370a08231306040518263ffffffff1660e01b81526004016111f3919061299d565b602060405180830381865afa158015611210573d6000803e3d6000fd5b505050506040513d601f19601f820116820180604052508101906112349190612b63565b1015611275576040517f08c379a000000000000000000000000000000000000000000000000000000000815260040161126c90613331565b60405180910390fd5b7f726cc0c341611dd845f46d0ba0ed7d8eb937d9596c09cd5bc2dc93e3cec1071282426040516112a6929190612ef7565b60405180910390a1600115158173ffffffffffffffffffffffffffffffffffffffff1663a9059cbb336112d7610629565b6040518363ffffffff1660e01b81526004016112f49291906131f0565b6020604051808303816000875af1158015611313573d6000803e3d6000fd5b505050506040513d601f19601f820116820180604052508101906113379190612fdc565b151514611379576040517f08c379a000000000000000000000000000000000000000000000000000000000815260040161137090613055565b60405180910390fd5b5050565b6000611387610629565b7f00000000000000000000000000000000000000000000000000000000000000006113b29190613351565b9050600a7f00000000000000000000000000000000000000000000000000000000000000006113e191906132b4565b81111561141857600a7f000000000000000000000000000000000000000000000000000000000000000061141591906132b4565b90505b90565b60008060008373ffffffffffffffffffffffffffffffffffffffff1673ffffffffffffffffffffffffffffffffffffffff168152602001908152602001600020549050919050565b61146b6124df565b611475600061255d565b565b606481565b6000600560009054906101000a900473ffffffffffffffffffffffffffffffffffffffff16905090565b6114ae6124df565b6114b6612108565b80600760006101000a81548160ff021916908360048111156114db576114da61284f565b5b02179055506114e86122da565b50565b6060600480546114fa90612ab9565b80601f016020809104026020016040519081016040528092919081815260200182805461152690612ab9565b80156115735780601f1061154857610100808354040283529160200191611573565b820191906000526020600020905b81548152906001019060200180831161155657829003601f168201915b5050505050905090565b611585612108565b61158d6124df565b60007f000000000000000000000000000000000000000000000000000000000000000073ffffffffffffffffffffffffffffffffffffffff1662fdd58e33600a6040518363ffffffff1660e01b81526004016115ea929190612b25565b602060405180830381865afa158015611607573d6000803e3d6000fd5b505050506040513d601f19601f8201168201806040525081019061162b9190612b63565b1161166b576040517f08c379a000000000000000000000000000000000000000000000000000000000815260040161166290612bdc565b60405180910390fd5b6002600481111561167f5761167e61284f565b5b600760009054906101000a900460ff1660048111156116a1576116a061284f565b5b146116e1576040517f08c379a00000000000000000000000000000000000000000000000000000000081526004016116d890613265565b60405180910390fd5b600060048111156116f5576116f461284f565b5b600760009054906101000a900460ff1660048111156117175761171661284f565b5b03611757576040517f08c379a000000000000000000000000000000000000000000000000000000000815260040161174e906130f8565b60405180910390fd5b60007f000000000000000000000000000000000000000000000000000000000000000090508073ffffffffffffffffffffffffffffffffffffffff1663313ce5676040518163ffffffff1660e01b8152600401602060405180830381865afa1580156117c7573d6000803e3d6000fd5b505050506040513d601f19601f820116820180604052508101906117eb9190612f4c565b600a6117f79190612e36565b836118029190612e81565b6064837f00000000000000000000000000000000000000000000000000000000000000006118309190612e81565b61183a91906132b4565b7f00000000000000000000000000000000000000000000000000000000000000006118659190612ec3565b146118a5576040517f08c379a000000000000000000000000000000000000000000000000000000000815260040161189c906133d1565b60405180910390fd5b816008819055506118b66003612157565b600115158173ffffffffffffffffffffffffffffffffffffffff166323b872dd33308573ffffffffffffffffffffffffffffffffffffffff1663313ce5676040518163ffffffff1660e01b8152600401602060405180830381865afa158015611923573d6000803e3d6000fd5b505050506040513d601f19601f820116820180604052508101906119479190612f4c565b600a6119539190612e36565b8861195e9190612e81565b6040518463ffffffff1660e01b815260040161197c93929190612f79565b6020604051808303816000875af115801561199b573d6000803e3d6000fd5b505050506040513d601f19601f820116820180604052508101906119bf9190612fdc565b151514611a01576040517f08c379a00000000000000000000000000000000000000000000000000000000081526004016119f890613055565b60405180910390fd5b7fca22f0fd5416c937d088945895d15d2d24397ba8ce6fc40888cb98565e2412e2838342604051611a34939291906133f1565b60405180910390a150611a456122da565b5050565b7f000000000000000000000000000000000000000000000000000000000000000081565b600080611a78611c35565b90506000611a868286611b2b565b905083811015611acb576040517f08c379a0000000000000000000000000000000000000000000000000000000008152600401611ac29061349a565b60405180910390fd5b611ad88286868403611c3d565b60019250505092915050565b600080611aef611c35565b9050611afc818585611e92565b600191505092915050565b7f000000000000000000000000000000000000000000000000000000000000000081565b6000600160008473ffffffffffffffffffffffffffffffffffffffff1673ffffffffffffffffffffffffffffffffffffffff16815260200190815260200160002060008373ffffffffffffffffffffffffffffffffffffffff1673ffffffffffffffffffffffffffffffffffffffff16815260200190815260200160002054905092915050565b611bba6124df565b600073ffffffffffffffffffffffffffffffffffffffff168173ffffffffffffffffffffffffffffffffffffffff1603611c29576040517f08c379a0000000000000000000000000000000000000000000000000000000008152600401611c209061352c565b60405180910390fd5b611c328161255d565b50565b600033905090565b600073ffffffffffffffffffffffffffffffffffffffff168373ffffffffffffffffffffffffffffffffffffffff1603611cac576040517f08c379a0000000000000000000000000000000000000000000000000000000008152600401611ca3906135be565b60405180910390fd5b600073ffffffffffffffffffffffffffffffffffffffff168273ffffffffffffffffffffffffffffffffffffffff1603611d1b576040517f08c379a0000000000000000000000000000000000000000000000000000000008152600401611d1290613650565b60405180910390fd5b80600160008573ffffffffffffffffffffffffffffffffffffffff1673ffffffffffffffffffffffffffffffffffffffff16815260200190815260200160002060008473ffffffffffffffffffffffffffffffffffffffff1673ffffffffffffffffffffffffffffffffffffffff168152602001908152602001600020819055508173ffffffffffffffffffffffffffffffffffffffff168373ffffffffffffffffffffffffffffffffffffffff167f8c5be1e5ebec7d5bd14f71427d1e84f3dd0314c0f7b2291e5b200ac8c7c3b92583604051611df99190612834565b60405180910390a3505050565b6000611e128484611b2b565b90507fffffffffffffffffffffffffffffffffffffffffffffffffffffffffffffffff8114611e8c5781811015611e7e576040517f08c379a0000000000000000000000000000000000000000000000000000000008152600401611e75906136bc565b60405180910390fd5b611e8b8484848403611c3d565b5b50505050565b600073ffffffffffffffffffffffffffffffffffffffff168373ffffffffffffffffffffffffffffffffffffffff1603611f01576040517f08c379a0000000000000000000000000000000000000000000000000000000008152600401611ef89061374e565b60405180910390fd5b600073ffffffffffffffffffffffffffffffffffffffff168273ffffffffffffffffffffffffffffffffffffffff1603611f70576040517f08c379a0000000000000000000000000000000000000000000000000000000008152600401611f67906137e0565b60405180910390fd5b611f7b838383612623565b60008060008573ffffffffffffffffffffffffffffffffffffffff1673ffffffffffffffffffffffffffffffffffffffff16815260200190815260200160002054905081811015612001576040517f08c379a0000000000000000000000000000000000000000000000000000000008152600401611ff890613872565b60405180910390fd5b8181036000808673ffffffffffffffffffffffffffffffffffffffff1673ffffffffffffffffffffffffffffffffffffffff16815260200190815260200160002081905550816000808573ffffffffffffffffffffffffffffffffffffffff1673ffffffffffffffffffffffffffffffffffffffff168152602001908152602001600020600082825401925050819055508273ffffffffffffffffffffffffffffffffffffffff168473ffffffffffffffffffffffffffffffffffffffff167fddf252ad1be2c89b69c2b068fc378daa952ba7f163c4a11628f55a4df523b3ef846040516120ef9190612834565b60405180910390a3612102848484612628565b50505050565b60026006540361214d576040517f08c379a0000000000000000000000000000000000000000000000000000000008152600401612144906138de565b60405180910390fd5b6002600681905550565b80600760006101000a81548160ff0219169083600481111561217c5761217b61284f565b5b021790555050565b600073ffffffffffffffffffffffffffffffffffffffff168273ffffffffffffffffffffffffffffffffffffffff16036121f3576040517f08c379a00000000000000000000000000000000000000000000000000000000081526004016121ea9061394a565b60405180910390fd5b6121ff60008383612623565b80600260008282546122119190612ec3565b92505081905550806000808473ffffffffffffffffffffffffffffffffffffffff1673ffffffffffffffffffffffffffffffffffffffff168152602001908152602001600020600082825401925050819055508173ffffffffffffffffffffffffffffffffffffffff16600073ffffffffffffffffffffffffffffffffffffffff167fddf252ad1be2c89b69c2b068fc378daa952ba7f163c4a11628f55a4df523b3ef836040516122c29190612834565b60405180910390a36122d660008383612628565b5050565b6001600681905550565b60006064600854836122f69190612e81565b61230091906132b4565b8261230b9190612ec3565b9050919050565b600073ffffffffffffffffffffffffffffffffffffffff168273ffffffffffffffffffffffffffffffffffffffff1603612381576040517f08c379a0000000000000000000000000000000000000000000000000000000008152600401612378906139dc565b60405180910390fd5b61238d82600083612623565b60008060008473ffffffffffffffffffffffffffffffffffffffff1673ffffffffffffffffffffffffffffffffffffffff16815260200190815260200160002054905081811015612413576040517f08c379a000000000000000000000000000000000000000000000000000000000815260040161240a90613a6e565b60405180910390fd5b8181036000808573ffffffffffffffffffffffffffffffffffffffff1673ffffffffffffffffffffffffffffffffffffffff1681526020019081526020016000208190555081600260008282540392505081905550600073ffffffffffffffffffffffffffffffffffffffff168373ffffffffffffffffffffffffffffffffffffffff167fddf252ad1be2c89b69c2b068fc378daa952ba7f163c4a11628f55a4df523b3ef846040516124c69190612834565b60405180910390a36124da83600084612628565b505050565b6124e7611c35565b73ffffffffffffffffffffffffffffffffffffffff1661250561147c565b73ffffffffffffffffffffffffffffffffffffffff161461255b576040517f08c379a000000000000000000000000000000000000000000000000000000000815260040161255290613ada565b60405180910390fd5b565b6000600560009054906101000a900473ffffffffffffffffffffffffffffffffffffffff16905081600560006101000a81548173ffffffffffffffffffffffffffffffffffffffff021916908373ffffffffffffffffffffffffffffffffffffffff1602179055508173ffffffffffffffffffffffffffffffffffffffff168173ffffffffffffffffffffffffffffffffffffffff167f8be0079c531659141344cd1fd0a4f28419497f9722a3daafe3b4186f6b6457e060405160405180910390a35050565b505050565b505050565b600081519050919050565b600082825260208201905092915050565b60005b8381101561266757808201518184015260208101905061264c565b60008484015250505050565b6000601f19601f8301169050919050565b600061268f8261262d565b6126998185612638565b93506126a9818560208601612649565b6126b281612673565b840191505092915050565b600060208201905081810360008301526126d78184612684565b905092915050565b600060ff82169050919050565b6126f5816126df565b82525050565b600060208201905061271060008301846126ec565b92915050565b600080fd5b600073ffffffffffffffffffffffffffffffffffffffff82169050919050565b60006127468261271b565b9050919050565b6127568161273b565b811461276157600080fd5b50565b6000813590506127738161274d565b92915050565b6000819050919050565b61278c81612779565b811461279757600080fd5b50565b6000813590506127a981612783565b92915050565b600080604083850312156127c6576127c5612716565b5b60006127d485828601612764565b92505060206127e58582860161279a565b9150509250929050565b60008115159050919050565b612804816127ef565b82525050565b600060208201905061281f60008301846127fb565b92915050565b61282e81612779565b82525050565b60006020820190506128496000830184612825565b92915050565b7f4e487b7100000000000000000000000000000000000000000000000000000000600052602160045260246000fd5b6005811061288f5761288e61284f565b5b50565b60008190506128a08261287e565b919050565b60006128b082612892565b9050919050565b6128c0816128a5565b82525050565b60006020820190506128db60008301846128b7565b92915050565b6000806000606084860312156128fa576128f9612716565b5b600061290886828701612764565b935050602061291986828701612764565b925050604061292a8682870161279a565b9150509250925092565b60006020828403121561294a57612949612716565b5b60006129588482850161279a565b91505092915050565b60006020828403121561297757612976612716565b5b600061298584828501612764565b91505092915050565b6129978161273b565b82525050565b60006020820190506129b2600083018461298e565b92915050565b600581106129c557600080fd5b50565b6000813590506129d7816129b8565b92915050565b6000602082840312156129f3576129f2612716565b5b6000612a01848285016129c8565b91505092915050565b60008060408385031215612a2157612a20612716565b5b6000612a2f8582860161279a565b9250506020612a408582860161279a565b9150509250929050565b60008060408385031215612a6157612a60612716565b5b6000612a6f85828601612764565b9250506020612a8085828601612764565b9150509250929050565b7f4e487b7100000000000000000000000000000000000000000000000000000000600052602260045260246000fd5b60006002820490506001821680612ad157607f821691505b602082108103612ae457612ae3612a8a565b5b50919050565b6000819050919050565b6000612b0f612b0a612b05846126df565b612aea565b612779565b9050919050565b612b1f81612af4565b82525050565b6000604082019050612b3a600083018561298e565b612b476020830184612b16565b9392505050565b600081519050612b5d81612783565b92915050565b600060208284031215612b7957612b78612716565b5b6000612b8784828501612b4e565b91505092915050565b7f5573657220646f6573206e6f7420686176652074686520456e747279204e4654600082015250565b6000612bc6602083612638565b9150612bd182612b90565b602082019050919050565b60006020820190508181036000830152612bf581612bb9565b9050919050565b7f4e6f74206f6e2070726f67726573730000000000000000000000000000000000600082015250565b6000612c32600f83612638565b9150612c3d82612bfc565b602082019050919050565b60006020820190508181036000830152612c6181612c25565b9050919050565b7f4e6f7420656e6f75676820616d6f756e7420746f20696e766573740000000000600082015250565b6000612c9e601b83612638565b9150612ca982612c68565b602082019050919050565b60006020820190508181036000830152612ccd81612c91565b9050919050565b7f4e487b7100000000000000000000000000000000000000000000000000000000600052601160045260246000fd5b60008160011c9050919050565b6000808291508390505b6001851115612d5a57808604811115612d3657612d35612cd4565b5b6001851615612d455780820291505b8081029050612d5385612d03565b9450612d1a565b94509492505050565b600082612d735760019050612e2f565b81612d815760009050612e2f565b8160018114612d975760028114612da157612dd0565b6001915050612e2f565b60ff841115612db357612db2612cd4565b5b8360020a915084821115612dca57612dc9612cd4565b5b50612e2f565b5060208310610133831016604e8410600b8410161715612e055782820a905083811115612e0057612dff612cd4565b5b612e2f565b612e128484846001612d10565b92509050818404811115612e2957612e28612cd4565b5b81810290505b9392505050565b6000612e4182612779565b9150612e4c836126df565b9250612e797fffffffffffffffffffffffffffffffffffffffffffffffffffffffffffffffff8484612d63565b905092915050565b6000612e8c82612779565b9150612e9783612779565b9250828202612ea581612779565b91508282048414831517612ebc57612ebb612cd4565b5b5092915050565b6000612ece82612779565b9150612ed983612779565b9250828201905080821115612ef157612ef0612cd4565b5b92915050565b6000604082019050612f0c6000830185612825565b612f196020830184612825565b9392505050565b612f29816126df565b8114612f3457600080fd5b50565b600081519050612f4681612f20565b92915050565b600060208284031215612f6257612f61612716565b5b6000612f7084828501612f37565b91505092915050565b6000606082019050612f8e600083018661298e565b612f9b602083018561298e565b612fa86040830184612825565b949350505050565b612fb9816127ef565b8114612fc457600080fd5b50565b600081519050612fd681612fb0565b92915050565b600060208284031215612ff257612ff1612716565b5b600061300084828501612fc7565b91505092915050565b7f50757a7a6c653a204572726f7220696e20746f6b656e207472616e7366657200600082015250565b600061303f601f83612638565b915061304a82613009565b602082019050919050565b6000602082019050818103600083015261306e81613032565b9050919050565b600060608201905061308a600083018661298e565b6130976020830185612825565b6130a46040830184612825565b949350505050565b7f436f6e7472616374207061757365640000000000000000000000000000000000600082015250565b60006130e2600f83612638565b91506130ed826130ac565b602082019050919050565b60006020820190508181036000830152613111816130d5565b9050919050565b7f4e6f74206f6e205769746864726177206f7220526566756e64696e6700000000600082015250565b600061314e601c83612638565b915061315982613118565b602082019050919050565b6000602082019050818103600083015261317d81613141565b9050919050565b7f4e6f7420656e6f7567682062616c616e63650000000000000000000000000000600082015250565b60006131ba601283612638565b91506131c582613184565b602082019050919050565b600060208201905081810360008301526131e9816131ad565b9050919050565b6000604082019050613205600083018561298e565b6132126020830184612825565b9392505050565b7f4e6f74206f6e2070726f63657373000000000000000000000000000000000000600082015250565b600061324f600e83612638565b915061325a82613219565b602082019050919050565b6000602082019050818103600083015261327e81613242565b9050919050565b7f4e487b7100000000000000000000000000000000000000000000000000000000600052601260045260246000fd5b60006132bf82612779565b91506132ca83612779565b9250826132da576132d9613285565b5b828204905092915050565b7f546f74616c206e6f742072656163686564000000000000000000000000000000600082015250565b600061331b601183612638565b9150613326826132e5565b602082019050919050565b6000602082019050818103600083015261334a8161330e565b9050919050565b600061335c82612779565b915061336783612779565b925082820390508181111561337f5761337e612cd4565b5b92915050565b7f4e6f7420636f72726563742076616c7565000000000000000000000000000000600082015250565b60006133bb601183612638565b91506133c682613385565b602082019050919050565b600060208201905081810360008301526133ea816133ae565b9050919050565b60006060820190506134066000830186612825565b6134136020830185612825565b6134206040830184612825565b949350505050565b7f45524332303a2064656372656173656420616c6c6f77616e63652062656c6f7760008201527f207a65726f000000000000000000000000000000000000000000000000000000602082015250565b6000613484602583612638565b915061348f82613428565b604082019050919050565b600060208201905081810360008301526134b381613477565b9050919050565b7f4f776e61626c653a206e6577206f776e657220697320746865207a65726f206160008201527f6464726573730000000000000000000000000000000000000000000000000000602082015250565b6000613516602683612638565b9150613521826134ba565b604082019050919050565b6000602082019050818103600083015261354581613509565b9050919050565b7f45524332303a20617070726f76652066726f6d20746865207a65726f2061646460008201527f7265737300000000000000000000000000000000000000000000000000000000602082015250565b60006135a8602483612638565b91506135b38261354c565b604082019050919050565b600060208201905081810360008301526135d78161359b565b9050919050565b7f45524332303a20617070726f766520746f20746865207a65726f20616464726560008201527f7373000000000000000000000000000000000000000000000000000000000000602082015250565b600061363a602283612638565b9150613645826135de565b604082019050919050565b600060208201905081810360008301526136698161362d565b9050919050565b7f45524332303a20696e73756666696369656e7420616c6c6f77616e6365000000600082015250565b60006136a6601d83612638565b91506136b182613670565b602082019050919050565b600060208201905081810360008301526136d581613699565b9050919050565b7f45524332303a207472616e736665722066726f6d20746865207a65726f20616460008201527f6472657373000000000000000000000000000000000000000000000000000000602082015250565b6000613738602583612638565b9150613743826136dc565b604082019050919050565b600060208201905081810360008301526137678161372b565b9050919050565b7f45524332303a207472616e7366657220746f20746865207a65726f206164647260008201527f6573730000000000000000000000000000000000000000000000000000000000602082015250565b60006137ca602383612638565b91506137d58261376e565b604082019050919050565b600060208201905081810360008301526137f9816137bd565b9050919050565b7f45524332303a207472616e7366657220616d6f756e742065786365656473206260008201527f616c616e63650000000000000000000000000000000000000000000000000000602082015250565b600061385c602683612638565b915061386782613800565b604082019050919050565b6000602082019050818103600083015261388b8161384f565b9050919050565b7f5265656e7472616e637947756172643a207265656e7472616e742063616c6c00600082015250565b60006138c8601f83612638565b91506138d382613892565b602082019050919050565b600060208201905081810360008301526138f7816138bb565b9050919050565b7f45524332303a206d696e7420746f20746865207a65726f206164647265737300600082015250565b6000613934601f83612638565b915061393f826138fe565b602082019050919050565b6000602082019050818103600083015261396381613927565b9050919050565b7f45524332303a206275726e2066726f6d20746865207a65726f2061646472657360008201527f7300000000000000000000000000000000000000000000000000000000000000602082015250565b60006139c6602183612638565b91506139d18261396a565b604082019050919050565b600060208201905081810360008301526139f5816139b9565b9050919050565b7f45524332303a206275726e20616d6f756e7420657863656564732062616c616e60008201527f6365000000000000000000000000000000000000000000000000000000000000602082015250565b6000613a58602283612638565b9150613a63826139fc565b604082019050919050565b60006020820190508181036000830152613a8781613a4b565b9050919050565b7f4f776e61626c653a2063616c6c6572206973206e6f7420746865206f776e6572600082015250565b6000613ac4602083612638565b9150613acf82613a8e565b602082019050919050565b60006020820190508181036000830152613af381613ab7565b905091905056fea26469706673582212208d58aa95136caee3934de10c18387eedc8bada16ecf2f0f0699cd68493b772f164736f6c63430008110033a26469706673582212207c614dfac4ee5a43c87b13d7c1f430536851ca62ce6da9cf8c751fff718bf34b64736f6c63430008110033",
  "linkReferences": {},
  "deployedLinkReferences": {}
}