{
  "_format": "hh-sol-artifact-1",
  "contractName": "Investment",
  "sourceName": "contracts/Investment.sol",
  "abi": [
    {
      "inputs": [
        {
          "internalType": "uint256",
          "name": "_totalInvestment",
          "type": "uint256"
        },
        {
          "internalType": "address",
          "name": "_entryNFTAddress",
          "type": "address"
        },
        {
          "internalType": "address",
          "name": "_paymentTokenAddress",
          "type": "address"
        }
      ],
      "stateMutability": "nonpayable",
      "type": "constructor"
    },
    {
      "inputs": [
        {
          "internalType": "uint256",
          "name": "amount",
          "type": "uint256"
        },
        {
          "internalType": "uint256",
          "name": "maxAllowed",
          "type": "uint256"
        }
      ],
      "name": "InvestmentExceedMax",
      "type": "error"
    },
    {
      "anonymous": false,
      "inputs": [
        {
          "indexed": true,
          "internalType": "address",
          "name": "owner",
          "type": "address"
        },
        {
          "indexed": true,
          "internalType": "address",
          "name": "spender",
          "type": "address"
        },
        {
          "indexed": false,
          "internalType": "uint256",
          "name": "value",
          "type": "uint256"
        }
      ],
      "name": "Approval",
      "type": "event"
    },
    {
      "anonymous": false,
      "inputs": [
        {
          "indexed": false,
          "internalType": "uint256",
          "name": "time",
          "type": "uint256"
        }
      ],
      "name": "ContractFilled",
      "type": "event"
    },
    {
      "anonymous": false,
      "inputs": [
        {
          "indexed": false,
          "internalType": "uint256",
          "name": "amount",
          "type": "uint256"
        },
        {
          "indexed": false,
          "internalType": "uint256",
          "name": "profit",
          "type": "uint256"
        },
        {
          "indexed": false,
          "internalType": "uint256",
          "name": "time",
          "type": "uint256"
        }
      ],
      "name": "ContractRefilled",
      "type": "event"
    },
    {
      "anonymous": false,
      "inputs": [
        {
          "indexed": true,
          "internalType": "address",
          "name": "previousOwner",
          "type": "address"
        },
        {
          "indexed": true,
          "internalType": "address",
          "name": "newOwner",
          "type": "address"
        }
      ],
      "name": "OwnershipTransferred",
      "type": "event"
    },
    {
      "anonymous": false,
      "inputs": [
        {
          "indexed": false,
          "internalType": "uint256",
          "name": "amount",
          "type": "uint256"
        },
        {
          "indexed": false,
          "internalType": "uint256",
          "name": "time",
          "type": "uint256"
        }
      ],
      "name": "SLWithdraw",
      "type": "event"
    },
    {
      "anonymous": false,
      "inputs": [
        {
          "indexed": true,
          "internalType": "address",
          "name": "from",
          "type": "address"
        },
        {
          "indexed": true,
          "internalType": "address",
          "name": "to",
          "type": "address"
        },
        {
          "indexed": false,
          "internalType": "uint256",
          "name": "value",
          "type": "uint256"
        }
      ],
      "name": "Transfer",
      "type": "event"
    },
    {
      "anonymous": false,
      "inputs": [
        {
          "indexed": false,
          "internalType": "address",
          "name": "user",
          "type": "address"
        },
        {
          "indexed": false,
          "internalType": "uint256",
          "name": "amount",
          "type": "uint256"
        },
        {
          "indexed": false,
          "internalType": "uint256",
          "name": "time",
          "type": "uint256"
        }
      ],
      "name": "UserInvest",
      "type": "event"
    },
    {
      "anonymous": false,
      "inputs": [
        {
          "indexed": false,
          "internalType": "address",
          "name": "user",
          "type": "address"
        },
        {
          "indexed": false,
          "internalType": "uint256",
          "name": "amount",
          "type": "uint256"
        },
        {
          "indexed": false,
          "internalType": "uint256",
          "name": "time",
          "type": "uint256"
        }
      ],
      "name": "Withdraw",
      "type": "event"
    },
    {
      "inputs": [],
      "name": "DECIMALSUSDC",
      "outputs": [
        {
          "internalType": "uint8",
          "name": "",
          "type": "uint8"
        }
      ],
      "stateMutability": "view",
      "type": "function"
    },
    {
      "inputs": [],
      "name": "LEVEL1",
      "outputs": [
        {
          "internalType": "uint8",
          "name": "",
          "type": "uint8"
        }
      ],
      "stateMutability": "view",
      "type": "function"
    },
    {
      "inputs": [],
      "name": "MINIMUM_INVESTMENT",
      "outputs": [
        {
          "internalType": "uint256",
          "name": "",
          "type": "uint256"
        }
      ],
      "stateMutability": "view",
      "type": "function"
    },
    {
      "inputs": [
        {
          "internalType": "address",
          "name": "owner",
          "type": "address"
        },
        {
          "internalType": "address",
          "name": "spender",
          "type": "address"
        }
      ],
      "name": "allowance",
      "outputs": [
        {
          "internalType": "uint256",
          "name": "",
          "type": "uint256"
        }
      ],
      "stateMutability": "view",
      "type": "function"
    },
    {
      "inputs": [
        {
          "internalType": "address",
          "name": "spender",
          "type": "address"
        },
        {
          "internalType": "uint256",
          "name": "amount",
          "type": "uint256"
        }
      ],
      "name": "approve",
      "outputs": [
        {
          "internalType": "bool",
          "name": "",
          "type": "bool"
        }
      ],
      "stateMutability": "nonpayable",
      "type": "function"
    },
    {
      "inputs": [
        {
          "internalType": "address",
          "name": "account",
          "type": "address"
        }
      ],
      "name": "balanceOf",
      "outputs": [
        {
          "internalType": "uint256",
          "name": "",
          "type": "uint256"
        }
      ],
      "stateMutability": "view",
      "type": "function"
    },
    {
      "inputs": [
        {
          "internalType": "enum Investment.Status",
          "name": "_newStatus",
          "type": "uint8"
        }
      ],
      "name": "changeStatus",
      "outputs": [],
      "stateMutability": "nonpayable",
      "type": "function"
    },
    {
      "inputs": [],
      "name": "decimals",
      "outputs": [
        {
          "internalType": "uint8",
          "name": "",
          "type": "uint8"
        }
      ],
      "stateMutability": "view",
      "type": "function"
    },
    {
      "inputs": [
        {
          "internalType": "address",
          "name": "spender",
          "type": "address"
        },
        {
          "internalType": "uint256",
          "name": "subtractedValue",
          "type": "uint256"
        }
      ],
      "name": "decreaseAllowance",
      "outputs": [
        {
          "internalType": "bool",
          "name": "",
          "type": "bool"
        }
      ],
      "stateMutability": "nonpayable",
      "type": "function"
    },
    {
      "inputs": [],
      "name": "entryNFTAddress",
      "outputs": [
        {
          "internalType": "address",
          "name": "",
          "type": "address"
        }
      ],
      "stateMutability": "view",
      "type": "function"
    },
    {
      "inputs": [],
      "name": "getMaxToInvest",
      "outputs": [
        {
          "internalType": "uint256",
          "name": "maxToInvest",
          "type": "uint256"
        }
      ],
      "stateMutability": "view",
      "type": "function"
    },
    {
      "inputs": [
        {
          "internalType": "address",
          "name": "spender",
          "type": "address"
        },
        {
          "internalType": "uint256",
          "name": "addedValue",
          "type": "uint256"
        }
      ],
      "name": "increaseAllowance",
      "outputs": [
        {
          "internalType": "bool",
          "name": "",
          "type": "bool"
        }
      ],
      "stateMutability": "nonpayable",
      "type": "function"
    },
    {
      "inputs": [
        {
          "internalType": "uint256",
          "name": "_amount",
          "type": "uint256"
        }
      ],
      "name": "invest",
      "outputs": [],
      "stateMutability": "nonpayable",
      "type": "function"
    },
    {
      "inputs": [],
      "name": "name",
      "outputs": [
        {
          "internalType": "string",
          "name": "",
          "type": "string"
        }
      ],
      "stateMutability": "view",
      "type": "function"
    },
    {
      "inputs": [],
      "name": "owner",
      "outputs": [
        {
          "internalType": "address",
          "name": "",
          "type": "address"
        }
      ],
      "stateMutability": "view",
      "type": "function"
    },
    {
      "inputs": [],
      "name": "paymentTokenAddress",
      "outputs": [
        {
          "internalType": "address",
          "name": "",
          "type": "address"
        }
      ],
      "stateMutability": "view",
      "type": "function"
    },
    {
      "inputs": [
        {
          "internalType": "uint256",
          "name": "_amount",
          "type": "uint256"
        },
        {
          "internalType": "uint256",
          "name": "_profitRate",
          "type": "uint256"
        }
      ],
      "name": "refill",
      "outputs": [],
      "stateMutability": "nonpayable",
      "type": "function"
    },
    {
      "inputs": [],
      "name": "renounceOwnership",
      "outputs": [],
      "stateMutability": "nonpayable",
      "type": "function"
    },
    {
      "inputs": [],
      "name": "returnProfit",
      "outputs": [
        {
          "internalType": "uint256",
          "name": "",
          "type": "uint256"
        }
      ],
      "stateMutability": "view",
      "type": "function"
    },
    {
      "inputs": [],
      "name": "status",
      "outputs": [
        {
          "internalType": "enum Investment.Status",
          "name": "",
          "type": "uint8"
        }
      ],
      "stateMutability": "view",
      "type": "function"
    },
    {
      "inputs": [],
      "name": "symbol",
      "outputs": [
        {
          "internalType": "string",
          "name": "",
          "type": "string"
        }
      ],
      "stateMutability": "view",
      "type": "function"
    },
    {
      "inputs": [
        {
          "internalType": "contract ERC20",
          "name": "_token",
          "type": "address"
        }
      ],
      "name": "totalContractBalanceStable",
      "outputs": [
        {
          "internalType": "uint256",
          "name": "totalBalance",
          "type": "uint256"
        }
      ],
      "stateMutability": "view",
      "type": "function"
    },
    {
      "inputs": [],
      "name": "totalInvestment",
      "outputs": [
        {
          "internalType": "uint256",
          "name": "",
          "type": "uint256"
        }
      ],
      "stateMutability": "view",
      "type": "function"
    },
    {
      "inputs": [],
      "name": "totalSupply",
      "outputs": [
        {
          "internalType": "uint256",
          "name": "",
          "type": "uint256"
        }
      ],
      "stateMutability": "view",
      "type": "function"
    },
    {
      "inputs": [
        {
          "internalType": "address",
          "name": "to",
          "type": "address"
        },
        {
          "internalType": "uint256",
          "name": "amount",
          "type": "uint256"
        }
      ],
      "name": "transfer",
      "outputs": [
        {
          "internalType": "bool",
          "name": "",
          "type": "bool"
        }
      ],
      "stateMutability": "nonpayable",
      "type": "function"
    },
    {
      "inputs": [
        {
          "internalType": "address",
          "name": "from",
          "type": "address"
        },
        {
          "internalType": "address",
          "name": "to",
          "type": "address"
        },
        {
          "internalType": "uint256",
          "name": "amount",
          "type": "uint256"
        }
      ],
      "name": "transferFrom",
      "outputs": [
        {
          "internalType": "bool",
          "name": "",
          "type": "bool"
        }
      ],
      "stateMutability": "nonpayable",
      "type": "function"
    },
    {
      "inputs": [
        {
          "internalType": "address",
          "name": "newOwner",
          "type": "address"
        }
      ],
      "name": "transferOwnership",
      "outputs": [],
      "stateMutability": "nonpayable",
      "type": "function"
    },
    {
      "inputs": [],
      "name": "withdraw",
      "outputs": [],
      "stateMutability": "nonpayable",
      "type": "function"
    },
    {
      "inputs": [],
      "name": "withdrawSL",
      "outputs": [],
      "stateMutability": "nonpayable",
      "type": "function"
    }
  ],
  "bytecode": "0x60e06040523480156200001157600080fd5b50604051620047403803806200474083398181016040528101906200003791906200052f565b6040518060400160405280601281526020017f496e766573746d656e7443757272656e637900000000000000000000000000008152506040518060400160405280600281526020017f49430000000000000000000000000000000000000000000000000000000000008152508160039081620000b49190620007fb565b508060049081620000c69190620007fb565b505050620000e9620000dd6200024560201b60201c565b6200024d60201b60201c565b6001600681905550600073ffffffffffffffffffffffffffffffffffffffff168273ffffffffffffffffffffffffffffffffffffffff16141580156200015c5750600073ffffffffffffffffffffffffffffffffffffffff168173ffffffffffffffffffffffffffffffffffffffff1614155b6200019e576040517f08c379a0000000000000000000000000000000000000000000000000000000008152600401620001959062000969565b60405180910390fd5b6006600a620001ae919062000b1b565b83620001bb919062000b6c565b608081815250508173ffffffffffffffffffffffffffffffffffffffff1660c08173ffffffffffffffffffffffffffffffffffffffff16815250508073ffffffffffffffffffffffffffffffffffffffff1660a08173ffffffffffffffffffffffffffffffffffffffff16815250506200023c60016200031360201b60201c565b50505062000cca565b600033905090565b6000600560009054906101000a900473ffffffffffffffffffffffffffffffffffffffff16905081600560006101000a81548173ffffffffffffffffffffffffffffffffffffffff021916908373ffffffffffffffffffffffffffffffffffffffff1602179055508173ffffffffffffffffffffffffffffffffffffffff168173ffffffffffffffffffffffffffffffffffffffff167f8be0079c531659141344cd1fd0a4f28419497f9722a3daafe3b4186f6b6457e060405160405180910390a35050565b620003236200037360201b60201c565b620003336200040460201b60201c565b80600760006101000a81548160ff021916908360048111156200035b576200035a62000bb7565b5b0217905550620003706200045660201b60201c565b50565b620003836200024560201b60201c565b73ffffffffffffffffffffffffffffffffffffffff16620003a96200046060201b60201c565b73ffffffffffffffffffffffffffffffffffffffff161462000402576040517f08c379a0000000000000000000000000000000000000000000000000000000008152600401620003f99062000c36565b60405180910390fd5b565b6002600654036200044c576040517f08c379a0000000000000000000000000000000000000000000000000000000008152600401620004439062000ca8565b60405180910390fd5b6002600681905550565b6001600681905550565b6000600560009054906101000a900473ffffffffffffffffffffffffffffffffffffffff16905090565b600080fd5b6000819050919050565b620004a4816200048f565b8114620004b057600080fd5b50565b600081519050620004c48162000499565b92915050565b600073ffffffffffffffffffffffffffffffffffffffff82169050919050565b6000620004f782620004ca565b9050919050565b6200050981620004ea565b81146200051557600080fd5b50565b6000815190506200052981620004fe565b92915050565b6000806000606084860312156200054b576200054a6200048a565b5b60006200055b86828701620004b3565b93505060206200056e8682870162000518565b9250506040620005818682870162000518565b9150509250925092565b600081519050919050565b7f4e487b7100000000000000000000000000000000000000000000000000000000600052604160045260246000fd5b7f4e487b7100000000000000000000000000000000000000000000000000000000600052602260045260246000fd5b600060028204905060018216806200060d57607f821691505b602082108103620006235762000622620005c5565b5b50919050565b60008190508160005260206000209050919050565b60006020601f8301049050919050565b600082821b905092915050565b6000600883026200068d7fffffffffffffffffffffffffffffffffffffffffffffffffffffffffffffffff826200064e565b6200069986836200064e565b95508019841693508086168417925050509392505050565b6000819050919050565b6000620006dc620006d6620006d0846200048f565b620006b1565b6200048f565b9050919050565b6000819050919050565b620006f883620006bb565b620007106200070782620006e3565b8484546200065b565b825550505050565b600090565b6200072762000718565b62000734818484620006ed565b505050565b5b818110156200075c57620007506000826200071d565b6001810190506200073a565b5050565b601f821115620007ab57620007758162000629565b62000780846200063e565b8101602085101562000790578190505b620007a86200079f856200063e565b83018262000739565b50505b505050565b600082821c905092915050565b6000620007d060001984600802620007b0565b1980831691505092915050565b6000620007eb8383620007bd565b9150826002028217905092915050565b62000806826200058b565b67ffffffffffffffff81111562000822576200082162000596565b5b6200082e8254620005f4565b6200083b82828562000760565b600060209050601f8311600181146200087357600084156200085e578287015190505b6200086a8582620007dd565b865550620008da565b601f198416620008838662000629565b60005b82811015620008ad5784890151825560018201915060208501945060208101905062000886565b86831015620008cd5784890151620008c9601f891682620007bd565b8355505b6001600288020188555050505b505050505050565b600082825260208201905092915050565b7f496e766573746d656e743a20436865636b2074686520706172616d657465727360008201527f20616e642072656465706c6f7900000000000000000000000000000000000000602082015250565b600062000951602d83620008e2565b91506200095e82620008f3565b604082019050919050565b60006020820190508181036000830152620009848162000942565b9050919050565b7f4e487b7100000000000000000000000000000000000000000000000000000000600052601160045260246000fd5b60008160011c9050919050565b6000808291508390505b600185111562000a1957808604811115620009f157620009f06200098b565b5b600185161562000a015780820291505b808102905062000a1185620009ba565b9450620009d1565b94509492505050565b60008262000a34576001905062000b07565b8162000a44576000905062000b07565b816001811462000a5d576002811462000a685762000a9e565b600191505062000b07565b60ff84111562000a7d5762000a7c6200098b565b5b8360020a91508482111562000a975762000a966200098b565b5b5062000b07565b5060208310610133831016604e8410600b841016171562000ad85782820a90508381111562000ad25762000ad16200098b565b5b62000b07565b62000ae78484846001620009c7565b9250905081840481111562000b015762000b006200098b565b5b81810290505b9392505050565b600060ff82169050919050565b600062000b28826200048f565b915062000b358362000b0e565b925062000b647fffffffffffffffffffffffffffffffffffffffffffffffffffffffffffffffff848462000a22565b905092915050565b600062000b79826200048f565b915062000b86836200048f565b925082820262000b96816200048f565b9150828204841483151762000bb05762000baf6200098b565b5b5092915050565b7f4e487b7100000000000000000000000000000000000000000000000000000000600052602160045260246000fd5b7f4f776e61626c653a2063616c6c6572206973206e6f7420746865206f776e6572600082015250565b600062000c1e602083620008e2565b915062000c2b8262000be6565b602082019050919050565b6000602082019050818103600083015262000c518162000c0f565b9050919050565b7f5265656e7472616e637947756172643a207265656e7472616e742063616c6c00600082015250565b600062000c90601f83620008e2565b915062000c9d8262000c58565b602082019050919050565b6000602082019050818103600083015262000cc38162000c81565b9050919050565b60805160a05160c0516139e462000d5c60003960008181610ab201528181610e68015281816114b301526118e801526000818161083a01528181610c9301528181611033015281816111ea0152818161172101526119a601526000818161064201528181611065015281816112100152818161123f015281816112730152818161167f01526116b401526139e46000f3fe608060405234801561001057600080fd5b50600436106101cf5760003560e01c80636fb20d321161010457806395d89b41116100a2578063a9059cbb11610071578063a9059cbb146104ec578063afb18fe71461051c578063dd62ed3e1461053a578063f2fde38b1461056a576101cf565b806395d89b411461046457806398ebf85d14610482578063a2d18dbd1461049e578063a457c2d7146104bc576101cf565b806388f69aa2116100de57806388f69aa2146103dc5780638a4660fe1461040c5780638da5cb5b1461042a57806395bc953814610448576101cf565b80636fb20d321461038457806370a08231146103a2578063715018a6146103d2576101cf565b806323b872dd11610171578063313ce5671161014b578063313ce5671461032257806339509351146103405780633ccfd60b14610370578063505ba1f51461037a576101cf565b806323b872dd146102b8578063270a2b9a146102e85780632afcf48014610306576101cf565b806310ea13df116101ad57806310ea13df1461024057806318160ddd1461025e578063200d2ed21461027c578063224cb6fb1461029a576101cf565b806306fdde03146101d45780630909c881146101f2578063095ea7b314610210575b600080fd5b6101dc610586565b6040516101e99190612572565b60405180910390f35b6101fa610618565b60405161020791906125b0565b60405180910390f35b61022a60048036038101906102259190612664565b61061d565b60405161023791906126bf565b60405180910390f35b610248610640565b60405161025591906126e9565b60405180910390f35b610266610664565b60405161027391906126e9565b60405180910390f35b61028461066e565b604051610291919061277b565b60405180910390f35b6102a2610681565b6040516102af91906125b0565b60405180910390f35b6102d260048036038101906102cd9190612796565b610686565b6040516102df91906126bf565b60405180910390f35b6102f06106b5565b6040516102fd91906126e9565b60405180910390f35b610320600480360381019061031b91906127e9565b6106bb565b005b61032a6109f0565b60405161033791906125b0565b60405180910390f35b61035a60048036038101906103559190612664565b6109f9565b60405161036791906126bf565b60405180910390f35b610378610a30565b005b610382610e5c565b005b61038c6111e3565b60405161039991906126e9565b60405180910390f35b6103bc60048036038101906103b79190612816565b6112a2565b6040516103c991906126e9565b60405180910390f35b6103da6112ea565b005b6103f660048036038101906103f19190612881565b6112fe565b60405161040391906126e9565b60405180910390f35b610414611381565b60405161042191906126e9565b60405180910390f35b61043261139e565b60405161043f91906128bd565b60405180910390f35b610462600480360381019061045d91906128fd565b6113c8565b005b61046c61140d565b6040516104799190612572565b60405180910390f35b61049c6004803603810190610497919061292a565b61149f565b005b6104a66118e6565b6040516104b391906128bd565b60405180910390f35b6104d660048036038101906104d19190612664565b61190a565b6040516104e391906126bf565b60405180910390f35b61050660048036038101906105019190612664565b611981565b60405161051391906126bf565b60405180910390f35b6105246119a4565b60405161053191906128bd565b60405180910390f35b610554600480360381019061054f919061296a565b6119c8565b60405161056191906126e9565b60405180910390f35b610584600480360381019061057f9190612816565b611a4f565b005b606060038054610595906129d9565b80601f01602080910402602001604051908101604052809291908181526020018280546105c1906129d9565b801561060e5780601f106105e35761010080835404028352916020019161060e565b820191906000526020600020905b8154815290600101906020018083116105f157829003601f168201915b5050505050905090565b600a81565b600080610628611ad2565b9050610635818585611ada565b600191505092915050565b7f000000000000000000000000000000000000000000000000000000000000000081565b6000600254905090565b600760009054906101000a900460ff1681565b600681565b600080610691611ad2565b905061069e858285611ca3565b6106a9858585611d2f565b60019150509392505050565b60085481565b6106c3611fa5565b6006600a6106d19190612b6c565b60646106dd9190612bb7565b6006600a6106eb9190612b6c565b826106f69190612bb7565b1015610737576040517f08c379a000000000000000000000000000000000000000000000000000000000815260040161072e90612c45565b60405180910390fd5b6000610742336112a2565b6006600a6107509190612b6c565b8361075b9190612bb7565b6107659190612c65565b905060006107716111e3565b9050600083826107819190612c65565b9050818311156107ca5782826040517f67baf3500000000000000000000000000000000000000000000000000000000081526004016107c1929190612c99565b60405180910390fd5b60008103610814576107dc6002611ff4565b7ffcd0fc3b7edcf92eb73215ea3e3ab540fa9aba19eab822f09520a62297b63a884260405161080b91906126e9565b60405180910390a15b610836336006600a6108269190612b6c565b866108319190612bb7565b612021565b60007f00000000000000000000000000000000000000000000000000000000000000009050600115158173ffffffffffffffffffffffffffffffffffffffff166323b872dd33308573ffffffffffffffffffffffffffffffffffffffff1663313ce5676040518163ffffffff1660e01b8152600401602060405180830381865afa1580156108c8573d6000803e3d6000fd5b505050506040513d601f19601f820116820180604052508101906108ec9190612cee565b600a6108f89190612b6c565b8a6109039190612bb7565b6040518463ffffffff1660e01b815260040161092193929190612d1b565b6020604051808303816000875af1158015610940573d6000803e3d6000fd5b505050506040513d601f19601f820116820180604052508101906109649190612d7e565b1515146109a6576040517f08c379a000000000000000000000000000000000000000000000000000000000815260040161099d90612df7565b60405180910390fd5b7f47e05c250ea8d12a4327006492e000480fff676bd5589375a47a35d7b59e965c3386426040516109d993929190612e17565b60405180910390a1505050506109ed612177565b50565b60006012905090565b600080610a04611ad2565b9050610a25818585610a1685896119c8565b610a209190612c65565b611ada565b600191505092915050565b610a38611fa5565b60006004811115610a4c57610a4b612704565b5b600760009054906101000a900460ff166004811115610a6e57610a6d612704565b5b03610aae576040517f08c379a0000000000000000000000000000000000000000000000000000000008152600401610aa590612e9a565b60405180910390fd5b60007f000000000000000000000000000000000000000000000000000000000000000073ffffffffffffffffffffffffffffffffffffffff1662fdd58e33600a6040518363ffffffff1660e01b8152600401610b0b929190612ef5565b602060405180830381865afa158015610b28573d6000803e3d6000fd5b505050506040513d601f19601f82011682018060405250810190610b4c9190612f33565b11610b8c576040517f08c379a0000000000000000000000000000000000000000000000000000000008152600401610b8390612fac565b60405180910390fd5b60036004811115610ba057610b9f612704565b5b600760009054906101000a900460ff166004811115610bc257610bc1612704565b5b1480610c005750600480811115610bdc57610bdb612704565b5b600760009054906101000a900460ff166004811115610bfe57610bfd612704565b5b145b610c3f576040517f08c379a0000000000000000000000000000000000000000000000000000000008152600401610c3690613018565b60405180910390fd5b6000610c4a336112a2565b905060008111610c8f576040517f08c379a0000000000000000000000000000000000000000000000000000000008152600401610c8690613084565b60405180910390fd5b60007f000000000000000000000000000000000000000000000000000000000000000090506000610cbf83612181565b9050610ccb33846121c7565b600115158273ffffffffffffffffffffffffffffffffffffffff1663a9059cbb338573ffffffffffffffffffffffffffffffffffffffff1663313ce5676040518163ffffffff1660e01b8152600401602060405180830381865afa158015610d37573d6000803e3d6000fd5b505050506040513d601f19601f82011682018060405250810190610d5b9190612cee565b600a610d679190612b6c565b85610d729190612bb7565b6040518363ffffffff1660e01b8152600401610d8f9291906130a4565b6020604051808303816000875af1158015610dae573d6000803e3d6000fd5b505050506040513d601f19601f82011682018060405250810190610dd29190612d7e565b151514610e14576040517f08c379a0000000000000000000000000000000000000000000000000000000008152600401610e0b90612df7565b60405180910390fd5b7ff279e6a1f5e320cca91135676d9cb6e44ca8a08c0b88342bcdb1144f6511b568338242604051610e4793929190612e17565b60405180910390a1505050610e5a612177565b565b610e64612394565b60007f000000000000000000000000000000000000000000000000000000000000000073ffffffffffffffffffffffffffffffffffffffff1662fdd58e33600a6040518363ffffffff1660e01b8152600401610ec1929190612ef5565b602060405180830381865afa158015610ede573d6000803e3d6000fd5b505050506040513d601f19601f82011682018060405250810190610f029190612f33565b11610f42576040517f08c379a0000000000000000000000000000000000000000000000000000000008152600401610f3990612fac565b60405180910390fd5b60026004811115610f5657610f55612704565b5b600760009054906101000a900460ff166004811115610f7857610f77612704565b5b14610fb8576040517f08c379a0000000000000000000000000000000000000000000000000000000008152600401610faf90613119565b60405180910390fd5b60006004811115610fcc57610fcb612704565b5b600760009054906101000a900460ff166004811115610fee57610fed612704565b5b0361102e576040517f08c379a000000000000000000000000000000000000000000000000000000000815260040161102590612e9a565b60405180910390fd5b6000807f0000000000000000000000000000000000000000000000000000000000000000905061105d816112fe565b9150606460507f000000000000000000000000000000000000000000000000000000000000000061108e9190612bb7565b6110989190613168565b8210156110da576040517f08c379a00000000000000000000000000000000000000000000000000000000081526004016110d1906131e5565b60405180910390fd5b7f726cc0c341611dd845f46d0ba0ed7d8eb937d9596c09cd5bc2dc93e3cec10712824260405161110b929190612c99565b60405180910390a1600115158173ffffffffffffffffffffffffffffffffffffffff1663a9059cbb3361113d856112fe565b6040518363ffffffff1660e01b815260040161115a9291906130a4565b6020604051808303816000875af1158015611179573d6000803e3d6000fd5b505050506040513d601f19601f8201168201806040525081019061119d9190612d7e565b1515146111df576040517f08c379a00000000000000000000000000000000000000000000000000000000081526004016111d690612df7565b60405180910390fd5b5050565b600061120e7f00000000000000000000000000000000000000000000000000000000000000006112fe565b7f00000000000000000000000000000000000000000000000000000000000000006112399190613205565b9050600a7f00000000000000000000000000000000000000000000000000000000000000006112689190613168565b81111561129f57600a7f000000000000000000000000000000000000000000000000000000000000000061129c9190613168565b90505b90565b60008060008373ffffffffffffffffffffffffffffffffffffffff1673ffffffffffffffffffffffffffffffffffffffff168152602001908152602001600020549050919050565b6112f2612394565b6112fc6000612412565b565b60008173ffffffffffffffffffffffffffffffffffffffff166370a08231306040518263ffffffff1660e01b815260040161133991906128bd565b602060405180830381865afa158015611356573d6000803e3d6000fd5b505050506040513d601f19601f8201168201806040525081019061137a9190612f33565b9050919050565b6006600a61138f9190612b6c565b606461139b9190612bb7565b81565b6000600560009054906101000a900473ffffffffffffffffffffffffffffffffffffffff16905090565b6113d0612394565b6113d8611fa5565b80600760006101000a81548160ff021916908360048111156113fd576113fc612704565b5b021790555061140a612177565b50565b60606004805461141c906129d9565b80601f0160208091040260200160405190810160405280929190818152602001828054611448906129d9565b80156114955780601f1061146a57610100808354040283529160200191611495565b820191906000526020600020905b81548152906001019060200180831161147857829003601f168201915b5050505050905090565b6114a7611fa5565b6114af612394565b60007f000000000000000000000000000000000000000000000000000000000000000073ffffffffffffffffffffffffffffffffffffffff1662fdd58e33600a6040518363ffffffff1660e01b815260040161150c929190612ef5565b602060405180830381865afa158015611529573d6000803e3d6000fd5b505050506040513d601f19601f8201168201806040525081019061154d9190612f33565b1161158d576040517f08c379a000000000000000000000000000000000000000000000000000000000815260040161158490612fac565b60405180910390fd5b600260048111156115a1576115a0612704565b5b600760009054906101000a900460ff1660048111156115c3576115c2612704565b5b14611603576040517f08c379a00000000000000000000000000000000000000000000000000000000081526004016115fa90613119565b60405180910390fd5b6000600481111561161757611616612704565b5b600760009054906101000a900460ff16600481111561163957611638612704565b5b03611679576040517f08c379a000000000000000000000000000000000000000000000000000000000815260040161167090612e9a565b60405180910390fd5b816064827f00000000000000000000000000000000000000000000000000000000000000006116a89190612bb7565b6116b29190613168565b7f00000000000000000000000000000000000000000000000000000000000000006116dd9190612c65565b1461171d576040517f08c379a000000000000000000000000000000000000000000000000000000000815260040161171490613285565b60405180910390fd5b60007f000000000000000000000000000000000000000000000000000000000000000090508160088190555061175360036113c8565b600115158173ffffffffffffffffffffffffffffffffffffffff166323b872dd33308573ffffffffffffffffffffffffffffffffffffffff1663313ce5676040518163ffffffff1660e01b8152600401602060405180830381865afa1580156117c0573d6000803e3d6000fd5b505050506040513d601f19601f820116820180604052508101906117e49190612cee565b600a6117f09190612b6c565b886117fb9190612bb7565b6040518463ffffffff1660e01b815260040161181993929190612d1b565b6020604051808303816000875af1158015611838573d6000803e3d6000fd5b505050506040513d601f19601f8201168201806040525081019061185c9190612d7e565b15151461189e576040517f08c379a000000000000000000000000000000000000000000000000000000000815260040161189590612df7565b60405180910390fd5b7fca22f0fd5416c937d088945895d15d2d24397ba8ce6fc40888cb98565e2412e28383426040516118d1939291906132a5565b60405180910390a1506118e2612177565b5050565b7f000000000000000000000000000000000000000000000000000000000000000081565b600080611915611ad2565b9050600061192382866119c8565b905083811015611968576040517f08c379a000000000000000000000000000000000000000000000000000000000815260040161195f9061334e565b60405180910390fd5b6119758286868403611ada565b60019250505092915050565b60008061198c611ad2565b9050611999818585611d2f565b600191505092915050565b7f000000000000000000000000000000000000000000000000000000000000000081565b6000600160008473ffffffffffffffffffffffffffffffffffffffff1673ffffffffffffffffffffffffffffffffffffffff16815260200190815260200160002060008373ffffffffffffffffffffffffffffffffffffffff1673ffffffffffffffffffffffffffffffffffffffff16815260200190815260200160002054905092915050565b611a57612394565b600073ffffffffffffffffffffffffffffffffffffffff168173ffffffffffffffffffffffffffffffffffffffff1603611ac6576040517f08c379a0000000000000000000000000000000000000000000000000000000008152600401611abd906133e0565b60405180910390fd5b611acf81612412565b50565b600033905090565b600073ffffffffffffffffffffffffffffffffffffffff168373ffffffffffffffffffffffffffffffffffffffff1603611b49576040517f08c379a0000000000000000000000000000000000000000000000000000000008152600401611b4090613472565b60405180910390fd5b600073ffffffffffffffffffffffffffffffffffffffff168273ffffffffffffffffffffffffffffffffffffffff1603611bb8576040517f08c379a0000000000000000000000000000000000000000000000000000000008152600401611baf90613504565b60405180910390fd5b80600160008573ffffffffffffffffffffffffffffffffffffffff1673ffffffffffffffffffffffffffffffffffffffff16815260200190815260200160002060008473ffffffffffffffffffffffffffffffffffffffff1673ffffffffffffffffffffffffffffffffffffffff168152602001908152602001600020819055508173ffffffffffffffffffffffffffffffffffffffff168373ffffffffffffffffffffffffffffffffffffffff167f8c5be1e5ebec7d5bd14f71427d1e84f3dd0314c0f7b2291e5b200ac8c7c3b92583604051611c9691906126e9565b60405180910390a3505050565b6000611caf84846119c8565b90507fffffffffffffffffffffffffffffffffffffffffffffffffffffffffffffffff8114611d295781811015611d1b576040517f08c379a0000000000000000000000000000000000000000000000000000000008152600401611d1290613570565b60405180910390fd5b611d288484848403611ada565b5b50505050565b600073ffffffffffffffffffffffffffffffffffffffff168373ffffffffffffffffffffffffffffffffffffffff1603611d9e576040517f08c379a0000000000000000000000000000000000000000000000000000000008152600401611d9590613602565b60405180910390fd5b600073ffffffffffffffffffffffffffffffffffffffff168273ffffffffffffffffffffffffffffffffffffffff1603611e0d576040517f08c379a0000000000000000000000000000000000000000000000000000000008152600401611e0490613694565b60405180910390fd5b611e188383836124d8565b60008060008573ffffffffffffffffffffffffffffffffffffffff1673ffffffffffffffffffffffffffffffffffffffff16815260200190815260200160002054905081811015611e9e576040517f08c379a0000000000000000000000000000000000000000000000000000000008152600401611e9590613726565b60405180910390fd5b8181036000808673ffffffffffffffffffffffffffffffffffffffff1673ffffffffffffffffffffffffffffffffffffffff16815260200190815260200160002081905550816000808573ffffffffffffffffffffffffffffffffffffffff1673ffffffffffffffffffffffffffffffffffffffff168152602001908152602001600020600082825401925050819055508273ffffffffffffffffffffffffffffffffffffffff168473ffffffffffffffffffffffffffffffffffffffff167fddf252ad1be2c89b69c2b068fc378daa952ba7f163c4a11628f55a4df523b3ef84604051611f8c91906126e9565b60405180910390a3611f9f8484846124dd565b50505050565b600260065403611fea576040517f08c379a0000000000000000000000000000000000000000000000000000000008152600401611fe190613792565b60405180910390fd5b6002600681905550565b80600760006101000a81548160ff0219169083600481111561201957612018612704565b5b021790555050565b600073ffffffffffffffffffffffffffffffffffffffff168273ffffffffffffffffffffffffffffffffffffffff1603612090576040517f08c379a0000000000000000000000000000000000000000000000000000000008152600401612087906137fe565b60405180910390fd5b61209c600083836124d8565b80600260008282546120ae9190612c65565b92505081905550806000808473ffffffffffffffffffffffffffffffffffffffff1673ffffffffffffffffffffffffffffffffffffffff168152602001908152602001600020600082825401925050819055508173ffffffffffffffffffffffffffffffffffffffff16600073ffffffffffffffffffffffffffffffffffffffff167fddf252ad1be2c89b69c2b068fc378daa952ba7f163c4a11628f55a4df523b3ef8360405161215f91906126e9565b60405180910390a3612173600083836124dd565b5050565b6001600681905550565b60006006600a6121919190612b6c565b6064600854846121a19190612bb7565b6121ab9190613168565b836121b69190612c65565b6121c09190612bb7565b9050919050565b600073ffffffffffffffffffffffffffffffffffffffff168273ffffffffffffffffffffffffffffffffffffffff1603612236576040517f08c379a000000000000000000000000000000000000000000000000000000000815260040161222d90613890565b60405180910390fd5b612242826000836124d8565b60008060008473ffffffffffffffffffffffffffffffffffffffff1673ffffffffffffffffffffffffffffffffffffffff168152602001908152602001600020549050818110156122c8576040517f08c379a00000000000000000000000000000000000000000000000000000000081526004016122bf90613922565b60405180910390fd5b8181036000808573ffffffffffffffffffffffffffffffffffffffff1673ffffffffffffffffffffffffffffffffffffffff1681526020019081526020016000208190555081600260008282540392505081905550600073ffffffffffffffffffffffffffffffffffffffff168373ffffffffffffffffffffffffffffffffffffffff167fddf252ad1be2c89b69c2b068fc378daa952ba7f163c4a11628f55a4df523b3ef8460405161237b91906126e9565b60405180910390a361238f836000846124dd565b505050565b61239c611ad2565b73ffffffffffffffffffffffffffffffffffffffff166123ba61139e565b73ffffffffffffffffffffffffffffffffffffffff1614612410576040517f08c379a00000000000000000000000000000000000000000000000000000000081526004016124079061398e565b60405180910390fd5b565b6000600560009054906101000a900473ffffffffffffffffffffffffffffffffffffffff16905081600560006101000a81548173ffffffffffffffffffffffffffffffffffffffff021916908373ffffffffffffffffffffffffffffffffffffffff1602179055508173ffffffffffffffffffffffffffffffffffffffff168173ffffffffffffffffffffffffffffffffffffffff167f8be0079c531659141344cd1fd0a4f28419497f9722a3daafe3b4186f6b6457e060405160405180910390a35050565b505050565b505050565b600081519050919050565b600082825260208201905092915050565b60005b8381101561251c578082015181840152602081019050612501565b60008484015250505050565b6000601f19601f8301169050919050565b6000612544826124e2565b61254e81856124ed565b935061255e8185602086016124fe565b61256781612528565b840191505092915050565b6000602082019050818103600083015261258c8184612539565b905092915050565b600060ff82169050919050565b6125aa81612594565b82525050565b60006020820190506125c560008301846125a1565b92915050565b600080fd5b600073ffffffffffffffffffffffffffffffffffffffff82169050919050565b60006125fb826125d0565b9050919050565b61260b816125f0565b811461261657600080fd5b50565b60008135905061262881612602565b92915050565b6000819050919050565b6126418161262e565b811461264c57600080fd5b50565b60008135905061265e81612638565b92915050565b6000806040838503121561267b5761267a6125cb565b5b600061268985828601612619565b925050602061269a8582860161264f565b9150509250929050565b60008115159050919050565b6126b9816126a4565b82525050565b60006020820190506126d460008301846126b0565b92915050565b6126e38161262e565b82525050565b60006020820190506126fe60008301846126da565b92915050565b7f4e487b7100000000000000000000000000000000000000000000000000000000600052602160045260246000fd5b6005811061274457612743612704565b5b50565b600081905061275582612733565b919050565b600061276582612747565b9050919050565b6127758161275a565b82525050565b6000602082019050612790600083018461276c565b92915050565b6000806000606084860312156127af576127ae6125cb565b5b60006127bd86828701612619565b93505060206127ce86828701612619565b92505060406127df8682870161264f565b9150509250925092565b6000602082840312156127ff576127fe6125cb565b5b600061280d8482850161264f565b91505092915050565b60006020828403121561282c5761282b6125cb565b5b600061283a84828501612619565b91505092915050565b600061284e826125f0565b9050919050565b61285e81612843565b811461286957600080fd5b50565b60008135905061287b81612855565b92915050565b600060208284031215612897576128966125cb565b5b60006128a58482850161286c565b91505092915050565b6128b7816125f0565b82525050565b60006020820190506128d260008301846128ae565b92915050565b600581106128e557600080fd5b50565b6000813590506128f7816128d8565b92915050565b600060208284031215612913576129126125cb565b5b6000612921848285016128e8565b91505092915050565b60008060408385031215612941576129406125cb565b5b600061294f8582860161264f565b92505060206129608582860161264f565b9150509250929050565b60008060408385031215612981576129806125cb565b5b600061298f85828601612619565b92505060206129a085828601612619565b9150509250929050565b7f4e487b7100000000000000000000000000000000000000000000000000000000600052602260045260246000fd5b600060028204905060018216806129f157607f821691505b602082108103612a0457612a036129aa565b5b50919050565b7f4e487b7100000000000000000000000000000000000000000000000000000000600052601160045260246000fd5b60008160011c9050919050565b6000808291508390505b6001851115612a9057808604811115612a6c57612a6b612a0a565b5b6001851615612a7b5780820291505b8081029050612a8985612a39565b9450612a50565b94509492505050565b600082612aa95760019050612b65565b81612ab75760009050612b65565b8160018114612acd5760028114612ad757612b06565b6001915050612b65565b60ff841115612ae957612ae8612a0a565b5b8360020a915084821115612b0057612aff612a0a565b5b50612b65565b5060208310610133831016604e8410600b8410161715612b3b5782820a905083811115612b3657612b35612a0a565b5b612b65565b612b488484846001612a46565b92509050818404811115612b5f57612b5e612a0a565b5b81810290505b9392505050565b6000612b778261262e565b9150612b8283612594565b9250612baf7fffffffffffffffffffffffffffffffffffffffffffffffffffffffffffffffff8484612a99565b905092915050565b6000612bc28261262e565b9150612bcd8361262e565b9250828202612bdb8161262e565b91508282048414831517612bf257612bf1612a0a565b5b5092915050565b7f4e6f7420656e6f75676820616d6f756e7420746f20696e766573740000000000600082015250565b6000612c2f601b836124ed565b9150612c3a82612bf9565b602082019050919050565b60006020820190508181036000830152612c5e81612c22565b9050919050565b6000612c708261262e565b9150612c7b8361262e565b9250828201905080821115612c9357612c92612a0a565b5b92915050565b6000604082019050612cae60008301856126da565b612cbb60208301846126da565b9392505050565b612ccb81612594565b8114612cd657600080fd5b50565b600081519050612ce881612cc2565b92915050565b600060208284031215612d0457612d036125cb565b5b6000612d1284828501612cd9565b91505092915050565b6000606082019050612d3060008301866128ae565b612d3d60208301856128ae565b612d4a60408301846126da565b949350505050565b612d5b816126a4565b8114612d6657600080fd5b50565b600081519050612d7881612d52565b92915050565b600060208284031215612d9457612d936125cb565b5b6000612da284828501612d69565b91505092915050565b7f50757a7a6c653a204572726f7220696e20746f6b656e207472616e7366657200600082015250565b6000612de1601f836124ed565b9150612dec82612dab565b602082019050919050565b60006020820190508181036000830152612e1081612dd4565b9050919050565b6000606082019050612e2c60008301866128ae565b612e3960208301856126da565b612e4660408301846126da565b949350505050565b7f436f6e7472616374207061757365640000000000000000000000000000000000600082015250565b6000612e84600f836124ed565b9150612e8f82612e4e565b602082019050919050565b60006020820190508181036000830152612eb381612e77565b9050919050565b6000819050919050565b6000612edf612eda612ed584612594565b612eba565b61262e565b9050919050565b612eef81612ec4565b82525050565b6000604082019050612f0a60008301856128ae565b612f176020830184612ee6565b9392505050565b600081519050612f2d81612638565b92915050565b600060208284031215612f4957612f486125cb565b5b6000612f5784828501612f1e565b91505092915050565b7f5573657220646f6573206e6f7420686176652074686520456e747279204e4654600082015250565b6000612f966020836124ed565b9150612fa182612f60565b602082019050919050565b60006020820190508181036000830152612fc581612f89565b9050919050565b7f4e6f74206f6e205769746864726177206f7220526566756e64696e6700000000600082015250565b6000613002601c836124ed565b915061300d82612fcc565b602082019050919050565b6000602082019050818103600083015261303181612ff5565b9050919050565b7f4e6f7420656e6f7567682062616c616e63650000000000000000000000000000600082015250565b600061306e6012836124ed565b915061307982613038565b602082019050919050565b6000602082019050818103600083015261309d81613061565b9050919050565b60006040820190506130b960008301856128ae565b6130c660208301846126da565b9392505050565b7f4e6f74206f6e2070726f63657373000000000000000000000000000000000000600082015250565b6000613103600e836124ed565b915061310e826130cd565b602082019050919050565b60006020820190508181036000830152613132816130f6565b9050919050565b7f4e487b7100000000000000000000000000000000000000000000000000000000600052601260045260246000fd5b60006131738261262e565b915061317e8361262e565b92508261318e5761318d613139565b5b828204905092915050565b7f546f74616c206e6f742072656163686564000000000000000000000000000000600082015250565b60006131cf6011836124ed565b91506131da82613199565b602082019050919050565b600060208201905081810360008301526131fe816131c2565b9050919050565b60006132108261262e565b915061321b8361262e565b925082820390508181111561323357613232612a0a565b5b92915050565b7f4e6f7420636f72726563742076616c7565000000000000000000000000000000600082015250565b600061326f6011836124ed565b915061327a82613239565b602082019050919050565b6000602082019050818103600083015261329e81613262565b9050919050565b60006060820190506132ba60008301866126da565b6132c760208301856126da565b6132d460408301846126da565b949350505050565b7f45524332303a2064656372656173656420616c6c6f77616e63652062656c6f7760008201527f207a65726f000000000000000000000000000000000000000000000000000000602082015250565b60006133386025836124ed565b9150613343826132dc565b604082019050919050565b600060208201905081810360008301526133678161332b565b9050919050565b7f4f776e61626c653a206e6577206f776e657220697320746865207a65726f206160008201527f6464726573730000000000000000000000000000000000000000000000000000602082015250565b60006133ca6026836124ed565b91506133d58261336e565b604082019050919050565b600060208201905081810360008301526133f9816133bd565b9050919050565b7f45524332303a20617070726f76652066726f6d20746865207a65726f2061646460008201527f7265737300000000000000000000000000000000000000000000000000000000602082015250565b600061345c6024836124ed565b915061346782613400565b604082019050919050565b6000602082019050818103600083015261348b8161344f565b9050919050565b7f45524332303a20617070726f766520746f20746865207a65726f20616464726560008201527f7373000000000000000000000000000000000000000000000000000000000000602082015250565b60006134ee6022836124ed565b91506134f982613492565b604082019050919050565b6000602082019050818103600083015261351d816134e1565b9050919050565b7f45524332303a20696e73756666696369656e7420616c6c6f77616e6365000000600082015250565b600061355a601d836124ed565b915061356582613524565b602082019050919050565b600060208201905081810360008301526135898161354d565b9050919050565b7f45524332303a207472616e736665722066726f6d20746865207a65726f20616460008201527f6472657373000000000000000000000000000000000000000000000000000000602082015250565b60006135ec6025836124ed565b91506135f782613590565b604082019050919050565b6000602082019050818103600083015261361b816135df565b9050919050565b7f45524332303a207472616e7366657220746f20746865207a65726f206164647260008201527f6573730000000000000000000000000000000000000000000000000000000000602082015250565b600061367e6023836124ed565b915061368982613622565b604082019050919050565b600060208201905081810360008301526136ad81613671565b9050919050565b7f45524332303a207472616e7366657220616d6f756e742065786365656473206260008201527f616c616e63650000000000000000000000000000000000000000000000000000602082015250565b60006137106026836124ed565b915061371b826136b4565b604082019050919050565b6000602082019050818103600083015261373f81613703565b9050919050565b7f5265656e7472616e637947756172643a207265656e7472616e742063616c6c00600082015250565b600061377c601f836124ed565b915061378782613746565b602082019050919050565b600060208201905081810360008301526137ab8161376f565b9050919050565b7f45524332303a206d696e7420746f20746865207a65726f206164647265737300600082015250565b60006137e8601f836124ed565b91506137f3826137b2565b602082019050919050565b60006020820190508181036000830152613817816137db565b9050919050565b7f45524332303a206275726e2066726f6d20746865207a65726f2061646472657360008201527f7300000000000000000000000000000000000000000000000000000000000000602082015250565b600061387a6021836124ed565b91506138858261381e565b604082019050919050565b600060208201905081810360008301526138a98161386d565b9050919050565b7f45524332303a206275726e20616d6f756e7420657863656564732062616c616e60008201527f6365000000000000000000000000000000000000000000000000000000000000602082015250565b600061390c6022836124ed565b9150613917826138b0565b604082019050919050565b6000602082019050818103600083015261393b816138ff565b9050919050565b7f4f776e61626c653a2063616c6c6572206973206e6f7420746865206f776e6572600082015250565b60006139786020836124ed565b915061398382613942565b602082019050919050565b600060208201905081810360008301526139a78161396b565b905091905056fea26469706673582212202581d47b0b26b909494da3e31027b856f1af3e5a8e0a4b4f533f4c59e74fd07a64736f6c63430008110033",
  "linkReferences": {},
  "deployedLinkReferences": {}
}