{
  "_format": "hh-sol-artifact-1",
  "contractName": "Puzzle",
  "sourceName": "contracts/Puzzle.sol",
  "abi": [
    {
      "inputs": [
        {
          "internalType": "address",
          "name": "_factoryAddress",
          "type": "address"
        },
        {
          "internalType": "address",
          "name": "_paymentTokenAddress",
          "type": "address"
        }
      ],
      "stateMutability": "nonpayable",
      "type": "constructor"
    },
    {
      "anonymous": false,
      "inputs": [
        {
          "indexed": true,
          "internalType": "address",
          "name": "account",
          "type": "address"
        },
        {
          "indexed": true,
          "internalType": "address",
          "name": "operator",
          "type": "address"
        },
        {
          "indexed": false,
          "internalType": "bool",
          "name": "approved",
          "type": "bool"
        }
      ],
      "name": "ApprovalForAll",
      "type": "event"
    },
    {
      "anonymous": false,
      "inputs": [
        {
          "indexed": false,
          "internalType": "address",
          "name": "user",
          "type": "address"
        }
      ],
      "name": "Burned",
      "type": "event"
    },
    {
      "anonymous": false,
      "inputs": [
        {
          "indexed": false,
          "internalType": "address",
          "name": "user",
          "type": "address"
        },
        {
          "indexed": false,
          "internalType": "uint256[]",
          "name": "burnedIds",
          "type": "uint256[]"
        },
        {
          "indexed": false,
          "internalType": "uint256[]",
          "name": "amount",
          "type": "uint256[]"
        }
      ],
      "name": "BurnedAndMinted",
      "type": "event"
    },
    {
      "anonymous": false,
      "inputs": [
        {
          "indexed": false,
          "internalType": "uint8",
          "name": "collection",
          "type": "uint8"
        },
        {
          "indexed": false,
          "internalType": "uint256",
          "name": "max_amount",
          "type": "uint256"
        }
      ],
      "name": "Max",
      "type": "event"
    },
    {
      "anonymous": false,
      "inputs": [
        {
          "indexed": false,
          "internalType": "uint8",
          "name": "collection",
          "type": "uint8"
        },
        {
          "indexed": false,
          "internalType": "uint256",
          "name": "id",
          "type": "uint256"
        },
        {
          "indexed": false,
          "internalType": "address",
          "name": "user",
          "type": "address"
        }
      ],
      "name": "Minted",
      "type": "event"
    },
    {
      "anonymous": false,
      "inputs": [
        {
          "indexed": true,
          "internalType": "address",
          "name": "previousOwner",
          "type": "address"
        },
        {
          "indexed": true,
          "internalType": "address",
          "name": "newOwner",
          "type": "address"
        }
      ],
      "name": "OwnershipTransferred",
      "type": "event"
    },
    {
      "anonymous": false,
      "inputs": [
        {
          "indexed": true,
          "internalType": "address",
          "name": "operator",
          "type": "address"
        },
        {
          "indexed": true,
          "internalType": "address",
          "name": "from",
          "type": "address"
        },
        {
          "indexed": true,
          "internalType": "address",
          "name": "to",
          "type": "address"
        },
        {
          "indexed": false,
          "internalType": "uint256[]",
          "name": "ids",
          "type": "uint256[]"
        },
        {
          "indexed": false,
          "internalType": "uint256[]",
          "name": "values",
          "type": "uint256[]"
        }
      ],
      "name": "TransferBatch",
      "type": "event"
    },
    {
      "anonymous": false,
      "inputs": [
        {
          "indexed": true,
          "internalType": "address",
          "name": "operator",
          "type": "address"
        },
        {
          "indexed": true,
          "internalType": "address",
          "name": "from",
          "type": "address"
        },
        {
          "indexed": true,
          "internalType": "address",
          "name": "to",
          "type": "address"
        },
        {
          "indexed": false,
          "internalType": "uint256",
          "name": "id",
          "type": "uint256"
        },
        {
          "indexed": false,
          "internalType": "uint256",
          "name": "value",
          "type": "uint256"
        }
      ],
      "name": "TransferSingle",
      "type": "event"
    },
    {
      "anonymous": false,
      "inputs": [
        {
          "indexed": false,
          "internalType": "string",
          "name": "value",
          "type": "string"
        },
        {
          "indexed": true,
          "internalType": "uint256",
          "name": "id",
          "type": "uint256"
        }
      ],
      "name": "URI",
      "type": "event"
    },
    {
      "inputs": [],
      "name": "AC",
      "outputs": [
        {
          "internalType": "uint8",
          "name": "",
          "type": "uint8"
        }
      ],
      "stateMutability": "view",
      "type": "function"
    },
    {
      "inputs": [],
      "name": "BREAK",
      "outputs": [
        {
          "internalType": "uint8",
          "name": "",
          "type": "uint8"
        }
      ],
      "stateMutability": "view",
      "type": "function"
    },
    {
      "inputs": [],
      "name": "CHAIR",
      "outputs": [
        {
          "internalType": "uint8",
          "name": "",
          "type": "uint8"
        }
      ],
      "stateMutability": "view",
      "type": "function"
    },
    {
      "inputs": [],
      "name": "CHASIS",
      "outputs": [
        {
          "internalType": "uint8",
          "name": "",
          "type": "uint8"
        }
      ],
      "stateMutability": "view",
      "type": "function"
    },
    {
      "inputs": [],
      "name": "DOOR",
      "outputs": [
        {
          "internalType": "uint8",
          "name": "",
          "type": "uint8"
        }
      ],
      "stateMutability": "view",
      "type": "function"
    },
    {
      "inputs": [],
      "name": "ENTRY_NFT_PRICE",
      "outputs": [
        {
          "internalType": "uint256",
          "name": "",
          "type": "uint256"
        }
      ],
      "stateMutability": "view",
      "type": "function"
    },
    {
      "inputs": [],
      "name": "GLASS",
      "outputs": [
        {
          "internalType": "uint8",
          "name": "",
          "type": "uint8"
        }
      ],
      "stateMutability": "view",
      "type": "function"
    },
    {
      "inputs": [],
      "name": "LEVEL1",
      "outputs": [
        {
          "internalType": "uint8",
          "name": "",
          "type": "uint8"
        }
      ],
      "stateMutability": "view",
      "type": "function"
    },
    {
      "inputs": [],
      "name": "LEVEL2",
      "outputs": [
        {
          "internalType": "uint8",
          "name": "",
          "type": "uint8"
        }
      ],
      "stateMutability": "view",
      "type": "function"
    },
    {
      "inputs": [],
      "name": "LIGHT",
      "outputs": [
        {
          "internalType": "uint8",
          "name": "",
          "type": "uint8"
        }
      ],
      "stateMutability": "view",
      "type": "function"
    },
    {
      "inputs": [],
      "name": "MAX_PER_COLLECTION",
      "outputs": [
        {
          "internalType": "uint256",
          "name": "",
          "type": "uint256"
        }
      ],
      "stateMutability": "view",
      "type": "function"
    },
    {
      "inputs": [],
      "name": "MIN_CLAIM_AMOUNT",
      "outputs": [
        {
          "internalType": "uint256",
          "name": "",
          "type": "uint256"
        }
      ],
      "stateMutability": "view",
      "type": "function"
    },
    {
      "inputs": [],
      "name": "MOTOR",
      "outputs": [
        {
          "internalType": "uint8",
          "name": "",
          "type": "uint8"
        }
      ],
      "stateMutability": "view",
      "type": "function"
    },
    {
      "inputs": [],
      "name": "STEERING",
      "outputs": [
        {
          "internalType": "uint8",
          "name": "",
          "type": "uint8"
        }
      ],
      "stateMutability": "view",
      "type": "function"
    },
    {
      "inputs": [],
      "name": "WHEEL",
      "outputs": [
        {
          "internalType": "uint8",
          "name": "",
          "type": "uint8"
        }
      ],
      "stateMutability": "view",
      "type": "function"
    },
    {
      "inputs": [
        {
          "internalType": "address",
          "name": "account",
          "type": "address"
        },
        {
          "internalType": "uint256",
          "name": "id",
          "type": "uint256"
        }
      ],
      "name": "balanceOf",
      "outputs": [
        {
          "internalType": "uint256",
          "name": "",
          "type": "uint256"
        }
      ],
      "stateMutability": "view",
      "type": "function"
    },
    {
      "inputs": [
        {
          "internalType": "address[]",
          "name": "accounts",
          "type": "address[]"
        },
        {
          "internalType": "uint256[]",
          "name": "ids",
          "type": "uint256[]"
        }
      ],
      "name": "balanceOfBatch",
      "outputs": [
        {
          "internalType": "uint256[]",
          "name": "",
          "type": "uint256[]"
        }
      ],
      "stateMutability": "view",
      "type": "function"
    },
    {
      "inputs": [],
      "name": "base_uri",
      "outputs": [
        {
          "internalType": "string",
          "name": "",
          "type": "string"
        }
      ],
      "stateMutability": "view",
      "type": "function"
    },
    {
      "inputs": [],
      "name": "burn",
      "outputs": [],
      "stateMutability": "nonpayable",
      "type": "function"
    },
    {
      "inputs": [],
      "name": "claim",
      "outputs": [],
      "stateMutability": "nonpayable",
      "type": "function"
    },
    {
      "inputs": [],
      "name": "factoryAddress",
      "outputs": [
        {
          "internalType": "address",
          "name": "",
          "type": "address"
        }
      ],
      "stateMutability": "view",
      "type": "function"
    },
    {
      "inputs": [
        {
          "internalType": "uint8",
          "name": "collection",
          "type": "uint8"
        }
      ],
      "name": "getMaxCollection",
      "outputs": [
        {
          "internalType": "uint256",
          "name": "max",
          "type": "uint256"
        }
      ],
      "stateMutability": "view",
      "type": "function"
    },
    {
      "inputs": [
        {
          "internalType": "address",
          "name": "account",
          "type": "address"
        },
        {
          "internalType": "address",
          "name": "operator",
          "type": "address"
        }
      ],
      "name": "isApprovedForAll",
      "outputs": [
        {
          "internalType": "bool",
          "name": "",
          "type": "bool"
        }
      ],
      "stateMutability": "view",
      "type": "function"
    },
    {
      "inputs": [],
      "name": "mintEntry",
      "outputs": [],
      "stateMutability": "nonpayable",
      "type": "function"
    },
    {
      "inputs": [],
      "name": "mintTest",
      "outputs": [],
      "stateMutability": "nonpayable",
      "type": "function"
    },
    {
      "inputs": [],
      "name": "owner",
      "outputs": [
        {
          "internalType": "address",
          "name": "",
          "type": "address"
        }
      ],
      "stateMutability": "view",
      "type": "function"
    },
    {
      "inputs": [],
      "name": "paymentTokenAddress",
      "outputs": [
        {
          "internalType": "address",
          "name": "",
          "type": "address"
        }
      ],
      "stateMutability": "view",
      "type": "function"
    },
    {
      "inputs": [],
      "name": "renounceOwnership",
      "outputs": [],
      "stateMutability": "nonpayable",
      "type": "function"
    },
    {
      "inputs": [
        {
          "internalType": "address",
          "name": "from",
          "type": "address"
        },
        {
          "internalType": "address",
          "name": "to",
          "type": "address"
        },
        {
          "internalType": "uint256[]",
          "name": "ids",
          "type": "uint256[]"
        },
        {
          "internalType": "uint256[]",
          "name": "amounts",
          "type": "uint256[]"
        },
        {
          "internalType": "bytes",
          "name": "data",
          "type": "bytes"
        }
      ],
      "name": "safeBatchTransferFrom",
      "outputs": [],
      "stateMutability": "nonpayable",
      "type": "function"
    },
    {
      "inputs": [
        {
          "internalType": "address",
          "name": "from",
          "type": "address"
        },
        {
          "internalType": "address",
          "name": "to",
          "type": "address"
        },
        {
          "internalType": "uint256",
          "name": "id",
          "type": "uint256"
        },
        {
          "internalType": "uint256",
          "name": "amount",
          "type": "uint256"
        },
        {
          "internalType": "bytes",
          "name": "data",
          "type": "bytes"
        }
      ],
      "name": "safeTransferFrom",
      "outputs": [],
      "stateMutability": "nonpayable",
      "type": "function"
    },
    {
      "inputs": [
        {
          "internalType": "address",
          "name": "operator",
          "type": "address"
        },
        {
          "internalType": "bool",
          "name": "approved",
          "type": "bool"
        }
      ],
      "name": "setApprovalForAll",
      "outputs": [],
      "stateMutability": "nonpayable",
      "type": "function"
    },
    {
      "inputs": [
        {
          "internalType": "bytes4",
          "name": "interfaceId",
          "type": "bytes4"
        }
      ],
      "name": "supportsInterface",
      "outputs": [
        {
          "internalType": "bool",
          "name": "",
          "type": "bool"
        }
      ],
      "stateMutability": "view",
      "type": "function"
    },
    {
      "inputs": [
        {
          "internalType": "uint256",
          "name": "tokenId",
          "type": "uint256"
        }
      ],
      "name": "tokenURI",
      "outputs": [
        {
          "internalType": "string",
          "name": "",
          "type": "string"
        }
      ],
      "stateMutability": "view",
      "type": "function"
    },
    {
      "inputs": [
        {
          "internalType": "address",
          "name": "newOwner",
          "type": "address"
        }
      ],
      "name": "transferOwnership",
      "outputs": [],
      "stateMutability": "nonpayable",
      "type": "function"
    },
    {
      "inputs": [
        {
          "internalType": "uint256",
          "name": "tokenId",
          "type": "uint256"
        }
      ],
      "name": "uri",
      "outputs": [
        {
          "internalType": "string",
          "name": "",
          "type": "string"
        }
      ],
      "stateMutability": "view",
      "type": "function"
    },
    {
      "inputs": [
        {
          "internalType": "address",
          "name": "user",
          "type": "address"
        }
      ],
      "name": "verifyBurn",
      "outputs": [
        {
          "internalType": "bool",
          "name": "",
          "type": "bool"
        },
        {
          "internalType": "uint256[]",
          "name": "",
          "type": "uint256[]"
        },
        {
          "internalType": "uint256[]",
          "name": "",
          "type": "uint256[]"
        }
      ],
      "stateMutability": "view",
      "type": "function"
    },
    {
      "inputs": [
        {
          "internalType": "address",
          "name": "user",
          "type": "address"
        }
      ],
      "name": "verifyClaim",
      "outputs": [
        {
          "internalType": "bool",
          "name": "",
          "type": "bool"
        }
      ],
      "stateMutability": "view",
      "type": "function"
    }
  ],
  "bytecode": "0x60c0604052604051806101800160405280600060ff1660ff168152602001600160ff1660ff168152602001600260ff1660ff168152602001600360ff1660ff168152602001600460ff1660ff168152602001600560ff1660ff168152602001600660ff1660ff168152602001600760ff1660ff168152602001600860ff1660ff168152602001600960ff1660ff168152602001600a60ff1660ff168152602001600b60ff1660ff16815250600590600c620000bc929190620003d0565b506000600960006101000a81548160ff021916908315150217905550348015620000e557600080fd5b506040516200565a3803806200565a83398181016040528101906200010b9190620004b0565b604051806020016040528060008152506200012c81620002ed60201b60201c565b506200014d620001416200030260201b60201c565b6200030a60201b60201c565b6001600481905550600073ffffffffffffffffffffffffffffffffffffffff168273ffffffffffffffffffffffffffffffffffffffff1614158015620001c05750600073ffffffffffffffffffffffffffffffffffffffff168173ffffffffffffffffffffffffffffffffffffffff1614155b62000202576040517f08c379a0000000000000000000000000000000000000000000000000000000008152600401620001f9906200057e565b60405180910390fd5b60005b6005805490508160ff1610156200027c57600f600660008360ff1660ff16815260200190815260200160002081905550600760008260ff1660ff16815260200190815260200160002060008154809291906200026190620005d9565b91905055508080620002739062000633565b91505062000205565b508173ffffffffffffffffffffffffffffffffffffffff1660808173ffffffffffffffffffffffffffffffffffffffff16815250508073ffffffffffffffffffffffffffffffffffffffff1660a08173ffffffffffffffffffffffffffffffffffffffff16815250505050620009b8565b8060029081620002fe9190620008d1565b5050565b600033905090565b6000600360009054906101000a900473ffffffffffffffffffffffffffffffffffffffff16905081600360006101000a81548173ffffffffffffffffffffffffffffffffffffffff021916908373ffffffffffffffffffffffffffffffffffffffff1602179055508173ffffffffffffffffffffffffffffffffffffffff168173ffffffffffffffffffffffffffffffffffffffff167f8be0079c531659141344cd1fd0a4f28419497f9722a3daafe3b4186f6b6457e060405160405180910390a35050565b82805482825590600052602060002090810192821562000414579160200282015b8281111562000413578251829060ff16905591602001919060010190620003f1565b5b50905062000423919062000427565b5090565b5b808211156200044257600081600090555060010162000428565b5090565b600080fd5b600073ffffffffffffffffffffffffffffffffffffffff82169050919050565b600062000478826200044b565b9050919050565b6200048a816200046b565b81146200049657600080fd5b50565b600081519050620004aa816200047f565b92915050565b60008060408385031215620004ca57620004c962000446565b5b6000620004da8582860162000499565b9250506020620004ed8582860162000499565b9150509250929050565b600082825260208201905092915050565b7f50757a7a6c653a20436865636b2074686520706172616d657465727320616e6460008201527f2072656465706c6f790000000000000000000000000000000000000000000000602082015250565b600062000566602983620004f7565b9150620005738262000508565b604082019050919050565b60006020820190508181036000830152620005998162000557565b9050919050565b7f4e487b7100000000000000000000000000000000000000000000000000000000600052601160045260246000fd5b6000819050919050565b6000620005e682620005cf565b91507fffffffffffffffffffffffffffffffffffffffffffffffffffffffffffffffff82036200061b576200061a620005a0565b5b600182019050919050565b600060ff82169050919050565b6000620006408262000626565b915060ff8203620006565762000655620005a0565b5b600182019050919050565b600081519050919050565b7f4e487b7100000000000000000000000000000000000000000000000000000000600052604160045260246000fd5b7f4e487b7100000000000000000000000000000000000000000000000000000000600052602260045260246000fd5b60006002820490506001821680620006e357607f821691505b602082108103620006f957620006f86200069b565b5b50919050565b60008190508160005260206000209050919050565b60006020601f8301049050919050565b600082821b905092915050565b600060088302620007637fffffffffffffffffffffffffffffffffffffffffffffffffffffffffffffffff8262000724565b6200076f868362000724565b95508019841693508086168417925050509392505050565b6000819050919050565b6000620007b2620007ac620007a684620005cf565b62000787565b620005cf565b9050919050565b6000819050919050565b620007ce8362000791565b620007e6620007dd82620007b9565b84845462000731565b825550505050565b600090565b620007fd620007ee565b6200080a818484620007c3565b505050565b5b81811015620008325762000826600082620007f3565b60018101905062000810565b5050565b601f82111562000881576200084b81620006ff565b620008568462000714565b8101602085101562000866578190505b6200087e620008758562000714565b8301826200080f565b50505b505050565b600082821c905092915050565b6000620008a66000198460080262000886565b1980831691505092915050565b6000620008c1838362000893565b9150826002028217905092915050565b620008dc8262000661565b67ffffffffffffffff811115620008f857620008f76200066c565b5b620009048254620006ca565b6200091182828562000836565b600060209050601f83116001811462000949576000841562000934578287015190505b620009408582620008b3565b865550620009b0565b601f1984166200095986620006ff565b60005b8281101562000983578489015182556001820191506020850194506020810190506200095c565b86831015620009a357848901516200099f601f89168262000893565b8355505b6001600288020188555050505b505050505050565b60805160a051614c6e620009ec60003960008181611302015261151001526000818161115801526111ea0152614c6e6000f3fe608060405234801561001057600080fd5b50600436106102265760003560e01c80638b2ff24d11610130578063bb6d5ba0116100b8578063e76f51621161007c578063e76f516214610629578063e985e9c514610633578063f242432a14610663578063f24f34181461067f578063f2fde38b1461069d57610226565b8063bb6d5ba01461056f578063bcf0196b1461059f578063c87b56dd146105bd578063cd2aff4e146105ed578063d731c4f61461060b57610226565b8063966dae0e116100ff578063966dae0e146104c9578063a20da1d7146104e7578063a22cb46514610505578063a80d520c14610521578063afb18fe71461055157610226565b80638b2ff24d1461043d5780638da5cb5b1461045b57806393bedea914610479578063941ae8bd146104ab57610226565b80634e71d92d116101b35780636be6d721116101825780636be6d721146103bb578063715018a6146103d9578063786f2910146103e357806379b6bf7614610401578063886917651461041f57610226565b80634e71d92d1461036b578063561e3b741461037557806366675aa9146103935780636ac55a451461039d57610226565b80632715fe9a116101fa5780632715fe9a146102d95780632eb2c2d6146102f757806334bf49401461031357806344df8e70146103315780634e1273f41461033b57610226565b8062fdd58e1461022b57806301ffc9a71461025b5780630909c8811461028b5780630e89341c146102a9575b600080fd5b61024560048036038101906102409190612df4565b6106b9565b6040516102529190612e43565b60405180910390f35b61027560048036038101906102709190612eb6565b610781565b6040516102829190612efe565b60405180910390f35b610293610863565b6040516102a09190612f35565b60405180910390f35b6102c360048036038101906102be9190612f50565b610868565b6040516102d0919061300d565b60405180910390f35b6102e161087a565b6040516102ee9190612f35565b60405180910390f35b610311600480360381019061030c919061322c565b61087f565b005b61031b610920565b6040516103289190612f35565b60405180910390f35b610339610925565b005b610355600480360381019061035091906133be565b610ac4565b60405161036291906134f4565b60405180910390f35b610373610bdd565b005b61037d610dd0565b60405161038a9190612e43565b60405180910390f35b61039b610dd5565b005b6103a5610e58565b6040516103b29190612f35565b60405180910390f35b6103c3610e5d565b6040516103d09190612f35565b60405180910390f35b6103e1610e62565b005b6103eb610e76565b6040516103f8919061300d565b60405180910390f35b610409610e92565b6040516104169190612f35565b60405180910390f35b610427610e97565b6040516104349190612e43565b60405180910390f35b610445610e9c565b6040516104529190612f35565b60405180910390f35b610463610ea1565b6040516104709190613525565b60405180910390f35b610493600480360381019061048e9190613540565b610ecb565b6040516104a29392919061356d565b60405180910390f35b6104b3611151565b6040516104c09190612f35565b60405180910390f35b6104d1611156565b6040516104de9190613525565b60405180910390f35b6104ef61117a565b6040516104fc9190612f35565b60405180910390f35b61051f600480360381019061051a91906135de565b61117f565b005b61053b60048036038101906105369190613540565b611195565b6040516105489190612efe565b60405180910390f35b610559611300565b6040516105669190613525565b60405180910390f35b6105896004803603810190610584919061364a565b611324565b6040516105969190612e43565b60405180910390f35b6105a7611347565b6040516105b49190612f35565b60405180910390f35b6105d760048036038101906105d29190612f50565b61134c565b6040516105e4919061300d565b60405180910390f35b6105f56113e2565b6040516106029190612f35565b60405180910390f35b6106136113e7565b6040516106209190612e43565b60405180910390f35b6106316113ed565b005b61064d60048036038101906106489190613677565b6116c5565b60405161065a9190612efe565b60405180910390f35b61067d600480360381019061067891906136b7565b611759565b005b6106876117fa565b6040516106949190612f35565b60405180910390f35b6106b760048036038101906106b29190613540565b6117ff565b005b60008073ffffffffffffffffffffffffffffffffffffffff168373ffffffffffffffffffffffffffffffffffffffff1603610729576040517f08c379a0000000000000000000000000000000000000000000000000000000008152600401610720906137c0565b60405180910390fd5b60008083815260200190815260200160002060008473ffffffffffffffffffffffffffffffffffffffff1673ffffffffffffffffffffffffffffffffffffffff16815260200190815260200160002054905092915050565b60007fd9b67a26000000000000000000000000000000000000000000000000000000007bffffffffffffffffffffffffffffffffffffffffffffffffffffffff1916827bffffffffffffffffffffffffffffffffffffffffffffffffffffffff1916148061084c57507f0e89341c000000000000000000000000000000000000000000000000000000007bffffffffffffffffffffffffffffffffffffffffffffffffffffffff1916827bffffffffffffffffffffffffffffffffffffffffffffffffffffffff1916145b8061085c575061085b82611882565b5b9050919050565b600a81565b60606108738261134c565b9050919050565b600081565b6108876118ec565b73ffffffffffffffffffffffffffffffffffffffff168573ffffffffffffffffffffffffffffffffffffffff1614806108cd57506108cc856108c76118ec565b6116c5565b5b61090c576040517f08c379a000000000000000000000000000000000000000000000000000000000815260040161090390613852565b60405180910390fd5b61091985858585856118f4565b5050505050565b600481565b600061093533600a60ff166106b9565b11610975576040517f08c379a000000000000000000000000000000000000000000000000000000000815260040161096c906138be565b60405180910390fd5b61097d611c15565b600061098d33600b60ff166106b9565b146109cd576040517f08c379a00000000000000000000000000000000000000000000000000000000081526004016109c49061392a565b60405180910390fd5b60008060006109db33610ecb565b92509250925082610a21576040517f08c379a0000000000000000000000000000000000000000000000000000000008152600401610a1890613996565b60405180910390fd5b60076000600b60ff1660ff1681526020019081526020016000206000815480929190610a4c906139e5565b91905055507f88fdb2ceb700badc7b1061c009ec539fa5250b2c3cc9a72fd911183829957441338284604051610a8493929190613a2d565b60405180910390a1610a97338284611c64565b610ab733600b60ff16600160405180602001604052806000815250611f32565b505050610ac26120e2565b565b60608151835114610b0a576040517f08c379a0000000000000000000000000000000000000000000000000000000008152600401610b0190613ae4565b60405180910390fd5b6000835167ffffffffffffffff811115610b2757610b26613034565b5b604051908082528060200260200182016040528015610b555781602001602082028036833780820191505090505b50905060005b8451811015610bd257610ba2858281518110610b7a57610b79613b04565b5b6020026020010151858381518110610b9557610b94613b04565b5b60200260200101516106b9565b828281518110610bb557610bb4613b04565b5b60200260200101818152505080610bcb906139e5565b9050610b5b565b508091505092915050565b6000610bed33600a60ff166106b9565b11610c2d576040517f08c379a0000000000000000000000000000000000000000000000000000000008152600401610c24906138be565b60405180910390fd5b610c35611c15565b610c3e33611195565b610c7d576040517f08c379a0000000000000000000000000000000000000000000000000000000008152600401610c7490613b7f565b60405180910390fd5b6000610c876120ec565b9050600f600760008360ff1660ff168152602001908152602001600020541115610ce6576040517f08c379a0000000000000000000000000000000000000000000000000000000008152600401610cdd90613beb565b60405180910390fd5b600860003373ffffffffffffffffffffffffffffffffffffffff1673ffffffffffffffffffffffffffffffffffffffff1681526020019081526020016000206000815480929190610d36906139e5565b9190505550600760008260ff1660ff1681526020019081526020016000206000815480929190610d65906139e5565b9190505550610d89338260ff16600160405180602001604052806000815250611f32565b7f15a89c198d3cfa8a86a5e5a2c5348127e639a6131ccdbbfe14bd4f9bf1ed8ed181600133604051610dbd93929190613c50565b60405180910390a150610dce6120e2565b565b606481565b60005b6002600580549050610dea9190613c87565b8160ff161015610e5557610e13338260ff16600160405180602001604052806000815250611f32565b600760008260ff1660ff1681526020019081526020016000206000815480929190610e3d906139e5565b91905055508080610e4d90613cbb565b915050610dd8565b50565b600281565b600681565b610e6a612185565b610e746000612203565b565b604051806080016040528060428152602001614bf76042913981565b600581565b600f81565b600381565b6000600360009054906101000a900473ffffffffffffffffffffffffffffffffffffffff16905090565b60006060806000610ee033600a60ff166106b9565b11610f20576040517f08c379a0000000000000000000000000000000000000000000000000000000008152600401610f17906138be565b60405180910390fd5b6000600a67ffffffffffffffff811115610f3d57610f3c613034565b5b604051908082528060200260200182016040528015610f6b5781602001602082028036833780820191505090505b5090506000600a67ffffffffffffffff811115610f8b57610f8a613034565b5b604051908082528060200260200182016040528015610fb95781602001602082028036833780820191505090505b5090506000600a67ffffffffffffffff811115610fd957610fd8613034565b5b6040519080825280602002602001820160405280156110075781602001602082028036833780820191505090505b50905060005b82518110156110b5578782828151811061102a57611029613b04565b5b602002602001019073ffffffffffffffffffffffffffffffffffffffff16908173ffffffffffffffffffffffffffffffffffffffff16815250506005818154811061107857611077613b04565b5b906000526020600020015483828151811061109657611095613b04565b5b60200260200101818152505080806110ad906139e5565b91505061100d565b5060006110c28284610ac4565b905060005b815181101561113a5760008282815181106110e5576110e4613b04565b5b6020026020010151036111065760008585975097509750505050505061114a565b600185828151811061111b5761111a613b04565b5b6020026020010181815250508080611132906139e5565b9150506110c7565b5060018484965096509650505050505b9193909250565b600981565b7f000000000000000000000000000000000000000000000000000000000000000081565b600881565b61119161118a6118ec565b83836122c9565b5050565b6000806111a633600a60ff166106b9565b116111e6576040517f08c379a00000000000000000000000000000000000000000000000000000000081526004016111dd906138be565b60405180910390fd5b60007f0000000000000000000000000000000000000000000000000000000000000000905060006113888273ffffffffffffffffffffffffffffffffffffffff166311655dbd866040518263ffffffff1660e01b81526004016112499190613525565b602060405180830381865afa158015611266573d6000803e3d6000fd5b505050506040513d601f19601f8201168201806040525081019061128a9190613cf9565b6112949190613d55565b9050806001600860008773ffffffffffffffffffffffffffffffffffffffff1673ffffffffffffffffffffffffffffffffffffffff168152602001908152602001600020546112e39190613d86565b11156112f4576000925050506112fb565b6001925050505b919050565b7f000000000000000000000000000000000000000000000000000000000000000081565b6000600660008360ff1660ff168152602001908152602001600020549050919050565b600781565b60606001156113a4576000604051806080016040528060428152602001614bf76042913961137984612435565b60405160200161138a929190613e8e565b6040516020818303038152906040529050809150506113dd565b6040518060400160405280601081526020017f696e736572742069706673206c696e6b0000000000000000000000000000000081525090505b919050565b600181565b61138881565b6113f5611c15565b60066000600a60ff1660ff1681526020019081526020016000205460076000600a60ff1660ff16815260200190815260200160002054111561146c576040517f08c379a000000000000000000000000000000000000000000000000000000000815260040161146390613beb565b60405180910390fd5b600161147c33600a60ff166106b9565b106114bc576040517f08c379a00000000000000000000000000000000000000000000000000000000081526004016114b390613f14565b60405180910390fd5b60076000600a60ff1660ff16815260200190815260200160002060008154809291906114e7906139e5565b919050555061150c33600a60ff16600160405180602001604052806000815250611f32565b60007f00000000000000000000000000000000000000000000000000000000000000009050600115158173ffffffffffffffffffffffffffffffffffffffff166323b872dd33308573ffffffffffffffffffffffffffffffffffffffff1663313ce5676040518163ffffffff1660e01b8152600401602060405180830381865afa15801561159e573d6000803e3d6000fd5b505050506040513d601f19601f820116820180604052508101906115c29190613f49565b600a6115ce91906140a9565b60646115da91906140f4565b6040518463ffffffff1660e01b81526004016115f893929190614136565b6020604051808303816000875af1158015611617573d6000803e3d6000fd5b505050506040513d601f19601f8201168201806040525081019061163b9190614182565b15151461167d576040517f08c379a0000000000000000000000000000000000000000000000000000000008152600401611674906141fb565b60405180910390fd5b7f15a89c198d3cfa8a86a5e5a2c5348127e639a6131ccdbbfe14bd4f9bf1ed8ed1600a6001336040516116b293929190613c50565b60405180910390a1506116c36120e2565b565b6000600160008473ffffffffffffffffffffffffffffffffffffffff1673ffffffffffffffffffffffffffffffffffffffff16815260200190815260200160002060008373ffffffffffffffffffffffffffffffffffffffff1673ffffffffffffffffffffffffffffffffffffffff16815260200190815260200160002060009054906101000a900460ff16905092915050565b6117616118ec565b73ffffffffffffffffffffffffffffffffffffffff168573ffffffffffffffffffffffffffffffffffffffff1614806117a757506117a6856117a16118ec565b6116c5565b5b6117e6576040517f08c379a00000000000000000000000000000000000000000000000000000000081526004016117dd90613852565b60405180910390fd5b6117f38585858585612503565b5050505050565b600b81565b611807612185565b600073ffffffffffffffffffffffffffffffffffffffff168173ffffffffffffffffffffffffffffffffffffffff1603611876576040517f08c379a000000000000000000000000000000000000000000000000000000000815260040161186d9061428d565b60405180910390fd5b61187f81612203565b50565b60007f01ffc9a7000000000000000000000000000000000000000000000000000000007bffffffffffffffffffffffffffffffffffffffffffffffffffffffff1916827bffffffffffffffffffffffffffffffffffffffffffffffffffffffff1916149050919050565b600033905090565b8151835114611938576040517f08c379a000000000000000000000000000000000000000000000000000000000815260040161192f9061431f565b60405180910390fd5b600073ffffffffffffffffffffffffffffffffffffffff168473ffffffffffffffffffffffffffffffffffffffff16036119a7576040517f08c379a000000000000000000000000000000000000000000000000000000000815260040161199e906143b1565b60405180910390fd5b60006119b16118ec565b90506119c181878787878761279e565b60005b8451811015611b725760008582815181106119e2576119e1613b04565b5b602002602001015190506000858381518110611a0157611a00613b04565b5b60200260200101519050600080600084815260200190815260200160002060008b73ffffffffffffffffffffffffffffffffffffffff1673ffffffffffffffffffffffffffffffffffffffff16815260200190815260200160002054905081811015611aa2576040517f08c379a0000000000000000000000000000000000000000000000000000000008152600401611a9990614443565b60405180910390fd5b81810360008085815260200190815260200160002060008c73ffffffffffffffffffffffffffffffffffffffff1673ffffffffffffffffffffffffffffffffffffffff168152602001908152602001600020819055508160008085815260200190815260200160002060008b73ffffffffffffffffffffffffffffffffffffffff1673ffffffffffffffffffffffffffffffffffffffff1681526020019081526020016000206000828254611b579190613d86565b9250508190555050505080611b6b906139e5565b90506119c4565b508473ffffffffffffffffffffffffffffffffffffffff168673ffffffffffffffffffffffffffffffffffffffff168273ffffffffffffffffffffffffffffffffffffffff167f4a39dc06d4c0dbc64b70af90fd698a233a518aa5d07e595d983b8c0526c8f7fb8787604051611be9929190614463565b60405180910390a4611bff8187878787876127a6565b611c0d8187878787876127ae565b505050505050565b600260045403611c5a576040517f08c379a0000000000000000000000000000000000000000000000000000000008152600401611c51906144e6565b60405180910390fd5b6002600481905550565b600073ffffffffffffffffffffffffffffffffffffffff168373ffffffffffffffffffffffffffffffffffffffff1603611cd3576040517f08c379a0000000000000000000000000000000000000000000000000000000008152600401611cca90614578565b60405180910390fd5b8051825114611d17576040517f08c379a0000000000000000000000000000000000000000000000000000000008152600401611d0e9061431f565b60405180910390fd5b6000611d216118ec565b9050611d418185600086866040518060200160405280600081525061279e565b60005b8351811015611e8e576000848281518110611d6257611d61613b04565b5b602002602001015190506000848381518110611d8157611d80613b04565b5b60200260200101519050600080600084815260200190815260200160002060008973ffffffffffffffffffffffffffffffffffffffff1673ffffffffffffffffffffffffffffffffffffffff16815260200190815260200160002054905081811015611e22576040517f08c379a0000000000000000000000000000000000000000000000000000000008152600401611e199061460a565b60405180910390fd5b81810360008085815260200190815260200160002060008a73ffffffffffffffffffffffffffffffffffffffff1673ffffffffffffffffffffffffffffffffffffffff168152602001908152602001600020819055505050508080611e86906139e5565b915050611d44565b50600073ffffffffffffffffffffffffffffffffffffffff168473ffffffffffffffffffffffffffffffffffffffff168273ffffffffffffffffffffffffffffffffffffffff167f4a39dc06d4c0dbc64b70af90fd698a233a518aa5d07e595d983b8c0526c8f7fb8686604051611f06929190614463565b60405180910390a4611f2c818560008686604051806020016040528060008152506127a6565b50505050565b600073ffffffffffffffffffffffffffffffffffffffff168473ffffffffffffffffffffffffffffffffffffffff1603611fa1576040517f08c379a0000000000000000000000000000000000000000000000000000000008152600401611f989061469c565b60405180910390fd5b6000611fab6118ec565b90506000611fb885612985565b90506000611fc585612985565b9050611fd68360008985858961279e565b8460008088815260200190815260200160002060008973ffffffffffffffffffffffffffffffffffffffff1673ffffffffffffffffffffffffffffffffffffffff16815260200190815260200160002060008282546120359190613d86565b925050819055508673ffffffffffffffffffffffffffffffffffffffff16600073ffffffffffffffffffffffffffffffffffffffff168473ffffffffffffffffffffffffffffffffffffffff167fc3d58168c5ae7397731d063d5bbf3d657854427343f4c083240f7aacaa2d0f6289896040516120b39291906146bc565b60405180910390a46120ca836000898585896127a6565b6120d9836000898989896129ff565b50505050505050565b6001600481905550565b6000806120fd33600a60ff166106b9565b1161213d576040517f08c379a0000000000000000000000000000000000000000000000000000000008152600401612134906138be565b60405180910390fd5b6000600960ff164244336040516020016121599392919061474e565b6040516020818303038152906040528051906020012060001c61217c919061478b565b90508091505090565b61218d6118ec565b73ffffffffffffffffffffffffffffffffffffffff166121ab610ea1565b73ffffffffffffffffffffffffffffffffffffffff1614612201576040517f08c379a00000000000000000000000000000000000000000000000000000000081526004016121f890614808565b60405180910390fd5b565b6000600360009054906101000a900473ffffffffffffffffffffffffffffffffffffffff16905081600360006101000a81548173ffffffffffffffffffffffffffffffffffffffff021916908373ffffffffffffffffffffffffffffffffffffffff1602179055508173ffffffffffffffffffffffffffffffffffffffff168173ffffffffffffffffffffffffffffffffffffffff167f8be0079c531659141344cd1fd0a4f28419497f9722a3daafe3b4186f6b6457e060405160405180910390a35050565b8173ffffffffffffffffffffffffffffffffffffffff168373ffffffffffffffffffffffffffffffffffffffff1603612337576040517f08c379a000000000000000000000000000000000000000000000000000000000815260040161232e9061489a565b60405180910390fd5b80600160008573ffffffffffffffffffffffffffffffffffffffff1673ffffffffffffffffffffffffffffffffffffffff16815260200190815260200160002060008473ffffffffffffffffffffffffffffffffffffffff1673ffffffffffffffffffffffffffffffffffffffff16815260200190815260200160002060006101000a81548160ff0219169083151502179055508173ffffffffffffffffffffffffffffffffffffffff168373ffffffffffffffffffffffffffffffffffffffff167f17307eab39ab6107e8899845ad3d59bd9653f200f220920489ca2b5937696c31836040516124289190612efe565b60405180910390a3505050565b60606000600161244484612bd6565b01905060008167ffffffffffffffff81111561246357612462613034565b5b6040519080825280601f01601f1916602001820160405280156124955781602001600182028036833780820191505090505b509050600082602001820190505b6001156124f8578080600190039150507f3031323334353637383961626364656600000000000000000000000000000000600a86061a8153600a85816124ec576124eb613d26565b5b049450600085036124a3575b819350505050919050565b600073ffffffffffffffffffffffffffffffffffffffff168473ffffffffffffffffffffffffffffffffffffffff1603612572576040517f08c379a0000000000000000000000000000000000000000000000000000000008152600401612569906143b1565b60405180910390fd5b600061257c6118ec565b9050600061258985612985565b9050600061259685612985565b90506125a683898985858961279e565b600080600088815260200190815260200160002060008a73ffffffffffffffffffffffffffffffffffffffff1673ffffffffffffffffffffffffffffffffffffffff1681526020019081526020016000205490508581101561263d576040517f08c379a000000000000000000000000000000000000000000000000000000000815260040161263490614443565b60405180910390fd5b85810360008089815260200190815260200160002060008b73ffffffffffffffffffffffffffffffffffffffff1673ffffffffffffffffffffffffffffffffffffffff168152602001908152602001600020819055508560008089815260200190815260200160002060008a73ffffffffffffffffffffffffffffffffffffffff1673ffffffffffffffffffffffffffffffffffffffff16815260200190815260200160002060008282546126f29190613d86565b925050819055508773ffffffffffffffffffffffffffffffffffffffff168973ffffffffffffffffffffffffffffffffffffffff168573ffffffffffffffffffffffffffffffffffffffff167fc3d58168c5ae7397731d063d5bbf3d657854427343f4c083240f7aacaa2d0f628a8a60405161276f9291906146bc565b60405180910390a4612785848a8a86868a6127a6565b612793848a8a8a8a8a6129ff565b505050505050505050565b505050505050565b505050505050565b6127cd8473ffffffffffffffffffffffffffffffffffffffff16612d29565b1561297d578373ffffffffffffffffffffffffffffffffffffffff1663bc197c8187878686866040518663ffffffff1660e01b815260040161281395949392919061490f565b6020604051808303816000875af192505050801561284f57506040513d601f19601f8201168201806040525081019061284c919061498c565b60015b6128f45761285b6149c6565b806308c379a0036128b7575061286f6149e8565b8061287a57506128b9565b806040517f08c379a00000000000000000000000000000000000000000000000000000000081526004016128ae919061300d565b60405180910390fd5b505b6040517f08c379a00000000000000000000000000000000000000000000000000000000081526004016128eb90614aea565b60405180910390fd5b63bc197c8160e01b7bffffffffffffffffffffffffffffffffffffffffffffffffffffffff1916817bffffffffffffffffffffffffffffffffffffffffffffffffffffffff19161461297b576040517f08c379a000000000000000000000000000000000000000000000000000000000815260040161297290614b7c565b60405180910390fd5b505b505050505050565b60606000600167ffffffffffffffff8111156129a4576129a3613034565b5b6040519080825280602002602001820160405280156129d25781602001602082028036833780820191505090505b50905082816000815181106129ea576129e9613b04565b5b60200260200101818152505080915050919050565b612a1e8473ffffffffffffffffffffffffffffffffffffffff16612d29565b15612bce578373ffffffffffffffffffffffffffffffffffffffff1663f23a6e6187878686866040518663ffffffff1660e01b8152600401612a64959493929190614b9c565b6020604051808303816000875af1925050508015612aa057506040513d601f19601f82011682018060405250810190612a9d919061498c565b60015b612b4557612aac6149c6565b806308c379a003612b085750612ac06149e8565b80612acb5750612b0a565b806040517f08c379a0000000000000000000000000000000000000000000000000000000008152600401612aff919061300d565b60405180910390fd5b505b6040517f08c379a0000000000000000000000000000000000000000000000000000000008152600401612b3c90614aea565b60405180910390fd5b63f23a6e6160e01b7bffffffffffffffffffffffffffffffffffffffffffffffffffffffff1916817bffffffffffffffffffffffffffffffffffffffffffffffffffffffff191614612bcc576040517f08c379a0000000000000000000000000000000000000000000000000000000008152600401612bc390614b7c565b60405180910390fd5b505b505050505050565b600080600090507a184f03e93ff9f4daa797ed6e38ed64bf6a1f0100000000000000008310612c34577a184f03e93ff9f4daa797ed6e38ed64bf6a1f0100000000000000008381612c2a57612c29613d26565b5b0492506040810190505b6d04ee2d6d415b85acef81000000008310612c71576d04ee2d6d415b85acef81000000008381612c6757612c66613d26565b5b0492506020810190505b662386f26fc100008310612ca057662386f26fc100008381612c9657612c95613d26565b5b0492506010810190505b6305f5e1008310612cc9576305f5e1008381612cbf57612cbe613d26565b5b0492506008810190505b6127108310612cee576127108381612ce457612ce3613d26565b5b0492506004810190505b60648310612d115760648381612d0757612d06613d26565b5b0492506002810190505b600a8310612d20576001810190505b80915050919050565b6000808273ffffffffffffffffffffffffffffffffffffffff163b119050919050565b6000604051905090565b600080fd5b600080fd5b600073ffffffffffffffffffffffffffffffffffffffff82169050919050565b6000612d8b82612d60565b9050919050565b612d9b81612d80565b8114612da657600080fd5b50565b600081359050612db881612d92565b92915050565b6000819050919050565b612dd181612dbe565b8114612ddc57600080fd5b50565b600081359050612dee81612dc8565b92915050565b60008060408385031215612e0b57612e0a612d56565b5b6000612e1985828601612da9565b9250506020612e2a85828601612ddf565b9150509250929050565b612e3d81612dbe565b82525050565b6000602082019050612e586000830184612e34565b92915050565b60007fffffffff0000000000000000000000000000000000000000000000000000000082169050919050565b612e9381612e5e565b8114612e9e57600080fd5b50565b600081359050612eb081612e8a565b92915050565b600060208284031215612ecc57612ecb612d56565b5b6000612eda84828501612ea1565b91505092915050565b60008115159050919050565b612ef881612ee3565b82525050565b6000602082019050612f136000830184612eef565b92915050565b600060ff82169050919050565b612f2f81612f19565b82525050565b6000602082019050612f4a6000830184612f26565b92915050565b600060208284031215612f6657612f65612d56565b5b6000612f7484828501612ddf565b91505092915050565b600081519050919050565b600082825260208201905092915050565b60005b83811015612fb7578082015181840152602081019050612f9c565b60008484015250505050565b6000601f19601f8301169050919050565b6000612fdf82612f7d565b612fe98185612f88565b9350612ff9818560208601612f99565b61300281612fc3565b840191505092915050565b600060208201905081810360008301526130278184612fd4565b905092915050565b600080fd5b7f4e487b7100000000000000000000000000000000000000000000000000000000600052604160045260246000fd5b61306c82612fc3565b810181811067ffffffffffffffff8211171561308b5761308a613034565b5b80604052505050565b600061309e612d4c565b90506130aa8282613063565b919050565b600067ffffffffffffffff8211156130ca576130c9613034565b5b602082029050602081019050919050565b600080fd5b60006130f36130ee846130af565b613094565b90508083825260208201905060208402830185811115613116576131156130db565b5b835b8181101561313f578061312b8882612ddf565b845260208401935050602081019050613118565b5050509392505050565b600082601f83011261315e5761315d61302f565b5b813561316e8482602086016130e0565b91505092915050565b600080fd5b600067ffffffffffffffff82111561319757613196613034565b5b6131a082612fc3565b9050602081019050919050565b82818337600083830152505050565b60006131cf6131ca8461317c565b613094565b9050828152602081018484840111156131eb576131ea613177565b5b6131f68482856131ad565b509392505050565b600082601f8301126132135761321261302f565b5b81356132238482602086016131bc565b91505092915050565b600080600080600060a0868803121561324857613247612d56565b5b600061325688828901612da9565b955050602061326788828901612da9565b945050604086013567ffffffffffffffff81111561328857613287612d5b565b5b61329488828901613149565b935050606086013567ffffffffffffffff8111156132b5576132b4612d5b565b5b6132c188828901613149565b925050608086013567ffffffffffffffff8111156132e2576132e1612d5b565b5b6132ee888289016131fe565b9150509295509295909350565b600067ffffffffffffffff82111561331657613315613034565b5b602082029050602081019050919050565b600061333a613335846132fb565b613094565b9050808382526020820190506020840283018581111561335d5761335c6130db565b5b835b8181101561338657806133728882612da9565b84526020840193505060208101905061335f565b5050509392505050565b600082601f8301126133a5576133a461302f565b5b81356133b5848260208601613327565b91505092915050565b600080604083850312156133d5576133d4612d56565b5b600083013567ffffffffffffffff8111156133f3576133f2612d5b565b5b6133ff85828601613390565b925050602083013567ffffffffffffffff8111156134205761341f612d5b565b5b61342c85828601613149565b9150509250929050565b600081519050919050565b600082825260208201905092915050565b6000819050602082019050919050565b61346b81612dbe565b82525050565b600061347d8383613462565b60208301905092915050565b6000602082019050919050565b60006134a182613436565b6134ab8185613441565b93506134b683613452565b8060005b838110156134e75781516134ce8882613471565b97506134d983613489565b9250506001810190506134ba565b5085935050505092915050565b6000602082019050818103600083015261350e8184613496565b905092915050565b61351f81612d80565b82525050565b600060208201905061353a6000830184613516565b92915050565b60006020828403121561355657613555612d56565b5b600061356484828501612da9565b91505092915050565b60006060820190506135826000830186612eef565b81810360208301526135948185613496565b905081810360408301526135a88184613496565b9050949350505050565b6135bb81612ee3565b81146135c657600080fd5b50565b6000813590506135d8816135b2565b92915050565b600080604083850312156135f5576135f4612d56565b5b600061360385828601612da9565b9250506020613614858286016135c9565b9150509250929050565b61362781612f19565b811461363257600080fd5b50565b6000813590506136448161361e565b92915050565b6000602082840312156136605761365f612d56565b5b600061366e84828501613635565b91505092915050565b6000806040838503121561368e5761368d612d56565b5b600061369c85828601612da9565b92505060206136ad85828601612da9565b9150509250929050565b600080600080600060a086880312156136d3576136d2612d56565b5b60006136e188828901612da9565b95505060206136f288828901612da9565b945050604061370388828901612ddf565b935050606061371488828901612ddf565b925050608086013567ffffffffffffffff81111561373557613734612d5b565b5b613741888289016131fe565b9150509295509295909350565b7f455243313135353a2061646472657373207a65726f206973206e6f742061207660008201527f616c6964206f776e657200000000000000000000000000000000000000000000602082015250565b60006137aa602a83612f88565b91506137b58261374e565b604082019050919050565b600060208201905081810360008301526137d98161379d565b9050919050565b7f455243313135353a2063616c6c6572206973206e6f7420746f6b656e206f776e60008201527f6572206f7220617070726f766564000000000000000000000000000000000000602082015250565b600061383c602e83612f88565b9150613847826137e0565b604082019050919050565b6000602082019050818103600083015261386b8161382f565b9050919050565b7f50757a7a6c653a204d697373696e6720456e747279204e465400000000000000600082015250565b60006138a8601983612f88565b91506138b382613872565b602082019050919050565b600060208201905081810360008301526138d78161389b565b9050919050565b7f5573657220616c72656164792068617320746865204c4556454c32204e465400600082015250565b6000613914601f83612f88565b915061391f826138de565b602082019050919050565b6000602082019050818103600083015261394381613907565b9050919050565b7f4e6f742061626c6520746f206275726e00000000000000000000000000000000600082015250565b6000613980601083612f88565b915061398b8261394a565b602082019050919050565b600060208201905081810360008301526139af81613973565b9050919050565b7f4e487b7100000000000000000000000000000000000000000000000000000000600052601160045260246000fd5b60006139f082612dbe565b91507fffffffffffffffffffffffffffffffffffffffffffffffffffffffffffffffff8203613a2257613a216139b6565b5b600182019050919050565b6000606082019050613a426000830186613516565b8181036020830152613a548185613496565b90508181036040830152613a688184613496565b9050949350505050565b7f455243313135353a206163636f756e747320616e6420696473206c656e67746860008201527f206d69736d617463680000000000000000000000000000000000000000000000602082015250565b6000613ace602983612f88565b9150613ad982613a72565b604082019050919050565b60006020820190508181036000830152613afd81613ac1565b9050919050565b7f4e487b7100000000000000000000000000000000000000000000000000000000600052603260045260246000fd5b7f55736572206e6f742061626c6520746f20636c61696d00000000000000000000600082015250565b6000613b69601683612f88565b9150613b7482613b33565b602082019050919050565b60006020820190508181036000830152613b9881613b5c565b9050919050565b7f436f6c6c656374696f6e206c696d697420726561636865640000000000000000600082015250565b6000613bd5601883612f88565b9150613be082613b9f565b602082019050919050565b60006020820190508181036000830152613c0481613bc8565b9050919050565b6000819050919050565b6000819050919050565b6000613c3a613c35613c3084613c0b565b613c15565b612dbe565b9050919050565b613c4a81613c1f565b82525050565b6000606082019050613c656000830186612f26565b613c726020830185613c41565b613c7f6040830184613516565b949350505050565b6000613c9282612dbe565b9150613c9d83612dbe565b9250828203905081811115613cb557613cb46139b6565b5b92915050565b6000613cc682612f19565b915060ff8203613cd957613cd86139b6565b5b600182019050919050565b600081519050613cf381612dc8565b92915050565b600060208284031215613d0f57613d0e612d56565b5b6000613d1d84828501613ce4565b91505092915050565b7f4e487b7100000000000000000000000000000000000000000000000000000000600052601260045260246000fd5b6000613d6082612dbe565b9150613d6b83612dbe565b925082613d7b57613d7a613d26565b5b828204905092915050565b6000613d9182612dbe565b9150613d9c83612dbe565b9250828201905080821115613db457613db36139b6565b5b92915050565b600081905092915050565b6000613dd082612f7d565b613dda8185613dba565b9350613dea818560208601612f99565b80840191505092915050565b7f2f00000000000000000000000000000000000000000000000000000000000000600082015250565b6000613e2c600183613dba565b9150613e3782613df6565b600182019050919050565b7f2e6a736f6e000000000000000000000000000000000000000000000000000000600082015250565b6000613e78600583613dba565b9150613e8382613e42565b600582019050919050565b6000613e9a8285613dc5565b9150613ea582613e1f565b9150613eb18284613dc5565b9150613ebc82613e6b565b91508190509392505050565b7f5573657220616c7265616479206861732074686520456e747279204e46540000600082015250565b6000613efe601e83612f88565b9150613f0982613ec8565b602082019050919050565b60006020820190508181036000830152613f2d81613ef1565b9050919050565b600081519050613f438161361e565b92915050565b600060208284031215613f5f57613f5e612d56565b5b6000613f6d84828501613f34565b91505092915050565b60008160011c9050919050565b6000808291508390505b6001851115613fcd57808604811115613fa957613fa86139b6565b5b6001851615613fb85780820291505b8081029050613fc685613f76565b9450613f8d565b94509492505050565b600082613fe657600190506140a2565b81613ff457600090506140a2565b816001811461400a576002811461401457614043565b60019150506140a2565b60ff841115614026576140256139b6565b5b8360020a91508482111561403d5761403c6139b6565b5b506140a2565b5060208310610133831016604e8410600b84101617156140785782820a905083811115614073576140726139b6565b5b6140a2565b6140858484846001613f83565b9250905081840481111561409c5761409b6139b6565b5b81810290505b9392505050565b60006140b482612dbe565b91506140bf83612f19565b92506140ec7fffffffffffffffffffffffffffffffffffffffffffffffffffffffffffffffff8484613fd6565b905092915050565b60006140ff82612dbe565b915061410a83612dbe565b925082820261411881612dbe565b9150828204841483151761412f5761412e6139b6565b5b5092915050565b600060608201905061414b6000830186613516565b6141586020830185613516565b6141656040830184612e34565b949350505050565b60008151905061417c816135b2565b92915050565b60006020828403121561419857614197612d56565b5b60006141a68482850161416d565b91505092915050565b7f50757a7a6c653a204572726f7220696e20746f6b656e207472616e7366657200600082015250565b60006141e5601f83612f88565b91506141f0826141af565b602082019050919050565b60006020820190508181036000830152614214816141d8565b9050919050565b7f4f776e61626c653a206e6577206f776e657220697320746865207a65726f206160008201527f6464726573730000000000000000000000000000000000000000000000000000602082015250565b6000614277602683612f88565b91506142828261421b565b604082019050919050565b600060208201905081810360008301526142a68161426a565b9050919050565b7f455243313135353a2069647320616e6420616d6f756e7473206c656e6774682060008201527f6d69736d61746368000000000000000000000000000000000000000000000000602082015250565b6000614309602883612f88565b9150614314826142ad565b604082019050919050565b60006020820190508181036000830152614338816142fc565b9050919050565b7f455243313135353a207472616e7366657220746f20746865207a65726f20616460008201527f6472657373000000000000000000000000000000000000000000000000000000602082015250565b600061439b602583612f88565b91506143a68261433f565b604082019050919050565b600060208201905081810360008301526143ca8161438e565b9050919050565b7f455243313135353a20696e73756666696369656e742062616c616e636520666f60008201527f72207472616e7366657200000000000000000000000000000000000000000000602082015250565b600061442d602a83612f88565b9150614438826143d1565b604082019050919050565b6000602082019050818103600083015261445c81614420565b9050919050565b6000604082019050818103600083015261447d8185613496565b905081810360208301526144918184613496565b90509392505050565b7f5265656e7472616e637947756172643a207265656e7472616e742063616c6c00600082015250565b60006144d0601f83612f88565b91506144db8261449a565b602082019050919050565b600060208201905081810360008301526144ff816144c3565b9050919050565b7f455243313135353a206275726e2066726f6d20746865207a65726f206164647260008201527f6573730000000000000000000000000000000000000000000000000000000000602082015250565b6000614562602383612f88565b915061456d82614506565b604082019050919050565b6000602082019050818103600083015261459181614555565b9050919050565b7f455243313135353a206275726e20616d6f756e7420657863656564732062616c60008201527f616e636500000000000000000000000000000000000000000000000000000000602082015250565b60006145f4602483612f88565b91506145ff82614598565b604082019050919050565b60006020820190508181036000830152614623816145e7565b9050919050565b7f455243313135353a206d696e7420746f20746865207a65726f2061646472657360008201527f7300000000000000000000000000000000000000000000000000000000000000602082015250565b6000614686602183612f88565b91506146918261462a565b604082019050919050565b600060208201905081810360008301526146b581614679565b9050919050565b60006040820190506146d16000830185612e34565b6146de6020830184612e34565b9392505050565b6000819050919050565b6147006146fb82612dbe565b6146e5565b82525050565b60008160601b9050919050565b600061471e82614706565b9050919050565b600061473082614713565b9050919050565b61474861474382612d80565b614725565b82525050565b600061475a82866146ef565b60208201915061476a82856146ef565b60208201915061477a8284614737565b601482019150819050949350505050565b600061479682612dbe565b91506147a183612dbe565b9250826147b1576147b0613d26565b5b828206905092915050565b7f4f776e61626c653a2063616c6c6572206973206e6f7420746865206f776e6572600082015250565b60006147f2602083612f88565b91506147fd826147bc565b602082019050919050565b60006020820190508181036000830152614821816147e5565b9050919050565b7f455243313135353a2073657474696e6720617070726f76616c2073746174757360008201527f20666f722073656c660000000000000000000000000000000000000000000000602082015250565b6000614884602983612f88565b915061488f82614828565b604082019050919050565b600060208201905081810360008301526148b381614877565b9050919050565b600081519050919050565b600082825260208201905092915050565b60006148e1826148ba565b6148eb81856148c5565b93506148fb818560208601612f99565b61490481612fc3565b840191505092915050565b600060a0820190506149246000830188613516565b6149316020830187613516565b81810360408301526149438186613496565b905081810360608301526149578185613496565b9050818103608083015261496b81846148d6565b90509695505050505050565b60008151905061498681612e8a565b92915050565b6000602082840312156149a2576149a1612d56565b5b60006149b084828501614977565b91505092915050565b60008160e01c9050919050565b600060033d11156149e55760046000803e6149e26000516149b9565b90505b90565b600060443d10614a75576149fa612d4c565b60043d036004823e80513d602482011167ffffffffffffffff82111715614a22575050614a75565b808201805167ffffffffffffffff811115614a405750505050614a75565b80602083010160043d038501811115614a5d575050505050614a75565b614a6c82602001850186613063565b82955050505050505b90565b7f455243313135353a207472616e7366657220746f206e6f6e2d4552433131353560008201527f526563656976657220696d706c656d656e746572000000000000000000000000602082015250565b6000614ad4603483612f88565b9150614adf82614a78565b604082019050919050565b60006020820190508181036000830152614b0381614ac7565b9050919050565b7f455243313135353a204552433131353552656365697665722072656a6563746560008201527f6420746f6b656e73000000000000000000000000000000000000000000000000602082015250565b6000614b66602883612f88565b9150614b7182614b0a565b604082019050919050565b60006020820190508181036000830152614b9581614b59565b9050919050565b600060a082019050614bb16000830188613516565b614bbe6020830187613516565b614bcb6040830186612e34565b614bd86060830185612e34565b8181036080830152614bea81846148d6565b9050969550505050505056fe697066733a2f2f62616679626569656d677a78336935776135637734376b70797a34346d3374373663727164616865356f6e6a69626d676d7073686a6969766e6a6da26469706673582212209ae18875198df58a74e89d3b2089ba391e704e1d13ef8ad722b72a2125b74bf464736f6c63430008110033",
  "linkReferences": {},
  "deployedLinkReferences": {}
}